:1000000000800020BD010000B51D0000811D000022
:10001000811D0000811D0000811D0000811D000068
:10002000811D0000811D0000811D0000B51D000024
:10003000B51D0000811D0000A52C0000692D0000E9
:10004000B51D0000B51D0000B51D0000B51D000068
:10005000B51D0000B51D0000B51D0000B51D000058
:10006000B51D0000B51D0000B51D0000B51D000048
:10007000B51D0000B51D0000B51D0000B51D000038
:10008000B51D0000B51D0000B51D0000B51D000028
:10009000B51D0000B51D0000B51D0000B51D000018
:1000A000691A0000751A0000B51D0000B51D00009A
:1000B000B51D0000B51D0000B51D0000B51D0000F8
:1000C000B51D0000B51D0000B51D0000B51D0000E8
:1000D000B51D0000B51D0000B51D0000B51D0000D8
:1000E000B51D0000B51D0000B51D0000B51D0000C8
:1000F000B51D0000ED2E0000B51D00000930000008
:10010000B51D000025310000B51D0000B51D000023
:10011000B51D0000B51D0000B51D0000B51D000097
:10012000B51D0000B51D0000B51D0000B51D000087
:10013000B51D0000B51D0000B51D0000B51D000077
:10014000B51D0000B51D0000B51D0000B51D000067
:10015000C52D0000D92D0000ED2D0000012E00005E
:10016000B51D00001D230000B51D0000B51D0000D9
:10017000B51D0000B51D0000B51D0000B51D000037
:10018000B51D0000B51D0000B51D0000B51D000027
:10019000B51D0000B51D0000B51D0000B51D000017
:1001A000B51D0000B51D0000B51D0000B51D000007
:1001B000B51D0000B51D0000B51D0000564B4CF2EA
:1001C000205210B51A804DF628121A8000BF00BFC9
:1001D00001F0F4FD514B4FF010621A60504A9A60E2
:1001E000504ADA60504A136813F4807301BF4F49D4
:1001F0000B604FF4A85313604D4B4E491A7810070B
:1002000042BF1A7842F008021A704B4B2A221A7029
:100210004A4A4B4B8B4204D252F8040F43F8040B6A
:10022000F8E7484B484A0021934202D243F8041BA6
:10023000FAE7464A4648002350F8231042F82310B4
:1002400001336F2BF8D1434B434A802103F8011B44
:100250009342FBD1414B3D4A1A60414B8A221A70AE
:10026000A3F5805324225A70A0221A709A7991071C
:10027000FCD59A79D206FCD43A4A937903F00C0360
:10028000082B384BF9D105221A7143225A719A79F9
:100290009406FCD533498A79324B5006FBD5324A55
:1002A0004FF0817111600521516020221A709A79F6
:1002B00002F00C020C2AFAD12C4B2D4A1A602D4B5D
:1002C0002D4A1A6000225A60072243F8042C2B4A58
:1002D000C3F80C2D62B601F005FF144B1B68DA075A
:1002E00005D5274801F0EEFD264B274A1A60274B1B
:1002F0001B785B0609D5234C234B22689A4204D114
:100300001F4801F0DFFD0023236002F0DFFF01F052
:100310005BFD01F093FCFEE70E20054030800440B9
:10032000823F04000100002B10D0034014D0034092
:1003300002D007400497FF1F00E00740A0400000E4
:100340002087FF1F0497FF1F409CFF1F0082FF1F95
:100350000000000000E400E05FE400E008ED00E0E1
:1003600000500640004006404480044004800440A1
:10037000C010050014E000E03F190100000020203B
:10038000AD04A45B1CE00340A5C3945A00F00740F1
:10039000FFFFFFFFFFFFFFFFFFFFFFFFFFFFFFFF6D
:1003A000FFFFFFFFFFFFFFFFFFFFFFFFFFFFFFFF5D
:1003B000FFFFFFFFFFFFFFFFFFFFFFFFFFFFFFFF4D
:1003C000FFFFFFFFFFFFFFFFFFFFFFFFFFFFFFFF3D
:1003D000FFFFFFFFFFFFFFFFFFFFFFFFFFFFFFFF2D
:1003E000FFFFFFFFFFFFFFFFFFFFFFFFFFFFFFFF1D
:1003F000FFFFFFFFFFFFFFFFFFFFFFFFFFFFFFFF0D
:10040000FFFFFFFFFFFFFFFFFFFFFFFFDEF9FFFF23
:1004100010B5054C237833B9044B13B10448AFF33E
:1004200000800123237010BD0497FF1F000000000F
:100430009C400000084B10B51BB108490848AFF3B9
:1004400000800848036803B910BD074B002BFBD0A0
:10045000BDE81040184700BF000000000897FF1FCC
:100460009C4000000497FF1F0000000070B586B09C
:10047000104B114D049312230024012602931323E1
:10048000697B0193224623462869059603940094CC
:1004900000F0C0FB2B69094AC3F8782231460D20D1
:1004A00001F040FD21460D2006B0BDE8704001F08E
:1004B00019BD00BF801A06003C99FF1F400D0300C4
:1004C0002DE9F843224F234C234D002323702B703A
:1004D000B8463E46DFF8889002F0D4FA002833DDB3
:1004E00002F0AAFA3B78172B88BF0023C0B288BF5E
:1004F0003B703E2813D198F80030184A02EB030EE7
:10050000D054002101338EF801102B70137888F835
:1005100000103C2B04BF01232370002305E03C287E
:1005200005D1002388F80030012389F8003099F8BC
:100530000030002BD0D03378084AD0541A44002120
:10054000013351703370C5E72078BDE8F88300BFF0
:100550004497FF1F3897FF1F5D97FF1F2097FF1FCE
:100560002499FF1F08B50921044800F0D1F80E2195
:100570000348BDE8084000F0D5B800BF4097FF1F12
:100580006497FF1F2DE9F043554C5648216885B00C
:1005900000F022F9FFF794FF002800F09E80524BF4
:1005A000524A1B680393039B2360514C637813707A
:1005B000013B062B00F28780DFE803F0040C0C857A
:1005C0000F467D004B4A137813B90123137000E0E6
:1005D000022363703E23A3707AE0474BA178474E15
:1005E0001970474F002333701D469C46E21892F85D
:1005F00003E05A1CBEF13E0FD2B207D007F803E069
:100600003B44054683F801C01346EFE705B133705C
:100610003C4D284600F0D6FB327839492846002662
:1006200000F026F96A7B009601232969284600F02C
:1006300099FE284600F03DFE08B1A67001E00123B6
:10064000A3703E23E37018E02E4F2B4BA2781A7054
:100650004FF001084FF00009797B254E8DE800032B
:100660000623386900F093FE384600F022FE054666
:1006700038B13E2386F80290F370234B04221A709F
:1006800026E03869D0F83821D0F834313146D21A12
:1006900000F0AAFE86F802803E226319DD70013563
:1006A000EDB2062D1A71F8D1144B174A1D7013784C
:1006B000063313700CE03E2323710F4BA2781A709F
:1006C000E278124BDBE7042363703E23A37004E05F
:1006D0000D4B0748197802F0E3F905B0BDE8F08347
:1006E0003C97FF1F6497FF1F5C99FF1F5F97FF1FD9
:1006F0002097FF1F3997FF1F5E97FF1F6097FF1F0F
:100700004597FF1F3C99FF1F5D97FF1F2599FF1F0E
:1007100038B504460D46E8B2012101F003FC25601E
:10072000204638BD38B50023037043604FF4FA63A8
:1007300004460D468360C3614FF4C87205492C30EE
:1007400001F084FAE8B2012101F0ECFBC4F8BC51DD
:10075000204638BD303C0000012190F8BC0101F07A
:10076000C1BB836870B553431546FF22B3FBF2F358
:10077000436104460E4601F07FFCE0603DB16168D4
:100780006369411A99422CBF0021012100E02946EA
:1007900084F82010F0B201F0A5FB6268E368A1685C
:1007A000981A884298BF1346636070BD426A836A94
:1007B000B2F57A7FB4BF01320022426202B901333E
:1007C000642BA8BF0023836200EB8303D0F8BC1125
:1007D000DA6AFFF7C6BFFFFF07B5094B1B68019335
:1007E000019B8361591AC369994203D2FFF7DEFF67
:1007F000012002E0FFF7B0FF002003B05DF804FB2A
:100800005C99FF1F002070470369D3F83801D3F8C3
:100810003431C01A704770470269D2F84432B3F5D8
:10082000817F09D8D2F84432581C1344C2F84402DC
:1008300083F83C11012070470123037100207047A9
:1008400038B50A4B0360036993F84822022A04462C
:1008500009D1D3F8745235B1284601F0BFF9082107
:10086000284601F0E9FA204638BD00BFC83D000027
:1008700038B514460269D2F84432B3F5817F054693
:100880001AD8D2F84432D2F84402C3F58173013346
:10089000A34202F59E7238BF1C4610443CBF0122A1
:1008A0002A71224601F0D2F92A69D2F8443223444F
:1008B000C2F84432204638BD01230371002038BD00
:1008C00010B5044601F0D8FB2368C01A10BDFFFF25
:1008D000002210B502710273064A02604FF47A7466
:1008E000054A84604FF42674417304FB01210161C1
:1008F00010BD00BFC83D00000088FF1F30B5094C87
:10090000002322441D5D854206D1D55C8D4203D172
:10091000044A1344D87830BD0433102BF2D10020A0
:1009200030BD00BFE43D0000F8B5C3681B789B06EE
:1009300004460E4600F19780836880211970C368D1
:100940001221197090F84932012B03D01AB980F89E
:10095000482200E01A46531E012B00F2868016B989
:100960004FF0807103E0012E03D14FF00071404B36
:100970001960022A73D1D4F8745245B9082001F0E5
:1009800059FA2946074601F0D5F8C4F87472D4F82C
:1009900074526DB12B79102B0AD1284601F01EF943
:1009A0000821284601F048FA0023C4F8743256E0C2
:1009B00036BB2A682F48938B9BB243F0080393837E
:1009C0002A792D4B02F1100143F8210053119B00AD
:1009D00003F1604303F5614302F01F02012101FAB4
:1009E00002F21A602A68938B9BB243F0020393834E
:1009F0002B7903F1804303F5043396221E7026E021
:100A0000012E25D12A681D48938B9BB243F0080321
:100A100093832A79184B02F1100143F821005311F6
:100A20009B0003F1604303F5614302F01F0296400F
:100A30002A681E60938B9BB243F0020393832B7949
:100A400003F1804303F5043300221A7097221A70D1
:100A5000002384F85E32022384F8483205E0012046
:100A600084F84802F8BD0020F8BD0120F8BD00BFA1
:100A700000E100E0691A00000082FF1F751A000003
:100A8000F0B54FF47A74B1FBF4F3B2FBF4F21D4C01
:100A90001B02B3FBF2F2002354F82350194EB2EBC1
:100AA000052F03DB0133372BF6D100E03BB35D1E8E
:100AB00056F8237056F82540A2EB0424002CA2EB34
:100AC0000722B8BF6442002AB8BF5242944216DCE3
:100AD0000D4A4368525D1A7056F82530B1FBF3F3A6
:100AE000C0F85032094B826999428FBF0423084BEA
:100AF000B1FBF3F1C9B28CBF13701170F0BD1D468C
:100B0000E6E700BFF83D0000D43E0000FF6BDC02CA
:100B1000001BB7002DE9F0479DF824909DF8208038
:100B200004468A4615461F46B9F1000F06D0C36831
:100B30001B789B0602D50020BDE8F08701222946DC
:100B40005046FFF7DBFE94F84A329D42064600D03D
:100B50001EB9B9F1000F0DD020E0B9F1000F09D096
:100B600094F84C3294F84A02002B14BF0221002161
:100B700001F0D8F9330203F4E063B8F1000F02D1B9
:100B800043F0640301E043F00303214A02EBC50292
:100B90005268136084F84A5284F84C820222394623
:100BA0005046FFF7ABFE94F84B329F42054600D00B
:100BB00018B9B9F1000F0DD020E0B9F1000F09D03C
:100BC00094F84C3294F84B02002B14BF0221002100
:100BD00001F0A8F92B0203F4E063B8F1000F02D191
:100BE00043F0640301E043F00303094A02EBC70248
:100BF0005268136084F84B7284F84C8226B1281C2A
:100C000018BF0120BDE8F0873046BDE8F08700BF7F
:100C10000C3F0000F7B5044617469DF820009DF8EC
:100C200024209DF828600D4631B9DFF8B4E0DEF8E5
:100C3000001041F0400107E0012907D1DFF8A0E0F2
:100C4000DEF8001041F08001CEF80010002184F899
:100C5000551284F84972616917B920230B7015E0A9
:100C6000002814BF282720270F70276801D098423A
:100C700001D9590000E04100C9B23970E16920B1E1
:100C800098428CBF40005800C0B2087012B994F866
:100C90004A22D2B216B994F84B62F6B200230193FD
:100CA0009DF82C300093294633462046FFF732FF4B
:100CB0000C9A0A492046FFF7E3FE9DF834202946A6
:100CC0002046FFF731FE94F84922A3680AB9802232
:100CD00000E0C0221A7003B0F0BD00BF0051250231
:100CE00034800440F7B504460E4615461F4601F011
:100CF000C3F901900DB9D4F8785201F0BDF9A36899
:100D000001901A78920602D5B4221A702AE025B111
:100D100001A8FFF7D5FD85420CD9E3681B7803F0E5
:100D2000200303F0FF02002BF1D1A36884F84922CD
:100D3000B0221A70A3681B7803F0200303F0FF05AC
:100D400083B9062384F85532D4F8903201331EBF9C
:100D5000D4F890320133C4F89032D4F8703243B3EF
:100D6000984726E0144B1B786BB994F84832013B46
:100D7000012B08D801F040F83EB1012E05D10F4BF0
:100D80001B78834203DA012513E00D4BF8E70F28A7
:100D900002DC01253D700CE0103836B1012E04D183
:100DA000064BC0B21870354603E0054BC0B2187050
:100DB000E9E7284603B0F0BD5099FF1F19E400E0B1
:100DC00018E400E00369490083F83C11036901223B
:100DD000C3F844220022027183F8552270472DE99E
:100DE000F7431D4600238DF80330D0F84432044603
:100DF0001646002B00F0ED800DB9D0F87852E3686C
:100E000012221A7020460DF103032A46FFF76AFFEB
:100E1000002800F0DE8094F8483213B19DF80320DA
:100E2000D2B101F029F902AF082347F8040D84F884
:100E3000546284F8553204F23B1800264FF0020940
:100E4000D4F844329E4262D2002D48D03846FFF793
:100E500037FD854243D85AE0591E012900F2B98076
:100E60000821022B84F8551284F85462C4F84022F9
:100E70002DD1D4F84432042B29D9D4F8741201208E
:100E80000D6884F85E02D4F84432EA7104F59F7666
:100E9000A8802E600D68A8600868033B5D429BB285
:100EA000C3830968C560CB82D4F87432206919689D
:100EB000B0F1804F8A718A8208611A68C0F086801A
:100EC0009168002900F082801B6800229A61A36863
:100ED000F0221A70236994F83C211A7079E0236992
:100EE00018F8012F1A70E3681B78980706D4002DB4
:100EF000F9D03846FFF7E4FC8542F4D8E36883F87C
:100F0000009055B33846FFF7DBFC854225D894F8AE
:100F10005432012BA36801D1802200E0B0221A7064
:100F2000D4F844329E420FD2012384F85532D4F8CB
:100F30008032013302D1D4F870320AE0D4F8803222
:100F40000133C4F88032F6E7002384F85532D4F830
:100F50006032002B3DD098473BE0E2681378DBB26B
:100F6000D90611D5042384F8553210231370A368D1
:100F700080221A70D4F88C320133DCD0D4F88C3251
:100F80000133C4F88C32D6E7DB071DD566B90223DE
:100F900084F85532D4F88432013311D0D4F8843235
:100FA0000133C4F884320BE0032384F85532D4F8BB
:100FB000883201331EBFD4F888320133C4F8883236
:100FC000A36880221A70B6E7013639E701219160E3
:100FD0007AE703B0BDE8F0832DE9F341154600221E
:100FE00004469DF82080099E8DF80320002B00F018
:100FF0005D81B3F5827F03D3052380F8553255E137
:10100000C0F83421C0F85832C0F838210EB9D0F8F1
:101010007862E36812221A7020460DF1030332460B
:10102000FFF760FE002800F0418194F8483213B1C8
:101030009DF80310D9B101F01FF86D00092384F861
:10104000553202AF236947F8040D45F00105EDB2B2
:1010500084F854821D70E3681B789D074AD4002EE3
:10106000F9D03846FFF72CFC8642F4D842E05A1EED
:10107000012A00F21B810922022B84F8552284F8F0
:1010800054822DD1D4F85832042B29D9012384F865
:101090005E32D4F8743220691A68B0F1804FD17191
:1010A000106091801A6801D3916809B9012191609B
:1010B000D4F874221B681168002604F13000DE6049
:1010C000D4F8583208618E710120888211688860D6
:1010D0001168013B58429BB2CB8312688861D3826E
:1010E000A368F0221A706D00236945F00105EDB286
:1010F0001D70DBE0E36802221A7026B101A8FFF739
:10110000DFFB864254D9E2681378DBB2D90611D5E9
:10111000042384F8553210231370A36880221A70B8
:10112000D4F88C32013317D0D4F88C320133C4F8A0
:101130008C3211E013F0010FA36814D0022284F85E
:10114000552280221A70D4F8843201331EBFD4F89D
:1011500084320133C4F88432D4F87032002B00F0AA
:10116000A5809847A2E00A2284F85522D4F8582294
:10117000012A0CBFA822A0221A7023691B7802251D
:10118000D4F83821D4F858329A4280F08F8094F8FD
:1011900055320A2B40F08A80E3681B78980717D4F1
:1011A000002EF9D001A8FFF78BFB8642F4D80FE0A0
:1011B000A36880221A70012384F85532D4F8803253
:1011C0000133C9D0D4F880320133C4F88032C3E788
:1011D000E3681D70F6B101A8FFF772FB86428CBF71
:1011E00000200120D4F83831D4F858220233934239
:1011F00012D010B194F85D3273B1D4F83831D4F80C
:101200005822013393420BD200283ED094F85D322D
:1012100033B93AE03046E5E7A368A8221A70ECE754
:10122000002384F85D32A368B0221A7023691A780B
:10123000D4F83831591C2344C4F8381183F83020CD
:1012400094F85432012B05D11823013BFDD1A3683A
:1012500080221A7080B1012384F85532D4F880328C
:1012600001331EBFD4F880320133C4F88032D4F881
:101270007032BBB1984715E0D4F8643284F8550257
:10128000002B3FF47DAF98477AE7D4F838315A1CE9
:10129000C4F8382122692344127883F830200028CA
:1012A0003FF46EAF012384F85D3268E702B0BDE819
:1012B000F081036993F85532013B052B0AD8DFE82A
:1012C00003F0070305070E0702207047032070474D
:1012D000042070470079003018BF012070470120BA
:1012E000704773B50446154600F0C6FE01900DB96F
:1012F000D4F8785200F0C0FE02AE46F8040D94F81F
:101300005532072B21D9002DF9D03046FFF7D8FAF6
:101310008542F4D801A8FFF7D3FA85420DD894F896
:101320004832022B09D194F85E3233B194F8553229
:10133000072BFBD8012384F8553294F85532072B3C
:1013400006D9012384F8553202E0002DF5D0E1E7FB
:101350006023013BFDD194F85502B0FA80F04009BA
:1013600002B070BDF8B5069E0C46154607461A46F3
:10137000294633462046FFF732FD324629462046AD
:10138000FFF7AFFF3846BDE8F840FFF792BFF7B56B
:10139000099D04460E460BB900200EE09DF8207012
:1013A00001950097FFF718FE2A4631462046FFF7C1
:1013B00098FF0028F0D0D4F8380103B0F0BDD0F881
:1013C0003421D0F838319A423FBFD0F834315A1C1A
:1013D000C0F83421C01834BF90F830004FF0FF300F
:1013E00070470069FFF7EBBF38B505460846D5F8EA
:1013F0003811D5F83431994216D9D5F83831D5F8A5
:1014000034411C1B9442D5F8343128BF144605F1F1
:1014100030011944224600F019FCD5F83431234438
:10142000C5F83431204638BD002038BDD0F834210D
:10143000D0F838319A423DBFD0F83431C01890F816
:1014400030004FF0FF3070470069FFF7EFBFFFFF3C
:101450002DE9F0410446B448E76803780133DBB274
:101460000370A3683D781A78D2B212F0200F884634
:10147000EDB2064616D012F0100F94F85E2208D096
:10148000022A00F0BE8094F85E22032A40F0E38036
:10149000B7E0022A00F0CC8194F85E22032A40F0E3
:1014A0002A82C5E115F0100F05F040030BD0102182
:1014B000397043B9E36802221A700378013BDBB24A
:1014C0000370BDE8F08103F0FF01002B4FD094F8CA
:1014D00055320C2B04D1D4F86832002B40F0B28284
:1014E00005F0040505F0FF07F5B10B2384F855322C
:1014F0000023C4F84432A368D0221A7023691B78F1
:101500005B0884F85632D4F86C3203B19847D4F8AB
:1015100044320BB984F83C31236994F83C211A70A9
:101520000123C4F8403219E0804B814984F85C7291
:101530000322B8F1000F18BF194694F84B0200F0CF
:1015400023FD0C2384F85532A368C4F83871C022F7
:101550001A7023691B785B0884F85632E36802220C
:101560001A703378013BDBB23370BDE8F08102F0D2
:10157000100202F0FF03F2B115F0010513D1D4F807
:101580004022D4F844329A4207D2D4F840325A1C4E
:101590002344C4F8402293F83C5123691D70A3688A
:1015A000D0221A7028E0A368C0221A7023691B7821
:1015B00084F8551220E094F855220C2A1CD184F8A6
:1015C0005C325B49594B94F84B02B8F1000F18BFDD
:1015D0001946032200F0D8FC23691A78D4F8383170
:1015E000B3F5817FD2B207D8D4F83831591C2344DF
:1015F000C4F8381183F83020E36802221A70BDE87D
:10160000F081D4F874321A68928B120600F10081CE
:1016100094F85E22032A0ED13A781206FCD51A7984
:10162000444B1A70002384F85E32D4F84432013BF4
:10163000C4F8403207E01A793F4B19680123934000
:101640000B428ED02BE1D4F840322269234493F828
:101650003C31137082E794F85522082A70D105F0C6
:10166000100202F0FF016AB10023042284F85E3206
:1016700084F8552210223A70A26880211170C4F8B3
:1016800040326BE015F0010523D084F85E12D4F8E7
:10169000402262B9022284F85522D4F88422013211
:1016A00011D0D4F884220132C4F884220BE0032242
:1016B00084F85522D4F8882201321EBFD4F888223B
:1016C0000132C4F8882280221A70E36802221A705C
:1016D000DEE0D4F840220132C4F84022D4F84412AB
:1016E0008A420ED394F8542284F85552012A0CBF32
:1016F0008022B0221A70E36802221A70D4F8603295
:10170000C8E094F85E22012A9DD1F121022284F8DA
:101710005E221970D4F874321979084B1970236954
:1017200094F83D11197081E05099FF1FE51A0000EF
:10173000D91A00001C8000402C8000401B80004013
:1017400094F85522092A48D1E80615D5042384F8CF
:10175000553210233B70A36880221A70E36802227E
:101760001A70D4F88C32013300F09280D4F88C32A5
:101770000133C4F88C328BE0E90710D502228021B6
:1017800084F855221970E3681A70D4F88432013352
:101790007ED0D4F884320133C4F8843278E094F8EF
:1017A0005E22012A0CD1E121022284F85E22197006
:1017B000D4F874321979A74B197023691B7835E076
:1017C0000A2284F85522D4F85822012A0CBFE822B4
:1017D000E0221A7023691B78C0E694F85522012A8A
:1017E00013D194F85422012A0CBF8022B0221A701F
:1017F000E36802221A70D4F88032013348D0D4F85A
:1018000080320133C4F8803242E080221A7051E6FF
:1018100094F85E22022A7FF4FBAE19798E4B197080
:10182000A368F0211970032384F85E32E36897E619
:10183000D4F874321A681B79928B12F0800F40F042
:10184000A38094F85E22032A74D0844A116801228E
:101850009A400A423FF485AE814A1370D4F874323C
:101860001A797D4B1A70002384F85E32072384F8BE
:101870005532A36880221A70E36802221A70D4F8E5
:101880009432013304D0D4F894320133C4F8943242
:10189000D4F87032002B3FF464AE984761E6704B89
:1018A0001A70D4F874321A796B4B1A70002384F8CA
:1018B0005E32072384F85532D4F89432013304D0D1
:1018C000D4F894320133C4F89432ED0611D50423D0
:1018D00084F85532D4F88C3201331EBFD4F88C32E0
:1018E0000133C4F88C32E36810221A700023C4F864
:1018F0004032A368E7E6D4F83821D4F8581202320F
:101900008A424BD094F85522012A03D194F85D22E3
:10191000002A43D0D4F83831D4F858220133934206
:101920005AD294F85532012B3BD194F85D32002BFA
:1019300052D136E04B4A1370002384F85E32A3681C
:10194000B0221A70D4F85832013BC4F83831D4F8B8
:1019500038315A1CC4F8382122692344127883F89C
:10196000302094F85432012B05D11823013BFDD1CE
:10197000A36880221A70E36802221A70002384F898
:101980005532D4F8643285E794F85E22022A7FF457
:1019900058AF31490B70A368E82143E7E8221A7079
:1019A000B8E7D4F838315A1CC4F8382122692344E6
:1019B000127883F83020E36802221A7094F85532C6
:1019C000DBB2012B7FF4CDAD94F85D22002A7FF4C9
:1019D000C8AD84F85D32C4E5002384F85D32A368A5
:1019E000B0221A70D4F838315A1CC4F83821226950
:1019F0002344127883F8302094F85432012B05D117
:101A00001823013BFDD1A36880221A70E3680222EB
:101A10001A7094F85532012B0BD1D4F8803201336F
:101A20001EBFD4F880320133C4F88032D4F870324B
:101A300004E0002384F85532D4F86432002BBDD082
:101A40009847BBE70022C4F83421D4F838019847FE
:101A500046E500BF1B8000401F8000402C800040F6
:101A60001E8000401C80004000210148FFF7F0BCB0
:101A70000088FF1F01210148FFF7EABC988AFF1F79
:101A800070B5C3681B7803F02003044603F0FF051C
:101A90007BB980F8555290F84B0200F0D1F9D4F898
:101AA0006832C3B1C4F83451D4F83801BDE870408D
:101AB000184790F85C320133DBB2012B80F85C32BE
:101AC00003D890F84932012B05D094F84B02BDE8B9
:101AD000704000F0B5B970BD00210148FFF7D0BFDC
:101AE0000088FF1F01210148FFF7CABF988AFF1F26
:101AF00038B50C4B0C4D0D4C18460021FEF7E8FE96
:101B00002A462146184601F0CFFB094B0121184611
:101B1000FEF7DEFE2A4621461846BDE8384001F0B1
:101B2000C3BB00BF3C99FF1FFC87FF1F410800009B
:101B30002899FF1F30B572B6254C89B9016879B173
:101B400003790F2B0CD822881A41D20708D503F14C
:101B5000007303F59063B1EB431F01D162B630BD52
:101B60002188002341FA03F212F0010227D1012556
:101B70009D402943218062B6164DD9B201712C686F
:101B800044F002042C6055F8044C03F1007344F057
:101B9000020445F8044C03F590630F4C5B01822569
:101BA0002560A176A1772176E17703601A605A60FB
:101BB0009A60DA601A615A619A61DA6130BD013364
:101BC000102BCFD162B600220260037130BD00BF7E
:101BD0005299FF1F408004400080004003790F2B82
:101BE00010D8094A137072B608490279012303FA22
:101BF00002F20B8823EA02030B8062B61023037102
:101C000000230360704700BF1A8000405299FF1FF5
:101C100010B5044601F0B4F8204610BD0448054A4A
:101C20000549002303608023037101F03DBB00BF21
:101C30005499FF1FFC87FF1F111C000008B5FEF719
:101C400015FCFEF79FFC00F0BFFFFAE7844641EA6F
:101C5000000313F003036DD1403A41D351F8043B24
:101C600040F8043B51F8043B40F8043B51F8043B76
:101C700040F8043B51F8043B40F8043B51F8043B66
:101C800040F8043B51F8043B40F8043B51F8043B56
:101C900040F8043B51F8043B40F8043B51F8043B46
:101CA00040F8043B51F8043B40F8043B51F8043B36
:101CB00040F8043B51F8043B40F8043B51F8043B26
:101CC00040F8043B51F8043B40F8043B51F8043B16
:101CD00040F8043B51F8043B40F8043B403ABDD285
:101CE000303211D351F8043B40F8043B51F8043B27
:101CF00040F8043B51F8043B40F8043B51F8043BE6
:101D000040F8043B103AEDD20C3205D351F8043BB5
:101D100040F8043B043AF9D2043208D0D2071CBF81
:101D200011F8013B00F8013B01D30B8803806046AA
:101D3000704700BF082A13D38B078DD010F0030320
:101D40008AD0C3F10403D21ADB071CBF11F8013B90
:101D500000F8013B80D331F8023B20F8023B7BE7DF
:101D6000043AD9D3013A11F8013B00F8013BF9D20A
:101D70000B7803704B7843708B78837060467047A4
:101D800008B50B4D2C462B68580301D500F0C6FA58
:101D90002368590501D501F0A9F823681A0501D572
:101DA00001F032F92368DB04EDD501F0BBF9EAE775
:101DB0003480044008B5FFF7E3FFFFFF014B10221A
:101DC0001A807047002005407047FFFF094908B599
:101DD0000B6868B16A461844A2F58052904206D357
:101DE00001F06EFA0C2303604FF0FF3008BD08606D
:101DF000184608BD308DFF1FEFF31380A8B9EFF32D
:101E00001082A2B9EFF3058323B10F2B05D9084A3D
:101E1000985C03E04FF4807000E01046EFF311830C
:101E20002BB1984228BF184670474FF0FF307047DB
:101E3000F0E300E001F072BA01F078BA7047FFFFFA
:101E4000194B03EBC000426802F14043A3F5922115
:101E50007C2910D9A3F594217C290ED9A3F59621CC
:101E60007C290CD9A3F598217C290AD9A3F59A23BA
:101E70007C2B08D970470D4906E00D4904E00D4957
:101E800002E00D4900E00D4972B6136823F0877334
:101E900023F4803343F080731360C2F38402084B51
:101EA00041F8223062B670470C3F0000348DFF1FAE
:101EB0006C8DFF1FBC8DFF1FEC8DFF1F0C8EFF1F55
:101EC0003D1E0000044B054900221A600A60044AC6
:101ED000106010221A60704714D0034004D00340F1
:101EE00000D00340212810B518D80D4B53F83020EE
:101EF00092F880423CB1012311B182F8803010BDCC
:101F000082F8003110BD03EBC0035B681A6811B1A1
:101F100042F0030201E022F002021A6010BD00BF8D
:101F20000C3F0000212810B52BD8164A02EBC00345
:101F300001295B68144601D004290FD154F83020E0
:101F4000012082F880024FF4A2721A601A680429F4
:101F50000CBF42F0200222F0200211E052F83000C3
:101F6000002280F8802211B94FF4807208E0022923
:101F700002D140F2031203E0032908BF4FF481723B
:101F80001A6010BD0C3F0000212870B50E4659D8CC
:101F9000042A57D8DFE802F0070905030B000923DC
:101FA00006E00A2304E0082302E00C2300E00B23F0
:101FB0001D04254B03EBC0035C68216811F4E0614C
:101FC00001D1FFF7AFFF214B214AC3F89C21214AE1
:101FD000C3F8A021204AC3F8A421204AC3F8A821AD
:101FE0001F4AC3F8AC2104F14043A3F592227C2A96
:101FF00010D9A3F594227C2A0ED9A3F596227C2A27
:102000000CD9A3F598227C2A0AD9A3F59A237C2B14
:1020100008D970BD134B06E0134B04E0134B02E0EC
:10202000134B00E0134B72B6226822F47022226038
:1020300042F08071C4F3840243F8226045EA010350
:10204000236062B670BD00BF0C3F00000082FF1F1E
:10205000D187FF1FA587FF1F7987FF1F4D87FF1FB0
:102060002187FF1F348DFF1F6C8DFF1FBC8DFF1F4D
:10207000EC8DFF1F0C8EFF1F72B60C4B0C4A0D49E6
:102080001B681268096862B6490102D5322B88BF05
:102090000132C3F58C33482003F23F13B3FBF0F356
:1020A0004FF47A7000FB0230704700BF18E000E088
:1020B0005C99FF1F04ED00E038B50446FFF7DCFF34
:1020C000054624B938BD013C0AD005F57A75FFF7FD
:1020D000D3FF401BB0F57A7FF5D200F075FDF6E72F
:1020E00038BDFFFF214B4FF4000210B51A604FF0CE
:1020F00080721A604FF000721A604FF080621A60AE
:102100004FF000621A601A4B1A4A1B4C002048F626
:10211000FF71186059602823136093601361936105
:1021200013629362136393630922226004F580545F
:10213000043420606160A360236144F8042C04F53A
:10214000FE2420600D4801600D490B608B600D4B33
:102150001A6000F05FFE3220FFF7AEFF00F0EAFBEE
:102160004FF4AF70BDE81040FFF7A6BF08E100E0F4
:10217000048003400C8003400080034008800B4033
:102180000C800B4000800B40F0B50C4C0C4E2378BB
:102190000C4D43F0020706EBC70283F001035060C9
:1021A0002A782370002A14BFC820882082F00102F8
:1021B00040EA01412A7046F83710F0BDC899FF1F68
:1021C0000080FF1F409AFF1F431E032B10B510D83D
:1021D00072B6094A52F8230048B1416842F8231008
:1021E0000649048831F81320121B21F8132062B627
:1021F00010BD002010BD00BFB899FF1F289CFF1F15
:10220000013803280AD872B6054B53F82030002055
:1022100013B101305B68FBE762B67047002070477E
:102220000C9AFF1F70B472B6174C184901231A1983
:1022300012F8012C12071DD59A00144E51F8325095
:102240002DB906EB431308305860114B09E042F0FA
:10225000010251F832506DB906EBC20308305860E4
:102260000C4B46F832300C4A1378013B137062B6BF
:1022700070BC70470133052BD9D162B6064B0022E2
:102280001A7070BC00F0B6BB1C4000000080FF1F3D
:1022900088004000C8004000369AFF1F431E032BF1
:1022A00010B532D8194A400140F01000104472B6FF
:1022B000174AD45C032C0BD8DFE804F0180402079B
:1022C000052414E00830022411E0083004240EE054
:1022D0001048114A50F8234014B940F8231002E086
:1022E00052F82300416042F823100DE00324D45437
:1022F00010F0080F01F108030A88436014BFC823D7
:10230000882343EA0243036062B610BD0080FF1FCA
:102310007499FF1F0C9AFF1F1C9AFF1F2DE9F74F9E
:10232000A94B1C78E4B214F0040F1D461AD0A74B39
:102330001B78A3B1A64A117801F0FF0321B1013B3C
:10234000DBB2137003B900BEA24A117801F0FF039B
:1023500029B1013BDBB213700BB900F011FC9A4AB2
:102360000423137004F0080303F0FF02002B00F0B5
:102370007182994B994C1B78DBB21F094FEA930687
:1023800040F0EC8104EBC603596854F83630C3F3CF
:102390008303013B0C2B00F2DD81DFE813F09A018F
:1023A0009A01DB01DB01DB01DB01DB01DB01B901B0
:1023B000DB01DB01DB010D000A68894D89484B68B0
:1023C0002A6001216B60DFF85082874B017092B266
:1023D00040F2816044F8363082424FF00003C8F882
:1023E00000302361A36117D8B2F5D06F80F0278148
:1023F000B2F5817F00F0D88006D8802A00F0C18035
:10240000822A00F0C28035E140F202339A4200F0A5
:102410000781B2F5A06F1AE042F22100824200F07B
:1024200055810CD8B2F5086F00F0A580B2F5106F99
:1024300040F02081654AA97811701E460AE042F2F8
:1024400021218A4200F00E8142F221339A4200F0AB
:1024500015810FE1A219136A1F0603D5506A0838C7
:1024600000F0C8FA0836802EF4D1DFF8B0915F4F43
:102470000026CA4659F826004FEA860B30B142685A
:10248000009200F0B7FA009A1046F7E7584B594A05
:102490004AF80B004BF803005BF8020040B14168BA
:1024A0000192009100F0A6FA0099019A0846F5E71A
:1024B000514B42F80B0023F816003B784F4A023B81
:1024C0004BF80200032B07D8DFE803F002040204F4
:1024D000002300E001233B700136042E07F10107C1
:1024E000C8D1474B474E404F00221A704FF0010BA6
:1024F0009946454A0BEB06015A4411F8011C92001B
:1025000011F0080F11704FEA8B0A24D000F054FA32
:1025100038B104EB4B1208303C4B506044F83A3071
:1025200006E099F8002044F83A00013289F80020CA
:1025300000F042FA4AF0010230B104EBC201083067
:10254000486044F8327006E044F8320099F8002000
:10255000013289F800204AF002010BF1010B4AF028
:10256000030A0022BBF1050F44F8312044F83A2059
:10257000BFD1134683E0154B254E1B7833700B46B5
:1025800080E0234E337073707BE0AA8802F07F02F4
:10259000042A6FD81E4E9200337073701D4B9B5CE3
:1025A0009C076ED531706CE0AA8802F07F02042A85
:1025B00060D86B88002B5DD11649920011440A78CF
:1025C00022F0020239E000BF802007403F9AFF1F3F
:1025D000C999FF1F419AFF1F902007400080FF1FED
:1025E0002C9AFF1F409AFF1FC80040007499FF1FDC
:1025F0006499FF1F0C9AFF1F289CFF1F1C9AFF1F46
:10260000369AFF1F1C40000030C8011088004000AF
:10261000379AFF1FC02007406099FF1FB899FF1F1E
:10262000AA8802F07F02042A24D86B8813BBA5492C
:10263000920011440A7842F002020A701FE06A8890
:10264000A988A14B5E68AEB11888904208D158881D
:10265000884205D1120A032A0CBF33781B8911E086
:102660000C33EFE7994A1168994A1160994AA978A1
:10267000117004E0934B0F221A7027E000231E46CE
:1026800000E00223EC889C4228BF1C46402C2546D3
:1026900028BF402530462946FFF776FD641B2E44AF
:1026A00003D1402D12D1254603E0402C254628BFFA
:1026B000402530462946FFF767FD641B2E4401D1B3
:1026C000402D03D1844BC8F800601C800122834B4D
:1026D0003FE0834B1A8842F221039A4214D1814A87
:1026E0000023C85C98540133072BFAD17D4B1B683B
:1026F000862B08BF7C4B4FF0000108BF0F22084615
:1027000008BF1A70FFF740FD784B44F8363021E0DF
:10271000774F3E68A6B1DFF8C081B8F80040402C82
:10272000254628BF402530462946FFF72DFD601B72
:1027300080B2A8F8000008B9402D00D170193860A7
:10274000674B1A88B2F5A06F04D100225A709A78AC
:10275000684B1A70614B01221A7077E004EBC605D2
:10276000013F6A6803F00803A2F10800FFB203F01A
:10277000FF0E002B36D000F03DF95F485F4A50F85D
:102780002710E9B14B6840F8273001F108036B606E
:10279000D35D032B0BD8DFE803F002040608032304
:1027A00004E0022302E0052300E00423D35515F0E2
:1027B000080F0A8814BFC823882343EA024343E072
:1027C000D35D032B07D8DFE803F041410204002367
:1027D00006E0012304E015F0080F14BF03230223D1
:1027E000D35533E054F836301B0C99B222F8081C4C
:1027F00023B3434B22F806EC42F804EC53F82720AD
:10280000DFF82CE112B943F8270002E05EF8273028
:1028100058603C4A4EF8270032F817300B4422F833
:10282000173000F0C9F810B10830686006E0364A89
:1028300044F8360013780133137007E0334A2B4B0A
:1028400015F0080F08BF134644F83630304A082305
:10285000137065E5E0071ED520492C482D4C022356
:102860000B702D4B1A702D4B186098602C48D86057
:102870001A619A615C60134B0D2018702948FF2380
:1028800003702B700274284A1370284B9F221A7011
:1028900001230B7012E0210604D50A4B0D221A7099
:1028A00080232B70A20705D51E4A1378DBB2137064
:1028B00002232B70E30644BF10232B7003B0BDE846
:1028C000F08F00BFC0200740204000005C99FF1F30
:1028D000389CFF1F509AFF1F349AFF1F9420074017
:1028E0002C9AFF1F309CFF1FC999FF1FC800400092
:1028F0006099FF1F982007400C9AFF1F7499FF1FD3
:10290000B899FF1F289CFF1F369AFF1F88004000C0
:10291000802007407899FF1FC899FF1F0080FF1F84
:10292000CC99FF1F882007408C2007408420074057
:102930006499FF1F10B500F05BFC0023194819468D
:102940001950C4180833882B164A6160F8D116490B
:102950000B6843F480230B60144BC2F307211970FA
:10296000C2F30741120E19751A76114AFF2313702C
:102970000021137202F8703C0123137582F8801055
:1029800013710C4B70226FF450711A700B444FF49A
:1029900000721A6003F1C04303F5C82310221A70B5
:1029A00010BD00BF0080FF1F348004409C20074002
:1029B0008020074049E400E010B572B60B48026879
:1029C000B2FA82F10B2902DD62B6002010BD4FF091
:1029D0000043CB4022EA0302026062B6044C482363
:1029E0004B43E0180022E250426010BD148EFF1FDE
:1029F000BC83FF1F0C4B4822C31AB3FBF2F30B2B13
:102A000011D80A4A127822B1094A12780AB1FFF79E
:102A100009BC72B607494FF0004222FA03F30A6874
:102A20001A430A6062B67047BC83FF1F369AFF1FC5
:102A30003F9AFF1F148EFF1F10B5104C23686BB117
:102A4000206843885A1C03441C7A03889A4212D394
:102A5000FFF7D0FF094B00221A600DE0084B1B78EE
:102A600013B94FF0FF3010BD0320FFF7ADFB20601E
:102A70000028E5D1F5E74280204610BD4C9AFF1FA3
:102A80003F9AFF1F044B9888044B1A681AB11388A9
:102A900052889B1A18447047289CFF1F4C9AFF1FAE
:102AA0002DE9F84F314DDFF8D490012382460C46D2
:102AB0002B700E464F46002E53D0D9F800303BBB4A
:102AC000DFF8B0B048F60148294B1B7803F0FF014E
:102AD0000BB9297015E00420FFF792FB072807D8EF
:102AE00001232B70FFF768FF386088B91F4B1870FF
:102AF000B8F1010802D09BF8003033B11D4B012220
:102B00001A704FF0FF30BDE8F88F00F05DF8DBE79A
:102B1000184B0021197039684B88C3F14000B0424E
:102B200028BF304603EB000E0B44A1F802E0361A32
:102B300007330AEB0008C24504D01AF8010B03F86A
:102B4000010FF8E74B883F2B06D940230B80042068
:102B5000FFF7A4FB00233B60074B05221A70C24617
:102B6000A9E72E702046BDE8F88F00BF429AFF1FEC
:102B70003F9AFF1F489AFF1F419AFF1F449AFF1F69
:102B800038B50E4B1B7803F0FF05ABB90C4C216830
:102B900031B14B880B800420FFF780FB256038BDE6
:102BA000FFF70AFF014620B10420BDE83840FFF7D7
:102BB00075BB044B01221A7038BD00BF429AFF1F3B
:102BC000449AFF1F419AFF1F38B51E4C2378002BF3
:102BD00036D101232370FFF755FF08B100F042FB07
:102BE00000F074F908B100F0C7F800F0FDF908B181
:102BF00000F0C3F800F086FA08B100F0BFF8002337
:102C00002370EFF30583DBB9EFF3108272B60E4D3C
:102C1000286810B10D4C217811B18AB962B638BD5F
:102C20000123237043692B600BB1996101E00849CE
:102C30000B6002B962B60025457783689847257016
:102C400038BD00BF519AFF1F649AFF1F689AFF1F8B
:102C5000609AFF1FEFF3108072B6B0FA80F040095F
:102C6000704700B162B67047F8B50C4E0C4F0025A6
:102C7000FFF7F0FF346802466CB1636933600BB153
:102C80009D6100E03B601046FFF7EBFF6577A368AE
:102C900020469847ECE7FFF7E4FFF8BD549AFF1F82
:102CA000589AFF1FFFF7E0BF15490B6830B513B9FD
:102CB0008360C36009E004681A68944207D2002563
:102CC000121B8360C560D8601A60086015E0026856
:102CD0001C689968121B026061B10C68A2420B4625
:102CE000F5D28160C968C160D860C168A21A8860E5
:102CF0001A6002E08160C36098600223037530BDF2
:102D00005C9AFF1F70B5164D2C680026BCB1236875
:102D100013B1013B236012E0A26802B1D3602069C5
:102D20002A60036826751B6822460021984763685D
:102D30001BB123602046FFF7B7FF2C68E6E7FFF7DB
:102D400089FF084B00221C681A60FFF78AFF2CB12C
:102D5000A5682046FFF7A8FF2C46F8E770BD00BF26
:102D60005C9AFF1F6C9AFF1F024A136801331360BD
:102D7000FFF7C8BF5C99FF1F7047704770477047E7
:102D8000016830B5A1B10B4B0B441B1103F1440298
:102D90005511012402F01F0204FA02F2064C44F815
:102DA0002520064A064C42F8234000238B6003602E
:102DB00030BD00BF008FFCBF80E100E0188EFF1F18
:102DC0007F2D0000024B01221A60024B1B6818473E
:102DD0000C710340188EFF1F024B01221A60024B38
:102DE0005B6818471C710340188EFF1F024B0122BD
:102DF0001A60024B9B6818472C710340188EFF1F06
:102E0000024B01221A60024BDB6818473C710340F9
:102E1000188EFF1F10B5204B2048214960221A70E0
:102E2000E1225A701F4B204A1C78204B082C01D1FC
:102E3000012402E00A2C03D119240460132005E0C8
:102E40000C2C0CBF15243D24046012200860146073
:102E50001860174B17491B78174A03B101230B6001
:102E60001360164B164A1978164B012901D8802198
:102E70000BE0042901D8842107E0082901D8852125
:102E800003E0102994BF86218721116019600E4B41
:102E900001221A7010BD00BF0040074008B0034077
:102EA0000CB00340288EFF1F08B00B400CB00B4045
:102EB000719AFF1F20B0034020B00B40298EFF1FE6
:102EC00024B0034024B00B40709AFF1F054B1878C4
:102ED000054B1A78C0B2D3B2984238BF4030C01AFE
:102EE000704700BFFA9AFF1F799AFF1FF0B5344967
:102EF0000B7913F0300F2FD072B68B7D03F0FF04E7
:102F000023B9CB7940234B7462B625E062B62D48D5
:102F10002D4A037812782D4FDBB2D2B20546581CE9
:102F20004028CE7928BF00209042F6B21CBF3E5404
:102F30000346601E10F0FF04F1D1D9B22970244974
:102F4000096849B1934236BFC2F140029B1A9B18EF
:102F5000272BC4BF01230B70194AD178C9B20D06C3
:102F60001ED513791C061BD51A4B1B481D780378F8
:102F70001A4EEDB2DBB2AB420AD00133402B28BF70
:102F800000231479F45CE4B2D471147D072CF2D9D7
:102F9000DBB203700A4B1A79100644BF7C22DA7048
:102FA00049060CD5064B1A79520608D50C4A002161
:102FB00011700C4A126802B111703C22DA70F0BD37
:102FC00000A00640FA9AFF1F799AFF1FBA9AFF1FC6
:102FD000749AFF1F009BFF1FFB9AFF1F7A9AFF1F27
:102FE000789AFF1FFC9AFF1F054B1878054B1A783B
:102FF000C0B2D3B2984238BF4030C01A704700BF49
:10300000729BFF1F099BFF1FF0B534490B7913F02A
:10301000300F2FD072B68B7D03F0FF0423B9CB792C
:1030200040234B7462B625E062B62D482D4A0378E2
:1030300012782D4FDBB2D2B20546581C4028CE790B
:1030400028BF00209042F6B21CBF3E540346601ECB
:1030500010F0FF04F1D1D9B229702449096849B1AF
:10306000934236BFC2F140029B1A9B18272BC4BF64
:1030700001230B70194AD178C9B20D061ED51379F8
:103080001C061BD51A4B1B481D7803781A4EEDB24F
:10309000DBB2AB420AD00133282B28BF00231479BE
:1030A000F45CE4B2D471147D072CF2D9DBB2037066
:1030B0000A4B1A79100644BF7C22DA7049060CD5F7
:1030C000064B1A79520608D50C4A002111700C4A99
:1030D000126802B111703C22DA70F0BD00B00640F7
:1030E000729BFF1F099BFF1F329BFF1F049BFF1F4B
:1030F000789BFF1F739BFF1F0A9BFF1F089BFF1FEF
:10310000749BFF1F054B1878054B1A78C0B2D3B2D9
:10311000984238BF4030C01A704700BFEA9BFF1F7B
:10312000819BFF1F10B5284B1A79920620D527499D
:10313000DA790B782648013300783F2BC8BF00238B
:10314000834218BF2348D2B21EBFC254DAB20A70FB
:10315000214A116861B1214A1278D2B2934236BF36
:10316000C2F140029B1A9B18272BC4BF01230B708E
:103170001549CA78D2B2140616D50B79180613D59C
:10318000174B164C18782378DBB2984202D16C2387
:10319000CB7009E00133282B28BF00231148C05C05
:1031A000DBB2C0B2C871237051060CD5064B1A7938
:1031B000520608D50C4A002111700C4A126802B15F
:1031C00011702C22DA7010BD00C00640EA9BFF1F70
:1031D000819BFF1FAA9BFF1F7C9BFF1FEB9BFF1F79
:1031E000F09BFF1F829BFF1F809BFF1FEC9BFF1F1D
:1031F0001FB572B6154B70221A70154A4121117015
:103200000F2102F8011C80221A701A781206FCD5D0
:10321000104B186862B6104B984298BF0A2301AC55
:1032200098BF58430A22214600F01DF80B4A00239C
:10323000E15C21B101330A2B22F8021BF8D1084AC4
:1032400001335B00137004B010BD00BF00000240EA
:1032500007000240080002407F969800B48EFF1FCE
:10326000B28EFF1F704730B503460020B3FBF2F467
:1032700002FB1433092B94BF30333733DBB20B54CA
:1032800023460CB10130F1E70A1823465470C41AE2
:10329000A34206DACC5C1578CD5402F8014901331B
:1032A000F5E7084630BDFFFF0B460146184600F023
:1032B00001B800BF13460A460146022000F00CBBCD
:1032C000014B1868704700BFF092FF1F70B50F4E9A
:1032D0000F4D761BB61018BF002405D0013455F8E9
:1032E000043B9847A642F9D10A4E0B4D761B00F0DD
:1032F000C3FEB61018BF002406D0013455F8043BB5
:103300009847A642F9D170BD70BD00BF844000004F
:10331000844000009840000084400000024B0146B9
:10332000186800F00BB800BFF092FF1F024B014677
:10333000186800F095BB00BFF092FF1F2DE9F04F19
:1033400001F10B05162D83B0064640F29F8035F043
:10335000070500F1BF80A94200F2BC8000F0A6FA88
:10336000B5F5FC7FC0F09C826B0A00F0BA80042B9C
:1033700000F28381A80900F1390E4FEA4E0338307C
:10338000C44F07EB8303A3F108015C68A14207D196
:10339000ACE0002A80F2AC80E468A14200F0A68094
:1033A000636823F003035A1B0F2AF2DDB9493C6915
:1033B00001F1080E744500F0B381636823F0030344
:1033C0005A1B0F2A00F39981002AC1F814E0C1F8B2
:1033D00010E080F29E80B3F5007F80F06781DB080B
:1033E00003F1010C01229B1002FA03F34A6851F821
:1033F0003C80C4F8088001EBCC091A43A9F108030A
:10340000E3604A6041F83C40C8F80C408310012456
:103410009C40944200F28A80144206D120F00300BE
:103420006400144200F10400FAD007EBC009CC4656
:103430008046DCF80C108C4507D173E1002A80F23D
:103440008181C9688C4500F06D814B6823F00303CE
:103450005A1B0F2AF2DD0C46D1F80CC054F8088F25
:103460004B1945F001054D6042F00101C8F80CC050
:103470003046CCF808807B613B61C3F80CE0C3F8B0
:1034800008E059609A5000F013FA1FE0102921D883
:1034900000F00CFA1025062302207E4F07EB830371
:1034A000A3F108025C68944200F045816368E1681A
:1034B000A56823F00303234430465A68E96042F0CC
:1034C00001028D605A6000F0F3F90834204603B021
:1034D000BDE8F08F00240C232046336003B0BDE824
:1034E000F08F80234FF0400E3F2049E770465DE7A4
:1034F0002344E1685A68A56842F00102E960304659
:103500008D605A6000F0D4F90834204603B0BDE85D
:10351000F08F234430465A6842F001025A6000F0AE
:10352000C7F90834204603B0BDE8F08FBC68636873
:1035300023F00308A84504D3C5EB08030F2B00F3C1
:103540008C80554BDFF860911A68D9F80030013350
:103550002A4404EB080A00F0608102F580520F3221
:1035600022F47F6222F00F0211463046019200F0F1
:10357000A1F9B0F1FF3F8346019A00F058818245DE
:1035800000F2FC80454B1968DA451144196000F0DF
:103590005381D9F80000DFF810E101301BBFCAEBFE
:1035A0000B0A5144CEF800B019601BF0070100F07F
:1035B0001781C1F10800C1F58051834408315A4494
:1035C000C2F30B02C2EB010949463046019300F0F9
:1035D00071F9431C019B00F03F81CBEB00024A4490
:1035E00042F001021968C7F808B04944BC42CBF860
:1035F00004201960DFF8A49016D0B8F10F0F40F244
:10360000FD806268A8F10C0323F00703E01802F0C4
:1036100001024FF0050E1A430F2B6260C0F804E060
:10362000C0F808E000F21C811D4BBC681A6891428A
:1036300088BF19601B4B1A689142626888BF196085
:1036400022F003029542A2EB050301D80F2B04DC04
:10365000304600F02DF9002438E7621943F00103E9
:1036600045F0010565603046BA60536000F020F90E
:103670000834204603B0BDE8F08F142B71D9542BC9
:1036800000F2A480280B00F16F0E4FEA4E036E305B
:1036900076E600BFF492FF1FFC9BFF1F009CFF1FFC
:1036A000F89BFF1FF49BFF1F0097FF1F5A0A042A75
:1036B0005ED9142A00F2B38002F15C0149005B324A
:1036C00007EB810C57F82110DFF8DC81ACF1080C16
:1036D0008C4500F088804A6822F00302934202D2AF
:1036E00089688C45F7D1D1F80CC07A68C4F80CC051
:1036F000A160CCF80840CC6088E6631942F001076D
:1037000045F00105656030464B610B61C3F80CE084
:10371000C3F808E05F609A50083400F0C9F8D5E6B5
:103720004A6873E608F1010818F0030F0CF1080C61
:103730007FF47FAE30E0DC68A34208BF02303FF484
:1037400035AEB3E60B440C465A68C96854F8085FB6
:1037500042F001025A603046E9608D6000F0A8F83E
:10376000B4E603F15C0E03F15B004FEA4E0307E69B
:103770009A0902F1390149003832A1E7BC424A4BAB
:103780003FF400AF9C68626822F003025AE759F8E0
:103790000839994540F0828010F0030F00F1FF30A6
:1037A000F5D17B6823EA04037B6064009C423FF60A
:1037B000BDAE002C3FF4BAAE1C4240467FF435AE9D
:1037C00064001C4200F10400FAD02EE6B3F5AA7F93
:1037D00018D8E80B00F1780E4FEA4E037730CFE5AA
:1037E0004FF48051EBE60121D8F80430921001FA31
:1037F00002F21A43C8F80420614677E70123CBF8A8
:10380000043025E740F25452934220D8A80C00F12E
:103810007D0E4FEA4E037C30B2E51032A4E6542A06
:1038200026D81A0B02F16F0149006E3248E7BC68D6
:10383000626822F0030205E7CAF30B0000287FF458
:10384000A8AE4244BB6842F001025A60ECE6FE2397
:103850004FF07F0E7E2093E501224FF00009C1E674
:1038600004F10801304600F0FBF8D9F80010DBE65F
:10387000B2F5AA7F05D8DA0B02F178014900773258
:103880001EE740F254518A4205D89A0C02F17D019C
:1038900049007C3214E7FE217E2211E77B6884E731
:1038A000E808431C5B00F8E5F492FF1F704700BF77
:1038B000704700BF38B5074C002305460846236013
:1038C000FEF784FA431C00D038BD2368002BFBD0E0
:1038D0002B6038BD3C9CFF1F2DE9F047254C256827
:1038E000D5F848410646884692469946C4B3606872
:1038F0001F2817DC431C76B104EB80050122C5F8B4
:1039000088A0D4F8881182401143022EC4F888118F
:10391000C5F808911ED00230636044F82080002072
:10392000BDE8F087144B03B34FF4C870FFF7F6FC03
:103930000446D0B1D5F84831002780E88800C5F8A2
:10394000484138460123C4F88871C4F88C71002EB0
:10395000E1D0D1E7D4F88C110A43C4F88C21DAE71E
:1039600005F5A674C5F84841C1E74FF0FF30BDE842
:10397000F08700BF744000001D330000024B13B1FC
:10398000024800F005B87047000000009D390000B3
:10399000002301461A461846FFF79EBF38B5074D6B
:1039A000074C2C1BA41005D0013C55F8043D98474A
:1039B000002CF9D1BDE8384000F06EBB00000000DB
:1039C00000000000F8B5234F0C460646FFF76EFFD7
:1039D000BB685D6825F00305291B01F6EF7121F432
:1039E0007F6121F00F01A1F58054B4F5805F07DB02
:1039F00000213046FFF75EFFBB682B44984204D09D
:103A00003046FFF755FF0020F8BD61423046FFF712
:103A100051FF01300DD0104BBA6819682D1B45F0CD
:103A200001053046091B55601960FFF741FF012071
:103A3000F8BD00213046FFF73DFFBA68831A0F2B0F
:103A4000DEDD064C0449246843F00103001B53608B
:103A50000860D5E7F492FF1F009CFF1F0097FF1F2F
:103A6000002945D02DE9F0410D468046FFF71EFFA5
:103A700055F8047C6A4927F00103A5F10804E2180F
:103A80008E685068B24220F0030062D0FE0750609A
:103A90000BD455F8087CE41B01F1080EA5687545A8
:103AA0003B446FD0E768EF60BD6015186D68ED07A7
:103AB00042D543F001026260E350B3F5007F18D2B3
:103AC000DB085A1C4D6851F83270A76001209B102A
:103AD00000FA03F301EBC2001D430838E0604D60BB
:103AE00041F83240FC604046BDE8F041FFF7E0BEDF
:103AF00070475A0A042A53D89A0902F139077F00FD
:103B000002F1380501EB870051F8272044490838B5
:103B100090424DD0516821F003018B4202D292684D
:103B20009042F7D1D068E060A2608460D4604046E3
:103B3000BDE8F041FFF7BCBE95683A4FBD42034473
:103B40003FD0D068E86043F0010285606260E350D6
:103B5000B3E7FF07034407D455F8082CA41A13440D
:103B6000A068E268C26090602F4A126843F00100CA
:103B7000934260608C60B6D32C4B40461968FFF7C7
:103B800021FFB0E711184968C90744D49168D26889
:103B9000CA60034443F0010091606060E350A2E713
:103BA000142A17D802F15C077F0002F15B05A9E730
:103BB000AA104B68012505FA02F213434B60024636
:103BC000B1E743F001024C610C61E560A560626001
:103BD000E35088E7542A06D81A0B02F16F077F00DA
:103BE00002F16E058EE7B2F5AA7F06D8DA0B02F174
:103BF00078077F0002F1770584E740F25450824253
:103C000006D89A0C02F17D077F0002F17C0579E766
:103C1000FE277E2576E743F001026260E35062E70B
:103C2000F492FF1FFC92FF1FFC96FF1FFC9BFF1FDF
:103C3000C8000000C9000000CA000000CB0000005E
:103C4000CC000000CD000000CE000000CF0000003E
:103C5000D0000000D1000000D2000000D30000001E
:103C6000D4000000D5000000D6000000D7000000FE
:103C7000D8000000D9000000DA000000DB000000DE
:103C8000DC000000DD000000DE000000DF000000BE
:103C9000E0000000E1000000E2000000E30000009E
:103CA000E4000000E5000000E6000000E70000007E
:103CB000E8000000E9000000EA000000EB0000005E
:103CC000EC000000ED000000EE000000EF0000003E
:103CD000F0000000F1000000F2000000F30000001E
:103CE000F4000000F5000000F6000000F7000000FE
:103CF000F8000000F9000000F9000000F8000000E2
:103D0000F7000000F6000000F5000000F4000000DD
:103D1000F3000000F2000000F1000000F0000000DD
:103D2000EF000000EE000000ED000000EC000000DD
:103D3000EB000000EA000000E9000000E8000000DD
:103D4000E7000000E6000000E5000000E4000000DD
:103D5000E3000000E2000000E1000000E0000000DD
:103D6000DF000000DE000000DD000000DC000000DD
:103D7000DB000000DA000000D9000000D8000000DD
:103D8000D7000000D6000000D5000000D4000000DD
:103D9000D3000000D2000000D1000000D0000000DD
:103DA000CF000000CE000000CD000000CC000000DD
:103DB000CB000000CA000000C9000000C8000000DD
:103DC0000000000000000000190800007108000059
:103DD000050800001708000009080000E3130000B0
:103DE000491400000010110200131202011D1E02EE
:103DF000011A1F0600000000140000001600000059
:103E0000180000001A0000001C0000001E00000046
:103E10002000000022000000240000002800000014
:103E20002C000000300000003400000038000000CA
:103E30003C0000004000000044000000480000007A
:103E40005000000058000000600000006800000002
:103E5000700000008000000088000000900000005A
:103E6000A0000000B0000000C0000000E000000062
:103E7000F0000000000100002001000040010000EF
:103E80006001000080010000C0010000E0010000AE
:103E90000002000040020000800200000003000059
:103EA00080030000C0030000000400008004000044
:103EB0000005000000060000800700000007000069
:103EC0000008000000090000000A0000000C0000CB
:103ED000000F000000010203040509060A070C0D8B
:103EE000430E45120F13141519161A174F1C1D55A2
:103EF0001E221F23242595262A272B2C2D2E322FD8
:103F000033343536373A3B3C3D3E3FFF4008FE43B5
:103F100040A004404408FE4344A004400018FE436F
:103F200000C004403000FE43309004403400FE43A3
:103F3000349004401C18FE431CC004401018FE437B
:103F400010C004400818FE4308C004400C18FE438B
:103F50000CC004400C10FE430CB004401010FE4393
:103F600010B004401810FE4318B004401C10FE436B
:103F70001CB004401410FE4314B004400418FE4367
:103F800004C004400010FE4300B004400008FE439B
:103F900000A004400408FE4304A004400C08FE43B3
:103FA0000CA004400808FE4308A004401418FE4377
:103FB00014C004401818FE4318C004400410FE4307
:103FC00004B004400810FE4308B004401400FE434F
:103FD000149004404C08FE434CA004400420FE43CF
:103FE00004D004402410FE4324B004402010FE43BB
:103FF00020B004402810FE4328B004402C10FE439B
:104000002CB004400020FE4300D004404808FE438A
:1040100048A004401000FE431090044000151915FC
:10402000000100002A8EFF1F1200000000020000A5
:10403000548EFF1F4300000000030000AE8EFF1FE0
:1040400000000000010309043C8EFF1F0000000077
:1040500002030904988EFF1F0000000003030904F7
:10406000B28EFF1F000000000000000000000000F2
:1040700000000000C88EFF1FF8B500BFF8BC08BCE8
:104080009E4670477D39000035040000650500003C
:08409000F11A00001D1C0000E4
:04409800F8B500BFB8
:08409C000CF2FF7F010000009F
:1040A40038B5084B084D1C681C604CB194FAA4F355
:1040B400B3FA83F355F823309847631E1C40F4D1B8
:1040C40038BD00BFA0D004400C8EFF1F38B5084B8C
:1040D400084D1C681C604CB194FAA4F3B3FA83F342
:1040E40055F823309847631E1C40F4D138BD00BFF7
:1040F400A0C00440EC8DFF1F38B5084B084D1C6868
:104104001C604CB194FAA4F3B3FA83F355F823304A
:104114009847631E1C40F4D138BD00BFA0B00440D2
:10412400BC8DFF1F38B5084B084D1C681C604CB192
:1041340094FAA4F3B3FA83F355F823309847631E33
:104144001C40F4D138BD00BFA0A004406C8DFF1FFB
:1041540038B5084B084D1C681C604CB194FAA4F3A4
:10416400B3FA83F355F823309847631E1C40F4D107
:1041740038BD00BFA0900440348DFF1F0000000034
:10418400006006400160064002600640036006408D
:10419400046006400560064006600640076006406D
:1041A40008600640096006400A6006400B6006404D
:1041B40000000000000000000000000000000000FB
:1041C40000000000000000000000000000000000EB
:1041D40000000000000000000000000000000000DB
:1041E40000000000000000000000000000000000CB
:1043C40000000000000000000100131200000000C3
:1043D400A0860100010000000000000000000000B1
:1043E40000000000000000000000000000000000C9
:1043F40000000000000000000000000000000000B9
:1044040000000000000000000000000000000000A8
:10441400000000000000000000700640017006402B
:1044240002700640037006400470064005700640A2
:104434000670064007700640087006400970064082
:104444000A7006400B7006400000000000000000E7
:104454000000000000000000000000000000000058
:104464000000000000000000000000000000000048
:104474000000000000000000000000000000000038
:104484000000000000000000000000000000000028
:1046640001001D1E00000000A086010001000000E2
:104674000000000000000000000000000000000036
:104684000000000000000000000000000000000026
:104694000000000000000000000000000000000016
:1046A4000000000000000000000000000000000006
:1046B400409CFF1F3D1E00003D1E00003D1E0000EB
:1046C4003D1E00003D1E00003D1E00003D1E00007A
:1046D4003D1E00003D1E00003D1E00003D1E00006A
:1046E4003D1E00003D1E00003D1E00003D1E00005A
:1046F4003D1E00003D1E00003D1E00003D1E00004A
:104704003D1E00003D1E00003D1E00003D1E000039
:104714003D1E00003D1E00003D1E00003D1E000029
:104724003D1E00003D1E00003D1E00003D1E000019
:104734003D1E00003D1E00003D1E00003D1E000009
:104744003D1E00003D1E00003D1E00003D1E0000F9
:104754003D1E00003D1E00003D1E00003D1E0000E9
:104764003D1E00003D1E00003D1E00003D1E0000D9
:104774003D1E00003D1E00003D1E00003D1E0000C9
:104784003D1E00003D1E00003D1E00003D1E0000B9
:104794003D1E0000FFFFFFFF7F2D00007F2D000066
:1047A4007F2D00007F2D00000A0412010101020088
:1047B4000040C016830400020102030118035400E0
:1047C400650065006E00730079006400750069007F
:1047D4006E006F0009024300020100C032090400A8
:1047E4000001020201000524001001052401010159
:1047F4000424020605240600010705820310004074
:1048040009040100020A0000000705030240000039
:1048140007058402400000001603550053004200BF
:104824002000530065007200690061006C000403FD
:1048340009040C0300000000000000000000000058
:10484400000000000000000000000000B491FF1F01
:104854001C92FF1F8492FF1F000000000000000054
:104864000000000000000000000000000000000044
:104874000000000000000000000000000000000034
:104884000000000000000000000000000000000024
:104894000000000000000000000000000000000014
:1048A4000000000000000000000000000000000004
:1048B40000000000000000000000000000000000F4
:1048C40000000000000000000000000000000000E4
:1048D40000000000000000000000000000000000D4
:1048E40000000000000000000000000000000000C4
:1048F40001000000000000000E33CDAB34126DE661
:10490400ECDE05000B0000000000000000000000C9
:104914000000000000000000000000000000000093
:104924000000000000000000000000000000000083
:104934000000000000000000000000000000000073
:104944000000000000000000000000000000000063
:104C7400C88EFF1F0000000000000000F492FF1F18
:104C8400F492FF1FFC92FF1FFC92FF1F0493FF1F6F
:104C94000493FF1F0C93FF1F0C93FF1F1493FF1F1C
:104CA4001493FF1F1C93FF1F1C93FF1F2493FF1FCC
:104CB4002493FF1F2C93FF1F2C93FF1F3493FF1F7C
:104CC4003493FF1F3C93FF1F3C93FF1F4493FF1F2C
:104CD4004493FF1F4C93FF1F4C93FF1F5493FF1FDC
:104CE4005493FF1F5C93FF1F5C93FF1F6493FF1F8C
:104CF4006493FF1F6C93FF1F6C93FF1F7493FF1F3C
:104D04007493FF1F7C93FF1F7C93FF1F8493FF1FEB
:104D14008493FF1F8C93FF1F8C93FF1F9493FF1F9B
:104D24009493FF1F9C93FF1F9C93FF1FA493FF1F4B
:104D3400A493FF1FAC93FF1FAC93FF1FB493FF1FFB
:104D4400B493FF1FBC93FF1FBC93FF1FC493FF1FAB
:104D5400C493FF1FCC93FF1FCC93FF1FD493FF1F5B
:104D6400D493FF1FDC93FF1FDC93FF1FE493FF1F0B
:104D7400E493FF1FEC93FF1FEC93FF1FF493FF1FBB
:104D8400F493FF1FFC93FF1FFC93FF1F0494FF1F6A
:104D94000494FF1F0C94FF1F0C94FF1F1494FF1F17
:104DA4001494FF1F1C94FF1F1C94FF1F2494FF1FC7
:104DB4002494FF1F2C94FF1F2C94FF1F3494FF1F77
:104DC4003494FF1F3C94FF1F3C94FF1F4494FF1F27
:104DD4004494FF1F4C94FF1F4C94FF1F5494FF1FD7
:104DE4005494FF1F5C94FF1F5C94FF1F6494FF1F87
:104DF4006494FF1F6C94FF1F6C94FF1F7494FF1F37
:104E04007494FF1F7C94FF1F7C94FF1F8494FF1FE6
:104E14008494FF1F8C94FF1F8C94FF1F9494FF1F96
:104E24009494FF1F9C94FF1F9C94FF1FA494FF1F46
:104E3400A494FF1FAC94FF1FAC94FF1FB494FF1FF6
:104E4400B494FF1FBC94FF1FBC94FF1FC494FF1FA6
:104E5400C494FF1FCC94FF1FCC94FF1FD494FF1F56
:104E6400D494FF1FDC94FF1FDC94FF1FE494FF1F06
:104E7400E494FF1FEC94FF1FEC94FF1FF494FF1FB6
:104E8400F494FF1FFC94FF1FFC94FF1F0495FF1F65
:104E94000495FF1F0C95FF1F0C95FF1F1495FF1F12
:104EA4001495FF1F1C95FF1F1C95FF1F2495FF1FC2
:104EB4002495FF1F2C95FF1F2C95FF1F3495FF1F72
:104EC4003495FF1F3C95FF1F3C95FF1F4495FF1F22
:104ED4004495FF1F4C95FF1F4C95FF1F5495FF1FD2
:104EE4005495FF1F5C95FF1F5C95FF1F6495FF1F82
:104EF4006495FF1F6C95FF1F6C95FF1F7495FF1F32
:104F04007495FF1F7C95FF1F7C95FF1F8495FF1FE1
:104F14008495FF1F8C95FF1F8C95FF1F9495FF1F91
:104F24009495FF1F9C95FF1F9C95FF1FA495FF1F41
:104F3400A495FF1FAC95FF1FAC95FF1FB495FF1FF1
:104F4400B495FF1FBC95FF1FBC95FF1FC495FF1FA1
:104F5400C495FF1FCC95FF1FCC95FF1FD495FF1F51
:104F6400D495FF1FDC95FF1FDC95FF1FE495FF1F01
:104F7400E495FF1FEC95FF1FEC95FF1FF495FF1FB1
:104F8400F495FF1FFC95FF1FFC95FF1F0496FF1F60
:104F94000496FF1F0C96FF1F0C96FF1F1496FF1F0D
:104FA4001496FF1F1C96FF1F1C96FF1F2496FF1FBD
:104FB4002496FF1F2C96FF1F2C96FF1F3496FF1F6D
:104FC4003496FF1F3C96FF1F3C96FF1F4496FF1F1D
:104FD4004496FF1F4C96FF1F4C96FF1F5496FF1FCD
:104FE4005496FF1F5C96FF1F5C96FF1F6496FF1F7D
:104FF4006496FF1F6C96FF1F6C96FF1F7496FF1F2D
:105004007496FF1F7C96FF1F7C96FF1F8496FF1FDC
:105014008496FF1F8C96FF1F8C96FF1F9496FF1F8C
:105024009496FF1F9C96FF1F9C96FF1FA496FF1F3C
:10503400A496FF1FAC96FF1FAC96FF1FB496FF1FEC
:10504400B496FF1FBC96FF1FBC96FF1FC496FF1F9C
:10505400C496FF1FCC96FF1FCC96FF1FD496FF1F4C
:10506400D496FF1FDC96FF1FDC96FF1FE496FF1FFC
:10507400E496FF1FEC96FF1FEC96FF1F0000020052
:04508400FFFFFFFF2C
:00000001FF
