:1000000000800020BD010000D91B0000A51B0000DE
:10001000A51B0000A51B0000A51B0000A51B0000E0
:10002000A51B0000A51B0000A51B0000D91B00009C
:10003000D91B0000A51B0000892E00004D2F0000D9
:10004000D91B0000D91B0000D91B0000D91B0000E0
:10005000D91B0000D91B0000D91B0000D91B0000D0
:10006000D91B0000D91B0000D91B0000D91B0000C0
:10007000D91B0000D91B0000D91B0000D91B0000B0
:10008000D91B0000D91B0000D91B0000D91B0000A0
:10009000D91B0000D91B0000D91B0000D91B000090
:1000A0000511000011110000D91B0000D91B000030
:1000B000D91B0000D91B0000D91B0000D91B000070
:1000C000D91B0000D91B0000D91B0000D91B000060
:1000D000D91B0000D91B0000D91B0000D91B000050
:1000E000D91B0000D91B0000D91B0000D91B000040
:1000F000D91B0000A9300000D91B0000C531000049
:10010000D91B0000E1320000D91B0000D91B000000
:10011000D91B0000D91B0000D91B0000D91B00000F
:10012000D91B0000D91B0000D91B0000D91B0000FF
:10013000D91B0000D91B0000D91B0000D91B0000EF
:10014000D91B0000D91B0000D91B0000D91B0000DF
:10015000393000004D300000613000007530000083
:10016000D91B0000B5230000D91B0000D91B0000DB
:10017000D91B0000D91B0000D91B0000D91B0000AF
:10018000D91B0000D91B0000D91B0000D91B00009F
:10019000D91B0000D91B0000D91B0000D91B00008F
:1001A000D91B0000D91B0000D91B0000D91B00007F
:1001B000D91B0000D91B0000D91B0000564B4CF284
:1001C000205210B51A804DF628121A8000BF00BFC9
:1001D00001F006FD514B4FF010621A60504A9A60D0
:1001E000504ADA60504A136813F4807301BF4F49D4
:1001F0000B604FF4A85313604D4B4E491A7810070B
:1002000042BF1A7842F008021A704B4B2A221A7029
:100210004A4A4B4B8B4204D252F8040F43F8040B6A
:10022000F8E7484B484A0021934202D243F8041BA6
:10023000FAE7464A4648002350F8231042F82310B4
:1002400001336F2BF8D1434B434A802103F8011B44
:100250009342FBD1414B3D4A1A60414B8A221A70AE
:10026000A3F5805324225A70A0221A709A7991071C
:10027000FCD59A79D206FCD43A4A937903F00C0360
:10028000082B384BF9D105221A7143225A719A79F9
:100290009406FCD533498A79324B5006FBD5324A55
:1002A0004FF0817111600521516020221A709A79F6
:1002B00002F00C020C2AFAD12C4B2D4A1A602D4B5D
:1002C0002D4A1A6000225A60072243F8042C2B4A58
:1002D000C3F80C2D62B601F051FF144B1B68DA070E
:1002E00005D5274801F03AFE264B274A1A60274BCE
:1002F0001B785B0609D5234C234B22689A4204D114
:100300001F4801F02BFE0023236005F05DFC01F087
:100310006DFC01F083FBFEE70E20054030800440B9
:10032000823F04000100002B10D0034014D0034092
:1003300002D007403898FF1F00E007409CA700004C
:100340002087FF1F3898FF1F7C9DFF1F0082FF1F23
:100350000000000000E400E05FE400E008ED00E0E1
:1003600000500640004006404480044004800440A1
:10037000C010050014E000E03F190100000020203B
:100380000CD9A25B1CE00340A5C3945A00F00740BF
:10039000FFFFFFFFFFFFFFFFFFFFFFFFFFFFFFFF6D
:1003A000FFFFFFFFFFFFFFFFFFFFFFFFFFFFFFFF5D
:1003B000FFFFFFFFFFFFFFFFFFFFFFFFFFFFFFFF4D
:1003C000FFFFFFFFFFFFFFFFFFFFFFFFFFFFFFFF3D
:1003D000FFFFFFFFFFFFFFFFFFFFFFFFFFFFFFFF2D
:1003E000FFFFFFFFFFFFFFFFFFFFFFFFFFFFFFFF1D
:1003F000FFFFFFFFFFFFFFFFFFFFFFFFFFFFFFFF0D
:10040000FFFFFFFFFFFFFFFFFFFFFFFFDEF9FFFF23
:1004100010B5054C237833B9044B13B10448AFF33E
:1004200000800123237010BD3898FF1F00000000DA
:1004300098A70000084B10B51BB108490848AFF356
:1004400000800848036803B910BD074B002BFBD0A0
:10045000BDE81040184700BF000000003C98FF1F97
:1004600098A700003898FF1F0000000072B6034AEA
:1004700013680133136062B6704700BF409AFF1FD4
:100480002DE9F3411D4F1E4D1E4E8046386900F088
:10049000A5FB1D4B2870002483F80080347008F100
:1004A000FF38A04507D9386900F098FB142C305567
:1004B00001D00134F5E73444002363702B780C2B12
:1004C00011D8DFE803F007101010101010101010F2
:1004D000090B0D00012204E0022202E0082200E0E4
:1004E00009220A4B1A6000232B70094B1B680193E9
:1004F000019A084B1A6002B0BDE8F081649AFF1FB0
:100500005498FF1F6C98FF1F489AFF1F0488FF1F15
:100510009C9AFF1F5898FF1F38B505F0E9F801466F
:100520004FF0894005F0ECF94FF07E5105F02AF8C4
:10053000254905F031F904F0A5FC02F0BBFF18A332
:10054000D3E9002304460D4604F0F0FC22462B4676
:1005500004F0ECFC14A3D3E9002304F035FB22469D
:100560002B4604F0E3FC12A3D3E9002304F02CFB98
:1005700002460B460020154904F002FE0EA3D3E903
:10058000002304F01FFB0022114B04F01BFB0CA303
:10059000D3E9002304F0F4FD38BD00BFAFF30080C1
:1005A00000000020EB88773E00000060EEAF2E3F99
:1005B00000000060FD7F523F000000606612714045
:1005C000000000C0CCCCFC3F00401C460000F03FC7
:1005D0000000404010B5022286B01149114C152090
:1005E00001F01EFD01210E2001F0E8FC00210E208B
:1005F00001F0C4FC0C4B03930122002304920293EC
:1006000001920093617B20690B2300F08DFA23692E
:10061000064AC3F85C22064AC3F8602206B010BD41
:100620006D040000649AFF1F801A06008104000018
:10063000290700001FB5274B2748196800F0E8FE7E
:10064000264B274A1B6801932649019B26481360C5
:100650000A6800689A1A82421FD90B60234B244A09
:1006600019681160112000221A6001F06BF9FFF780
:1006700053FF04F033FF02AB0222052101F0F2FA2E
:100680001C4B7B221A707D225A7106225A70072257
:100690009A700822DA7009221A71174C2368082B05
:1006A0000DD0092B0FD0022B12D1114B13491A6810
:1006B000134800F048FF124800F02EFF06E01148F2
:1006C00000F03AFE02E00F4800F0AAFD012323608B
:1006D00004B010BD5898FF1F8098FF1F9C9AFF1F01
:1006E0004C9AFF1F6898FF1F0088FF1F409AFF1F4A
:1006F000449AFF1F5C98FF1F0488FF1F789E00002C
:10070000C88DFF1F6498FF1F08B50521044800F03D
:100710007DFD0D210348BDE8084000F01FBE00BF6D
:100720006498FF1F8098FF1F07B5062206490748F7
:1007300000F030F8064B1B680193019A054B1A60D4
:1007400003B05DF804FB00BF5C98FF1F649AFF1FB5
:100750009C9AFF1F5898FF1F002070470369D3F829
:100760003801D3F83431C01A704770470269D2F8A3
:100770004432B3F5817F09D8D2F84432581C13446F
:10078000C2F8440283F83C11012070470123037131
:100790000020704770B50569D5F84432B3F5817F04
:1007A00022D8D5F84442D5F84432C4F581740134D6
:1007B000944238BF012205F59E7638BF027103F1DD
:1007C000FF3338BF224633448D18A94204D011F8B4
:1007D000014B03F8014FF8E70169D1F844321344A3
:1007E000C1F84432104670BD01230371002070BD72
:1007F00038B50A4B0360036993F84822022A04467D
:1008000009D1D3F8645235B1284600F06BFE0821B7
:10081000284601F005FA204638BD00BF8C9E000036
:10082000002210B502710273064A02604FF47A7416
:10083000054A84604FF41B74417304FB012101617C
:1008400010BD00BF8C9E00000888FF1FF8B5C3686C
:100850001B789B0604460E4600F197808368802132
:100860001970C3681221197090F84932012B03D016
:100870001AB980F8482200E01A46531E012B00F2F4
:10088000868016B94FF0807103E0012E03D14FF03E
:100890000071404B1960022A73D1D4F8645245B9F3
:1008A000082001F0BBF92946074600F0C7FDC4F84F
:1008B0006472D4F864526DB12B79102B0AD128469A
:1008C00000F010FE0821284601F0AAF90023C4F820
:1008D000643256E036BB2A682F48938B9BB243F0B4
:1008E000080393832A792D4B02F1100143F821006C
:1008F00053119B0003F1604303F5614302F01F02B3
:10090000012101FA02F21A602A68938B9BB243F02C
:10091000020393832B7903F1804303F5043396227A
:100920001E7026E0012E25D12A681D48938B9BB2AC
:1009300043F0080393832A79184B02F1100143F81E
:10094000210053119B0003F1604303F5614302F062
:100950001F0296402A681E60938B9BB243F00203ED
:1009600093832B7903F1804303F5043300221A703B
:1009700097221A70002384F85A32022384F84832EE
:1009800005E0012084F84802F8BD0020F8BD0120F0
:10099000F8BD00BF00E100E0051100000082FF1F6C
:1009A00011110000F0B54FF47A74B1FBF4F3B2FB0F
:1009B000F4F21D4C1B02B3FBF2F2002354F8235057
:1009C000194EB2EB052F03DB0133372BF6D100E0D4
:1009D0003BB35D1E56F8237056F82540A2EB042465
:1009E000002CA2EB0722B8BF6442002AB8BF5242D3
:1009F000944216DC0D4A4368525D1A7056F8253051
:100A0000B1FBF3F3C0F84C32094B826999428FBFB6
:100A10000423084BB1FBF3F1C9B28CBF1370117002
:100A2000F0BD1D46E6E700BFA89E0000849F0000C1
:100A3000FF6BDC02001BB7002DE9F0479A469DF8DA
:100A4000203080460C4617461BB1C26812789206C9
:100A50000ED4BAF1000F40F2036240F2032540F2D7
:100A600064690CBF4FF41975914624B9012F07D959
:100A70000020BDE8F087012CFAD1BA1E012AF6E762
:100A800053B398F84B32002B98F84A320CBF00262B
:100A90000226032B20D8DFE803F0020910173146A5
:100AA000112001F08BFA3146102013E0314612205C
:100AB00001F084FA314613200CE031461E2001F08B
:100AC0007DFA31461D2005E031461F2001F076FAFF
:100AD00031461A2001F072FA34B91FB1012F13D137
:100AE0000D4B0EE00D4B0CE0012C0DD1022F07D069
:100AF000032F09D10A4BC3F80090C3F8049003E018
:100B0000084B1D6043F8045C88F84A7288F84BA2D1
:100B10000120BDE8F08700BF0CA0044004A0044001
:100B200000D004402CB0044073B504460D469DF837
:100B3000180021B9274E316841F0400105E0012934
:100B400004D1244E316841F080013160002184F8E5
:100B5000511284F84922616932B920230B7023684D
:100B60001A70E3691A7015E0002814BF28222022A9
:100B70000A70216801D0984201D95A0000E0420071
:100B8000D2B20A70E26920B198428CBF400058008E
:100B9000C0B21070002300939DF81C209DF82030F7
:100BA00029462046FFF748FF099A0B492046FFF7E0
:100BB000F9FE9DF8282029462046FFF747FE94F8C5
:100BC0004922A3680AB9802200E0C0221A7002B04C
:100BD00070BD00BF3480044000512502D0F834219C
:100BE000D0F838319A423FBFD0F834315A1CC0F89F
:100BF0003421C01834BF90F830004FF0FF307047F8
:100C00000069FFF7EBBFD0F83421D0F838319A42B1
:100C10003DBFD0F83431C01890F830004FF0FF30AD
:100C200070470069FFF7EFBF38B5C16883680D787A
:100C30001A78D2B204469006EDB216D512F0100F13
:100C400094F85A2208D0022A00F0CB8094F85A2255
:100C5000032A40F0F080C4E0022A00F0718194F889
:100C60005A22032A40F095816AE115F0100F05F031
:100C7000400304D010200870002B00F0AE8003F079
:100C8000FF01002B56D094F851320A2B04D1D4F82E
:100C90005C32002B40F0268205F0040505F0FF03CE
:100CA000F5B1092384F851320023C4F84432A36813
:100CB000D0221A7023691B785B0884F85232D4F86A
:100CC000603203B19847D4F844320BB984F83C3110
:100CD000236994F83C211A700123C4F840327CE067
:100CE00094F84A2284F85832012A03D10322B849E1
:100CF00012200EE01AB90322B549112009E0022A98
:100D000003D10322B3491E2003E0032A03D1B149D2
:100D10001F2001F085F90A2384F851320023C4F81A
:100D20003831A368C0221A7023691B785B0884F8E5
:100D3000523252E002F0100202F0FF03F2B115F05D
:100D4000010513D1D4F84022D4F844329A4207D294
:100D5000D4F840325A1C2344C4F8402293F83C5142
:100D600023691D70A368D0221A7036E0A368C022E0
:100D70001A7023691B7884F851122EE094F85122DE
:100D80000A2A2AD194F84A2284F85832012A03D137
:100D900003228F4912200EE01AB903228C49112038
:100DA00009E0022A03D103228A491E2003E0032A14
:100DB00003D188491F2001F033F923691A78D4F848
:100DC0003831B3F5817FD2B207D8D4F83831591C05
:100DD0002344C4F8381183F83020E36802221A70E3
:100DE00038BDD4F864321A68928B100600F19D80E9
:100DF00094F85A22032A0ED10A781506FCD51A79DE
:100E0000754B1A70002384F85A32D4F84432013BEF
:100E1000C4F8403207E01A79704B196801239340F7
:100E20000B42DAD0A1E0D4F840322269234493F88F
:100E30003C311370D1E794F85122012A3CD105F0DE
:100E4000100202F0FF006AB10722002384F85A3230
:100E500084F8512212220A70A26880211170C4F80D
:100E6000403238BD15F0010508D084F85A02D4F894
:100E7000402292B3062284F85122F5E0D4F84022B1
:100E80000132C4F84022D4F844128A4202D384F8D2
:100E9000515243E094F85A22012AC4D1022284F824
:100EA0005A22F1221A70D4F864321A794C4B1A7013
:100EB000236994F83D2157E794F85122D2B2022ACF
:100EC00027D1E80607D5072384F8513212230B7087
:100ED000A368802283E7ED0701D50522CBE794F8CC
:100EE0005A12012908D184F85A22E1221A70D4F842
:100EF00064321A793A4B08E0032284F85122D4F87C
:100F00005422012A0CBFE822E0221A7023691B78C0
:100F100063E794F85122042A40F0A68094F8502206
:100F2000012A00F0A180B0221EE794F85A22022A7A
:100F30007FF45EAF1A792B4B1A70A368F0220FE092
:100F4000D4F864321A681B79928B12F0800F4DD05E
:100F500094F85A22022A49D1224A1370A368E8223F
:100F60001A70032384F85A3237E71E4B1A70D4F8EC
:100F700064321A791C4B1A700023EA0684F85A323C
:100F80007FF52BAF072284F85122E26812211170FD
:100F900062E7D4F83821D4F8541202328A4265D07C
:100FA00094F85122042A03D194F85922002A5DD0E2
:100FB000D4F83831D4F854220133934271D294F8E2
:100FC0005132042B55D194F85932002B69D150E09D
:100FD000B1110000BD1100001C8000402C800040B9
:100FE0001B8000401F8000401E80004094F85A2261
:100FF000032A25D13F4A1370002384F85A3294F80B
:101000005122042A18BF84F85132A368B0221A7002
:10101000D4F85432013BC4F83831D4F838315A1C72
:10102000C4F8382122692344127883F8302094F8D8
:101030005032012B7FF4D1AE1823013BFDD112E0D9
:101040002D4A116801229A400A423FF4C6AE2B4A4B
:101050001370D4F864321A79294B1A70002384F87B
:101060005A3284F85132A36880227DE6E8221A7051
:101070009EE7D4F838315A1CC4F838212269234439
:10108000127883F8302094F85132042B7FF4A5AE07
:1010900094F85932002B7FF4A0AE012384F8593222
:1010A0009BE694F851220023042A84F8593201D097
:1010B00084F85132A368B0221A70D4F838315A1C1F
:1010C000C4F8382122692344127883F8302094F838
:1010D0005032012BD7D11823013BFDD1A3688022C8
:1010E0001A70D0E70022C4F83421D4F838019847A8
:1010F000D2E500BF1C8000402C8000401E800040D4
:101100001F80004000210148FFF78EBD0888FF1FA7
:1011100001210148FFF788BD748AFF1F10B5C3681D
:101120001B7803F02003044603F0FF02F3B990F8A4
:101130004A3280F85122012B01D1122009E00BB96B
:10114000112006E0022B01D11E2002E0032B02D168
:101150001F2000F0C1FED4F85C3243B30022C4F873
:101160003421D4F83801BDE81040184790F85832BF
:101170000133DBB2012B80F8583204D890F84932A1
:10118000012B00D110BD94F84A32012B01D112205D
:1011900009E00BB9112006E0022B01D11E2002E06C
:1011A000032B04D11F20BDE8104000F095BE10BDF8
:1011B00000210148FFF7B2BF0888FF1F0121014845
:1011C000FFF7ACBF748AFF1F38B50C4B0C4D0D4CAC
:1011D00018460021FFF724FB2A462146184602F054
:1011E0001FF9094B01211846FFF71AFB2A46214631
:1011F0001846BDE8384002F013B900BF649AFF1FDB
:10120000FC87FF1FF1070000509AFF1F38B5044606
:101210000D46E8B2012100F0D1FE2560204638BD20
:1012200038B5002204464FF47A71007800F0F0F9E6
:101230001A4B013BFDD11A4D207800F075FA2B4670
:10124000013BFDD100224FF47A71207800F0E0F9E3
:101250002B46013BFDD1207800F066FA2B46013B7E
:10126000FDD100224FF47A71207800F0D1F92B469D
:10127000013BFDD1207800F057FA013DFDD100225D
:101280004FF41671207800F0C3F9064B013BFDD1F5
:101290002078BDE8384000F047BA00BF00F22B00CC
:1012A00000F9150000E457002DE9F7431E46214BD5
:1012B0001B680193019814460D4604F015FA314657
:1012C00004F01EFB03F0DEFD02F0B0F88046894614
:1012D00020464FF0804104F057F903F0D3FD064655
:1012E00020460F4603F0CEFD42464B4603F01EFE5D
:1012F00002460B463046394603F066FC04F0C6F859
:10130000182444430526EDB20121284600F036FE9C
:1013100014B12346013BFDD10021284600F02EFEEA
:1013200014B12346013BFDD1013EEDD103B0BDE830
:10133000F08300BF9C9AFF1F38B5054642F2107437
:10134000044B054A29682846FFF7AEFF013CF7D158
:1013500038BD00BF0000F0410000404038B5002318
:10136000037043604FF4FA6304460D468360C36123
:101370004FF4C87205492C3000F058FBE8B2012147
:1013800000F01CFEC4F8BC51204638BDBC9F0000D4
:10139000012190F8BC0100F0F1BD836870B55343A2
:1013A0001546FF22B3FBF2F3436104460E4600F0FC
:1013B000AFFEE0603DB161686369411A99422CBF9C
:1013C0000021012100E0294684F82010F0B200F04D
:1013D000D5FD6268E368A168981A884298BF1346F1
:1013E000636070BD426A836AB2F57A7FB4BF01322E
:1013F0000022426202B90133642BA8BF002383623A
:1014000000EB8303D0F8BC11DA6AFFF7C6BFFFFF19
:1014100007B5094B1B680193019B8361591AC36986
:10142000994203D2FFF7DEFF012002E0FFF7B0FF91
:10143000002003B05DF804FB9C9AFF1F30B572B624
:10144000254C89B9016879B103790F2B0CD8228812
:101450001A41D20708D503F1007303F59063B1EB8D
:10146000431F01D162B630BD2188002341FA03F247
:1014700012F0010227D101259D402943218062B647
:10148000164DD9B201712C6844F002042C6055F855
:10149000044C03F1007344F0020445F8044C03F5D6
:1014A00090630F4C5B0182252560A176A1772176A0
:1014B000E17703601A605A609A60DA601A615A61D3
:1014C0009A61DA6130BD0133102BCFD162B60022B0
:1014D0000260037130BD00BF789AFF1F4080044056
:1014E0000080004003790F2B10D8094A137072B6A0
:1014F00008490279012303FA02F20B8823EA020366
:101500000B8062B61023037100230360704700BF95
:101510001A800040789AFF1F07B5064B1B88ADF86C
:101520000430036802225B6801A9984703B05DF8A4
:1015300004FB00BF4CA1000010B5036814465B68B3
:101540009847204610BD0EB403B503AA52F8041BF9
:10155000019205F049F902B05DF804EB03B0704761
:1015600010B5044601F046FD204610BD1F4A204834
:10157000136870B5012116464BB10068013B80F835
:101580008010591D08BF6FF00203136070BD03681F
:10159000184C197023680BB3174B1D68002128469F
:1015A00004F0A2FAA8B91549284604F0B1FA80B9A6
:1015B0001349284604F0F0F84FF07C5103F0E2FFA5
:1015C00004F0C6FA2328024603D90E490E4801F05A
:1015D000C9FC236833600023236070BD0A4801F012
:1015E00009FD0A4BFF221A7070BD00BF8C9AFF1FC5
:1015F000849AFF1F889AFF1F909AFF1F398EE34C31
:10160000000010426D1500007C9AFF1FE08CFF1F48
:1016100021282DE9F84307466ED83AB14A434FF4E2
:101620007A74B2FBF4F46400013401E06FF0020458
:10163000002914BF0846012004F056F801462F483F
:1016400004F05EF92E4B03EBC7020546516872B6F3
:101650002C4ADFF8D08092F800E02B4E774599466F
:1016600014D1D8F8001004F02BFA30B1336803F02D
:101670000103013B1C4434603DE0244BC8F800509A
:101680001C60336803F00103336034E020481770B6
:10169000BEF1210F9EBF03684FF0010C83F800C01C
:1016A00059F83730346003F580720260012283F804
:1016B000002183F880224FF4A2730B60C8F8005019
:1016C0000021284604F010FAA8B91249284604F06F
:1016D0001FFA80B91049284604F05EF84FF07C519B
:1016E00003F050FF04F034FA2328024603D90B49D3
:1016F0000B4801F037FC62B6BDE8F8830024F448DB
:101700007CA10000E08CFF1F8C9AFF1F889AFF1FAE
:10171000849AFF1F398EE34C000010426D150000C3
:101720007C9AFF1F909AFF1F212810B50ED872B621
:10173000074C2378834208D1064801F05BFC064B36
:101740001B6801221A70FF23237062B610BD00BF10
:10175000E08CFF1F7C9AFF1F849AFF1F0448054AF4
:101760000549002303608023037101F059BE00BFC7
:101770007C9AFF1FFC87FF1F61150000F0B5374AF8
:10178000374B11680906FCD4196811F08001F8D1B3
:1017900072B634480378002B5DD0334B334A1F6850
:1017A00004330C321B6852F80C6C52F8085C52F887
:1017B000044C12683B4433442B4423441344C3F386
:1017C0004E032B4A43F4004313602A4B1F68043333
:1017D00040321B6852F80C6C52F8085C52F8044C0A
:1017E00012683B4433442B4423441344C3F34E0355
:1017F000214A43F400431360204B02F500221F6886
:10180000043310321B681668556894683B440C32E8
:10181000334412682B4423441344C3F34E03184A41
:1018200043F400431360174B1F68043340321B68B6
:1018300052F80C6C52F8085C52F8044C12683B44A5
:1018400033442B4423441344C3F34E030E4A43F45E
:1018500000431360017062B6F0BD00BF24B00340C6
:1018600024B00B40959AFF1F38B0034040B00340AE
:101870002CB0034058B0034030B0034038B00B40A8
:101880002CB00B4058B00B4030B00B4010B5204B83
:101890002048214960221A70E1225A701F4B204AC9
:1018A0001C78204B082C01D1012402E00A2C03D122
:1018B00019240460132005E00C2C0CBF15243D24D2
:1018C00004601220086014601860174B17491B78D9
:1018D000174A03B101230B601360164B164A19789F
:1018E000164B012901D880210BE0042901D884215D
:1018F00007E0082901D8852103E0102994BF86213B
:101900008721116019600E4B01221A7010BD00BFB3
:101910000040074008B003400CB00340E18CFF1FBB
:1019200008B00B400CB00B40989AFF1F20B003404A
:1019300020B00B40E28CFF1F24B0034024B00B40CA
:10194000959AFF1F28282DE9F04150D8294B1C5C9F
:10195000FF2C4CD0284B1B780BB1FFF70FFF210653
:1019600017D472B6254E264F346001233B7062B601
:10197000234D72B633681A0604D5224B00221B6829
:101980002A7026E02B78002BEED062B601F00EFA1A
:10199000EFE772B61C4EDFF8808004F04007FFB21C
:1019A00004F03F05336817B123F0100301E043F062
:1019B0001003164C33600123C8F80050237062B640
:1019C00072B6D8F800301B060AD5114B00221B68EE
:1019D000227062B60F4A107843FA00F0BDE8F08139
:1019E0002378002BDED062B601F0E0F9E8E70020B2
:1019F000BDE8F0814EA10000959AFF1F00B00340A2
:101A0000979AFF1F10B003400CB00B40969AFF1F2F
:101A100010B00B40949AFF1F00B00B4008B5FEF7C2
:101A2000D9FDFEF707FE01F0C1F9FAE7844641EA65
:101A3000000313F003036DD1403A41D351F8043B46
:101A400040F8043B51F8043B40F8043B51F8043B98
:101A500040F8043B51F8043B40F8043B51F8043B88
:101A600040F8043B51F8043B40F8043B51F8043B78
:101A700040F8043B51F8043B40F8043B51F8043B68
:101A800040F8043B51F8043B40F8043B51F8043B58
:101A900040F8043B51F8043B40F8043B51F8043B48
:101AA00040F8043B51F8043B40F8043B51F8043B38
:101AB00040F8043B51F8043B40F8043B403ABDD2A7
:101AC000303211D351F8043B40F8043B51F8043B49
:101AD00040F8043B51F8043B40F8043B51F8043B08
:101AE00040F8043B103AEDD20C3205D351F8043BD8
:101AF00040F8043B043AF9D2043208D0D2071CBFA4
:101B000011F8013B00F8013B01D30B8803806046CC
:101B1000704700BF082A13D38B078DD010F0030342
:101B20008AD0C3F10403D21ADB071CBF11F8013BB2
:101B300000F8013B80D331F8023B20F8023B7BE701
:101B4000043AD9D3013A11F8013B00F8013BF9D22C
:101B50000B7803704B7843708B78837060467047C6
:101B600001B5EAB1102A17DB00F0070333B1C3F166
:101B70000803D21A013B00F8011BFBDCC9B241EAA1
:101B8000012141EA01418C46D308013BE0E8021CF7
:101B9000FBDC12F0070203D0013A00F8011BFBDC6A
:101BA00001BD00BF08B50B4D2C462B68580301D56D
:101BB00000F000FC2368590501D501F075FA23688F
:101BC0001A0501D501F0FEFA2368DB04EDD501F01A
:101BD00087FBEAE73480044008B5FFF7E3FFFFFF27
:101BE000014B10221A807047002005407047FFFF0C
:101BF000094908B50B6868B16A461844A2F58052D5
:101C0000904206D303F0DAFF0C2303604FF0FF305D
:101C100008BD0860184608BDE48CFF1F03F0FCBF38
:101C200004F002B830B503460020B3FBF2F402FB27
:101C30001433092B94BF30333733DBB20B542346B4
:101C40000CB10130F1E70A1823465470C41AA342BC
:101C500006DACC5C1578CD5402F801490133F5E77A
:101C6000084630BD2DE9F04381EAE17985B00F46A1
:101C7000A9EBE1790146064615461C4603F052FFE2
:101C800078B30021304603F025FF002814BF04205C
:101C900003204845B4BFC0EB09050025002F07DA33
:101CA00060192023844202D004F8013BFAE70025A2
:101CB00030464FF07E5363F31E00002103F00AFF0D
:101CC00010B12D232370013441234E226370E31C95
:101CD0002270A2705819202283423CD003F8012BB5
:101CE000FAE726F000487749404603F01BFFA8BBFF
:101CF0004046744903F0F8FE804678BB0021304628
:101D000003F0E8FE002814BF042003204845B4BFB8
:101D1000C0EB09054546002F07DA601920238442ED
:101D200002D004F8013BFAE700250021304603F019
:101D3000D1FE10B12D2323700134492323704E238B
:101D400046226370E31CA27058192022834202D0FD
:101D500003F8012BFAE700230370B0E002AB01AAFD
:101D60002946304603F01AFF814665B9019B53B9F5
:101D700090F80090544B554AB9F1340F94BF9146F6
:101D8000994601230193019B5B429D42BCBFDFF852
:101D90003C916B424846B8BF019304F091FC019B13
:101DA00098428046C8BF00F10108002B02D108F11B
:101DB000010825E024DA1DB32B44984205F10208FE
:101DC0001ED9A946B9F1000F07DD3046404903F09E
:101DD000E3FC09F1FF390646F4E7002DACBF691BAF
:101DE000294602AB03AA304603F0D8FE019B039AB2
:101DF000691CD21A8A4208BF0133814608BF019389
:101E0000029808B108F10108C8EB0703002B04EBA6
:101E1000080208DD1A44214623442026994203D0B3
:101E200001F8016BFAE7234610B12D211970013337
:101E30000199002909D135B11946302001F8020B6A
:101E40002E2058700B462E2522E0FCDA002DFAD009
:101E50001D46302005F8020B2E265E702B46C91A4F
:101E600000255E1803D503F8010B0125F9E7002DC5
:101E7000E9D00196E7E7581C19F8011B1970824256
:101E800009D001990139019109B9981C5D70034687
:101E90009A42F0D800E01346002F0DDA47447F4203
:101EA000194620207A1A1A44002A02DD01F8010B93
:101EB000F8E7002FA8BFDB1900221A70204605B0F2
:101EC000BDE8F083FFFF7F7F79A1000077A10000CC
:101ED000000020417047FFFF194B03EBC000426830
:101EE00002F14043A3F592217C2910D9A3F5942156
:101EF0007C290ED9A3F596217C290CD9A3F598212C
:101F00007C290AD9A3F59A237C2B08D970470D495F
:101F100006E00D4904E00D4902E00D4900E00D49DD
:101F200072B6136823F0877323F4803343F0807311
:101F30001360C2F38402084B41F8223062B6704746
:101F40007CA10000E88CFF1F208DFF1F708DFF1FFC
:101F5000A08DFF1FC08DFF1FD51E0000044B05493B
:101F600000221A600A60044A106010221A6070474A
:101F700014D0034004D0034000D00340212810B502
:101F800018D80D4B53F8302092F880423CB1012311
:101F900011B182F8803010BD82F8003110BD03EB22
:101FA000C0035B681A6811B142F0030201E022F03D
:101FB00002021A6010BD00BF7CA10000212810B5EC
:101FC0002BD8164A02EBC00301295B68144601D0E6
:101FD00004290FD154F83020012082F880024FF4F8
:101FE000A2721A601A6804290CBF42F0200222F083
:101FF000200211E052F83000002280F8802211B94E
:102000004FF4807208E0022902D140F2031203E08B
:10201000032908BF4FF481721A6010BD7CA1000033
:10202000212870B50E4659D8042A57D8DFE802F0A7
:10203000070905030B00092306E00A2304E008232F
:1020400002E00C2300E00B231D04254B03EBC0032F
:102050005C68216811F4E06101D1FFF7AFFF214B0B
:10206000214AC3F89C21214AC3F8A021204AC3F881
:10207000A421204AC3F8A8211F4AC3F8AC2104F1C7
:102080004043A3F592227C2A10D9A3F594227C2AFE
:102090000ED9A3F596227C2A0CD9A3F598227C2A86
:1020A0000AD9A3F59A237C2B08D970BD134B06E0FF
:1020B000134B04E0134B02E0134B00E0134B72B6DA
:1020C000226822F47022226042F08071C4F38402FC
:1020D00043F8226045EA0103236062B670BD00BF89
:1020E0007CA100000082FF1FD187FF1FA587FF1F73
:1020F0007987FF1F4D87FF1F2187FF1FE88CFF1F78
:10210000208DFF1F708DFF1FA08DFF1FC08DFF1F33
:1021100072B60C4B0C4A0D491B681268096862B60E
:10212000490102D5322B88BF0132C3F58C334820D8
:1021300003F23F13B3FBF0F34FF47A7000FB02306D
:10214000704700BF18E000E09C9AFF1F04ED00E01C
:1021500038B50446FFF7DCFF054624B938BD013C1D
:102160000AD005F57A75FFF7D3FF401BB0F57A7FEB
:10217000F5D200F01BFEF6E738BDFFFF214B4FF410
:10218000000210B51A604FF080721A604FF00072B2
:102190001A604FF080621A604FF000621A601A4BAA
:1021A0001A4A1B4C002048F6FF711860596028231A
:1021B000136093601361936113629362136393637B
:1021C0000922226004F58054043420606160A36019
:1021D000236144F8042C04F5FE2420600D480160BE
:1021E0000D490B608B600D4B1A60FFF74FFB3220DF
:1021F000FFF7AEFF00F0EAFB4FF4AF70BDE8104010
:10220000FFF7A6BF08E100E0048003400C80034014
:102210000080034008800B400C800B4000800B4086
:10222000F0B50C4C0C4E23780C4D43F0020706EB36
:10223000C70283F0010350602A782370002A14BF7C
:10224000C820882082F0010240EA01412A7046F845
:102250003710F0BD089BFF1F0080FF1F809BFF1FF2
:10226000431E032B10B510D872B6094A52F823004A
:1022700048B1416842F823100649048831F8132018
:10228000121B21F8132062B610BD002010BD00BF44
:10229000F89AFF1F649DFF1F013803280AD872B601
:1022A000054B53F82030002013B101305B68FBE789
:1022B00062B67047002070474C9BFF1F70B472B627
:1022C000174C184901231A1912F8012C12071DD5B1
:1022D0009A00144E51F832502DB906EB43130830D2
:1022E0005860114B09E042F0010251F832506DB9CB
:1022F00006EBC203083058600C4B46F832300C4AEB
:102300001378013B137062B670BC70470133052B24
:10231000D9D162B6064B00221A7070BC00F0CABB5D
:10232000B4A200000080FF1F88004000C8004000E9
:10233000769BFF1F431E032B10B532D8194A40016C
:1023400040F01000104472B6174AD45C032C0BD82E
:10235000DFE804F018040207052414E00830022422
:1023600011E0083004240EE01048114A50F82340D0
:1023700014B940F8231002E052F82300416042F8FB
:1023800023100DE00324D45410F0080F01F10803CA
:102390000A88436014BFC823882343EA02430360CA
:1023A00062B610BD0080FF1FB49AFF1F4C9BFF1F39
:1023B0005C9BFF1F2DE9F74FA94B1C78E4B214F08A
:1023C000040F1D461AD0A74B1B78A3B1A64A11785B
:1023D00001F0FF0321B1013BDBB2137003B900BE72
:1023E000A24A117801F0FF0329B1013BDBB213705F
:1023F0000BB900F0B7FC9A4A0423137004F00803E9
:1024000003F0FF02002B00F07182994B994C1B786E
:10241000DBB21F094FEA930640F0EC8104EBC603E0
:10242000596854F83630C3F38303013B0C2B00F298
:10243000DD81DFE813F09A019A01DB01DB01DB01AA
:10244000DB01DB01DB01B901DB01DB01DB010D009D
:102450000A68894D89484B682A6001216B60DFF862
:102460005082874B017092B240F2816044F836305E
:1024700082424FF00003C8F800302361A36117D8EF
:10248000B2F5D06F80F02781B2F5817F00F0D8805F
:1024900006D8802A00F0C180822A00F0C28035E18F
:1024A00040F202339A4200F00781B2F5A06F1AE0C1
:1024B00042F22100824200F055810CD8B2F5086F3B
:1024C00000F0A580B2F5106F40F02081654AA97830
:1024D00011701E460AE042F221218A4200F00E816C
:1024E00042F221339A4200F015810FE1A219136ADA
:1024F0001F0603D5506A083800F0DCFA0836802E33
:10250000F4D1DFF8B0915F4F0026CA4659F8260093
:102510004FEA860B30B14268009200F0CBFA009A85
:102520001046F7E7584B594A4AF80B004BF803009E
:102530005BF8020040B141680192009100F0BAFAE4
:102540000099019A0846F5E7514B42F80B0023F831
:1025500016003B784F4A023B4BF80200032B07D88A
:10256000DFE803F002040204002300E001233B70D3
:102570000136042E07F10107C8D1474B474E404FA3
:1025800000221A704FF0010B9946454A0BEB0601E9
:102590005A4411F8011C920011F0080F11704FEA13
:1025A0008B0A24D000F068FA38B104EB4B120830E3
:1025B0003C4B506044F83A3006E099F8002044F86B
:1025C0003A00013289F8002000F056FA4AF0010280
:1025D00030B104EBC2010830486044F8327006E0C4
:1025E00044F8320099F80020013289F800204AF0BE
:1025F00002010BF1010B4AF0030A0022BBF1050FA7
:1026000044F8312044F83A20BFD1134683E0154BFB
:10261000254E1B7833700B4680E0234E3370737069
:102620007BE0AA8802F07F02042A6FD81E4E920037
:10263000337073701D4B9B5C9C076ED531706CE0E2
:10264000AA8802F07F02042A60D86B88002B5DD133
:102650001649920011440A7822F0020239E000BFC4
:10266000802007407F9BFF1F099BFF1F819BFF1F4F
:10267000902007400080FF1F6C9BFF1F809BFF1F67
:10268000C8004000B49AFF1FA49AFF1F4C9BFF1F75
:10269000649DFF1F5C9BFF1F769BFF1FB4A2000081
:1026A00030C8011088004000779BFF1FC020074002
:1026B000A09AFF1FF89AFF1FAA8802F07F02042A3F
:1026C00024D86B8813BBA549920011440A7842F0C4
:1026D00002020A701FE06A88A988A14B5E68AEB149
:1026E0001888904208D15888884205D1120A032AD6
:1026F0000CBF33781B8911E00C33EFE7994A11685E
:10270000994A1160994AA978117004E0934B0F22FD
:102710001A7027E000231E4600E00223EC889C424A
:1027200028BF1C46402C254628BF40253046294658
:10273000FFF776FD641B2E4403D1402D12D12546B0
:1027400003E0402C254628BF402530462946FFF7A8
:1027500067FD641B2E4401D1402D03D1844BC8F882
:1027600000601C800122834B3FE0834B1A8842F2B9
:1027700021039A4214D1814A0023C85C9854013342
:10278000072BFAD17D4B1B68862B08BF7C4B4FF083
:10279000000108BF0F22084608BF1A70FFF740FD6E
:1027A000784B44F8363021E0774F3E68A6B1DFF829
:1027B000C081B8F80040402C254628BF402530464F
:1027C0002946FFF72DFD601B80B2A8F8000008B96C
:1027D000402D00D170193860674B1A88B2F5A06F90
:1027E00004D100225A709A78684B1A70614B01220A
:1027F0001A7077E004EBC605013F6A6803F008032E
:10280000A2F10800FFB203F0FF0E002B36D000F05B
:1028100051F95F485F4A50F82710E9B14B6840F81A
:10282000273001F108036B60D35D032B0BD8DFE881
:1028300003F002040608032304E0022302E0052358
:1028400000E00423D35515F0080F0A8814BFC823ED
:10285000882343EA024343E0D35D032B07D8DFE834
:1028600003F041410204002306E0012304E015F0D7
:10287000080F14BF03230223D35533E054F8363036
:102880001B0C99B222F8081C23B3434B22F806EC28
:1028900042F804EC53F82720DFF82CE112B943F892
:1028A000270002E05EF8273058603C4A4EF82700C7
:1028B00032F817300B4422F8173000F0DDF810B171
:1028C0000830686006E0364A44F836001378013371
:1028D000137007E0334A2B4B15F0080F08BF13465F
:1028E00044F83630304A0823137065E5E0071ED5FA
:1028F00020492C482D4C02230B702D4B1A702D4B68
:10290000186098602C48D8601A619A615C60134B1B
:102910000D2018702948FF2303702B700274284A79
:102920001370284B9F221A7001230B7012E02106AE
:1029300004D50A4B0D221A7080232B70A20705D5EF
:102940001E4A1378DBB2137002232B70E30644BFD8
:1029500010232B7003B0BDE8F08F00BFC0200740EC
:10296000B8A200009C9AFF1F749DFF1F909BFF1F41
:10297000749BFF1F942007406C9BFF1F6C9DFF1FE3
:10298000099BFF1FC8004000A09AFF1F9820074026
:102990004C9BFF1FB49AFF1FF89AFF1F649DFF1FF7
:1029A000769BFF1F8800400080200740B89AFF1FD9
:1029B000089BFF1F0080FF1F0C9BFF1F8820074004
:1029C0008C20074084200740A49AFF1F10B500F018
:1029D000EDFC0023194819461950C4180833882BF8
:1029E000164A6160F8D116490B6843F480230B60E6
:1029F000144BC2F307211970C2F30741120E197567
:102A00001A76114AFF2313700021137202F8703CEA
:102A10000123137582F8801013710C4B70226FF430
:102A200050711A700B444FF400721A6003F1C043E6
:102A300003F5C82310221A7010BD00BF0080FF1FCD
:102A4000348004409C2007408020074049E400E097
:102A500000F0A2B800F076B800F04EB800F08EB8E2
:102A600000F052B900F02CB90846114600F0ACB89D
:102A7000084600F019B9704710B572B60B480268E5
:102A8000B2FA82F10B2902DD62B6002010BD4FF0D0
:102A90000043CB4022EA0302026062B6044C4823A2
:102AA0004B43E0180022E250426010BDD88DFF1F5A
:102AB000BC83FF1F0C4B4822C31AB3FBF2F30B2B52
:102AC00011D80A4A127822B1094A12780AB1FFF7DE
:102AD000F5BB72B607494FF0004222FA03F30A68C9
:102AE0001A430A6062B67047BC83FF1F769BFF1FC4
:102AF0007F9BFF1FD88DFF1F10B5104C23686BB153
:102B0000206843885A1C03441C7A03889A4212D3D3
:102B1000FFF7D0FF094B00221A600DE0084B1B782D
:102B200013B94FF0FF3010BD0320FFF799FB206071
:102B30000028E5D1F5E74280204610BD8C9BFF1FA1
:102B40007F9BFF1F10B50B4C236813B122686AB935
:102B500002E0094B1B7813B94FF0FF3010BD032082
:102B6000FFF77EFB20600028F0D1F5E7538813447F
:102B7000187A10BD8C9BFF1F7F9BFF1F044B98880A
:102B8000044B1A681AB1138852889B1A184470476C
:102B9000649DFF1F8C9BFF1F10B5094B1B786BB109
:102BA000084C206818B1FFF785FF0023236003203D
:102BB000FFF756FB10B1FFF77DFFF8E710BD00BF30
:102BC0007F9BFF1F8C9BFF1F2DE9F84F314DDFF8D6
:102BD000D490012382460C462B700E464F46002EA1
:102BE00053D0D9F800303BBBDFF8B0B048F601480D
:102BF000294B1B7803F0FF010BB9297015E0042065
:102C0000FFF74AFB072807D801232B70FFF734FF93
:102C1000386088B91F4B1870B8F1010802D09BF8D2
:102C2000003033B11D4B01221A704FF0FF30BDE868
:102C3000F88F00F0BBF8DBE7184B002119703968FA
:102C40004B88C3F14000B04228BF304603EB000E72
:102C50000B44A1F802E0361A07330AEB0008C2451C
:102C600004D01AF8010B03F8010FF8E74B883F2B4B
:102C700006D940230B800420FFF75CFB00233B6058
:102C8000074B05221A70C246A9E72E702046BDE800
:102C9000F88F00BF829BFF1F7F9BFF1F889BFF1F3A
:102CA000819BFF1F849BFF1F07B502AB012103F827
:102CB000010D1846FFF788FF03B05DF804FBFFFF26
:102CC00038B50E4C0E4D012323702B687BB90D4B8C
:102CD0001B7813B90020207038BD0420FFF7DCFA00
:102CE0000728F7D8FFF7C8FE28600028F2D02B6825
:102CF000588800232370C0F1400038BD829BFF1F1D
:102D0000849BFF1F7F9BFF1F2DE9F041114B1B7818
:102D1000F3B1114F114B3C68114D01261E709846BE
:102D20004CB1002663882E70214623800420FFF7D3
:102D300001FB3E6009E0FFF79FFE014620B1042041
:102D40002C70FFF7F7FA00E02E70002388F80030AF
:102D5000BDE8F0817F9BFF1F849BFF1F829BFF1FAD
:102D6000819BFF1F38B50E4B1B7803F0FF05ABB9F5
:102D70000C4C216831B14B880B800420FFF7DAFA44
:102D8000256038BDFFF778FE014620B10420BDE87C
:102D90003840FFF7CFBA044B01221A7038BD00BF8C
:102DA000829BFF1F849BFF1F819BFF1F38B51E4C1A
:102DB0002378002B36D101232370FFF7DFFE08B103
:102DC000FFF759FE00F060F908B100F0C7F800F015
:102DD000E9F908B100F0C3F800F072FA08B100F0A8
:102DE000BFF800232370EFF30583DBB9EFF3108204
:102DF00072B60E4D286810B10D4C217811B18AB908
:102E000062B638BD0123237043692B600BB1996111
:102E100001E008490B6002B962B600254577836876
:102E20009847257038BD00BF919BFF1FA49BFF1FD3
:102E3000A89BFF1FA09BFF1FEFF3108072B6B0FA94
:102E400080F04009704700B162B67047F8B50C4E8B
:102E50000C4F0025FFF7F0FF346802466CB1636940
:102E600033600BB19D6100E03B601046FFF7EBFF64
:102E70006577A36820469847ECE7FFF7E4FFF8BDC5
:102E8000949BFF1F989BFF1FFFF7E0BF15490B683E
:102E900030B513B98360C36009E004681A689442CE
:102EA00007D20025121B8360C560D8601A600860D5
:102EB00015E002681C689968121B026061B10C6819
:102EC000A2420B46F5D28160C968C160D860C16872
:102ED000A21A88601A6002E08160C36098600223D1
:102EE000037530BD9C9BFF1F70B5164D2C680026E6
:102EF000BCB1236813B1013B236012E0A26802B1A8
:102F0000D36020692A60036826751B682246002169
:102F1000984763681BB123602046FFF7B7FF2C6812
:102F2000E6E7FFF789FF084B00221C681A60FFF7ED
:102F30008AFF2CB1A5682046FFF7A8FF2C46F8E7CA
:102F400070BD00BF9C9BFF1FAC9BFF1F024A136814
:102F500001331360FFF7C8BF9C9AFF1F704770478B
:102F600070477047036830B523B100249C6001248A
:102F7000DC6017E0194C236843F40003236000BFB2
:102F8000174B01241C6003F58073164C0360036823
:102F90009D683DB11033A3420360F8D9002303605C
:102FA000184630BD0468104B226023441B110F4D9E
:102FB0000322A2600E4A45F8231001799954443344
:102FC0005A11920002F1604202F56142012003F0C1
:102FD0001F0300FA03F3136030BD00BF3C800440C0
:102FE000007003403F710340008FFCBFDC8DFF1F6A
:102FF00044E400E0016830B5A1B10B4B0B441B1158
:1030000003F144025511012402F01F0204FA02F2F6
:10301000064C44F82520064A064C42F8234000237B
:103020008B60036030BD00BF008FFCBF80E100E01B
:10303000DC8DFF1F632F0000024B01221A60024B40
:103040001B6818470C710340DC8DFF1F024B0122E7
:103050001A60024B5B6818471C710340DC8DFF1F30
:10306000024B01221A60024B9B6818472C710340E7
:10307000DC8DFF1F024B01221A60024BDB681847F0
:103080003C710340DC8DFF1F054B1878054B1A7807
:10309000C0B2D3B2984238BF4030C01A704700BFA8
:1030A000369CFF1FB59BFF1FF0B534490B7913F019
:1030B000300F2FD072B68B7D03F0FF0423B9CB798C
:1030C00040234B7462B625E062B62D482D4A037842
:1030D00012782D4FDBB2D2B20546581C4028CE796B
:1030E00028BF00209042F6B21CBF3E540346601E2B
:1030F00010F0FF04F1D1D9B229702449096849B10F
:10310000934236BFC2F140029B1A9B18272BC4BFC3
:1031100001230B70194AD178C9B20D061ED5137957
:103120001C061BD51A4B1B481D7803781A4EEDB2AE
:10313000DBB2AB420AD00133402B28BF0023147905
:10314000F45CE4B2D471147D072CF2D9DBB20370C5
:103150000A4B1A79100644BF7C22DA7049060CD556
:10316000064B1A79520608D50C4A002111700C4AF8
:10317000126802B111703C22DA70F0BD00A0064066
:10318000369CFF1FB59BFF1FF69BFF1FB09BFF1FC9
:103190003C9CFF1F379CFF1FB69BFF1FB49BFF1F6C
:1031A000389CFF1F054B1878054B1A78C0B2D3B274
:1031B000984238BF4030C01A704700BFAE9CFF1F16
:1031C000459CFF1FF0B534490B7913F0300F2FD019
:1031D00072B68B7D03F0FF0423B9CB7940234B7487
:1031E00062B625E062B62D482D4A037812782D4F3D
:1031F000DBB2D2B20546581C4028CE7928BF002049
:103200009042F6B21CBF3E540346601E10F0FF040D
:10321000F1D1D9B229702449096849B1934236BF26
:10322000C2F140029B1A9B18272BC4BF01230B70CD
:10323000194AD178C9B20D061ED513791C061BD5C3
:103240001A4B1B481D7803781A4EEDB2DBB2AB4225
:103250000AD00133282B28BF00231479F45CE4B290
:10326000D471147D072CF2D9DBB203700A4B1A79A2
:10327000100644BF7C22DA7049060CD5064B1A7939
:10328000520608D50C4A002111700C4A126802B18E
:1032900011703C22DA70F0BD00B00640AE9CFF1FFA
:1032A000459CFF1F6E9CFF1F409CFF1FB49CFF1F8F
:1032B000AF9CFF1F469CFF1F449CFF1FB09CFF1F3D
:1032C000054B1878054B1A78C0B2D3B2984238BF74
:1032D0004030C01A704700BF269DFF1FBD9CFF1FD6
:1032E00010B5284B1A79920620D52749DA790B7840
:1032F0002648013300783F2BC8BF0023834218BF04
:103300002348D2B21EBFC254DAB20A70214A1168F1
:1033100061B1214A1278D2B2934236BFC2F1400263
:103320009B1A9B18272BC4BF01230B701549CA7821
:10333000D2B2140616D50B79180613D5174B164CB6
:1033400018782378DBB2984202D16C23CB7009E065
:103350000133282B28BF00231148C05CDBB2C0B268
:10336000C871237051060CD5064B1A79520608D540
:103370000C4A002111700C4A126802B111702C2203
:10338000DA7010BD00C00640269DFF1FBD9CFF1FC8
:10339000E69CFF1FB89CFF1F279DFF1F2C9DFF1F52
:1033A000BE9CFF1FBC9CFF1F289DFF1F1FB572B650
:1033B000154B70221A70154A412111700F2102F825
:1033C000011C80221A701A781206FCD5104B18685E
:1033D00062B6104B984298BF0A2301AC98BF58437D
:1033E0000A222146FEF71EFC0B4A0023E15C21B1B4
:1033F00001330A2B22F8021BF8D1084A01335B0083
:10340000137004B010BD00BF00000240070002406E
:10341000080002407F969800768EFF1F748EFF1F73
:103420000B460146184602F0B3BB00BF30B51F4A39
:1034300021F00043934287B01BDD1D4A934205DD16
:1034400002460B4601F0BEFB07B030BD02AA00F0F9
:10345000A3FA00F003000128DDE904231AD00228B2
:103460000FD0E0B1DDE9020100F0BAFC01F100414A
:10347000EAE7002300930022002301F0CDF907B012
:1034800030BD0124DDE90201009401F0C5F901F12C
:103490000041D9E7DDE9020100F0A2FCD4E70124F4
:1034A000DDE90201009401F0B7F9CDE7FB21E93F26
:1034B000FFFFEF7F2DE9F0418AB004460D4600F092
:1034C00077F8364B93F90080B8F1FF3F06460F4678
:1034D0000DD022462B462046294601F0C1FF30B9C7
:1034E000002200232046294601F0B0FF20B13046DB
:1034F00039460AB0BDE8F081294B0890CDE9024574
:10350000CDE90445019320462946B8F1000F17D1B3
:10351000244D4FF0604400220023CDE9064501F020
:103520006DFF002832D002230093684601F0B8FAFC
:1035300098B1089BB3B9DDE906010AB0BDE8F08196
:10354000194D002400220023CDE9064501F056FF65
:1035500068B1022398450093E7D102F02FFB2223A4
:103560000360E6E702F02AFB089B0360E3E7012320
:10357000B8F1020F00930BD102F020FB212303606E
:103580000A4801F08FFACDE90601D2E70123009342
:10359000684601F085FA0028F2D1EDE78A8EFF1F18
:1035A0000CA30000FFFFEFC70000F0FF44A70000DE
:1035B0002DE9F04FB1F5801F85B006460F460B464A
:1035C0005ADA024621F00044224300F0F880002934
:1035D000C0F27A810022D64B01F0A8FC0B460F46C0
:1035E000D4498B4206466FF035024ADCC3F313051B
:1035F00005F5152404F6647404F4801E8EF07F51E2
:1036000081F440111B15A3F2FF3341EA05079C1812
:1036100030460022C84B394604EB1E5401F0D2FA62
:10362000AB1CC3F31303022B82468B464FF0000200
:1036300030DC002301F0E2FE002800F0C980002CFD
:1036400000F04B81204601F00BFCA5A3D3E9002339
:1036500006460F4601F06AFCA3A3D3E90023044603
:103660000D463046394601F061FC02460B462046C5
:10367000294601F0A9FA0AE0AE498B424FF0000258
:10368000B4DD32463B463046394601F09DFA05B07E
:10369000BDE8F08F4FF0804301F096FA02460B46EA
:1036A0005046594601F06CFD064620460F4601F093
:1036B000D7FB3246CDE900013B4630463946CDE9DD
:1036C000026701F033FC02460B468046894601F052
:1036D0002DFC87A3D3E9002306460F4601F026FC04
:1036E00085A3D3E9002301F06FFA32463B4601F08F
:1036F0001DFC83A3D3E9002301F066FA32463B4662
:1037000001F014FC80A3D3E9002301F05DFA4246E6
:103710004B4601F00BFC7EA3D3E90023804689468B
:103720003046394601F002FC7BA3D3E9002301F0C7
:103730004BFA32463B4601F0F9FB79A3D3E900236B
:1037400001F042FA32463B4601F0F0FB0B460246DE
:103750004946404601F038FAA5F5C223C5F5D725FC
:10376000A3F27A4351351D43002D8046894656DD2C
:103770000022724B5046594601F0D8FB52465B4638
:1037800001F0D4FB06460F46002C68D132463B467A
:103790004046494601F018FADDE9022301F0C6FB74
:1037A00002460B463046394601F00CFA02460B46FB
:1037B0005046594601F006FA05B0BDE8F08F0022E8
:1037C000002300205E4901F0DBFC05B0BDE8F08F6E
:1037D00055A3D3E900235046594601F0A7FB024602
:1037E0000B460020554901F0EDF9524606460F46BA
:1037F0005B465046594601F099FB02460B4630465F
:10380000394601F093FB06460F46002C40F09A80A3
:1038100002460B465046594601F0D4F937E7002CD2
:1038200000F0A4802EA3D3E90023DDE9000101F01C
:103830007DFB42464B4604460D465046594601F034
:10384000C1F9DDE9022301F071FB27A3D3E90023CD
:1038500006460F46DDE9000101F068FB21E020A3E8
:10386000D3E90023DDE9000101F060FB32463B466D
:1038700004460D464046494601F0A6F9DDE902231B
:1038800001F054FB18A3D3E9002380468946DDE903
:10389000000101F04BFB02460B464046494601F051
:1038A00093F902460B463046394601F08BF95246F1
:1038B0005B4601F087F902460B462046294601F097
:1038C00081F905B0BDE8F08F02460B4601F07AF9A8
:1038D0000022002301F054FCD9E600200021D6E6A6
:1038E0000000E0FE422EE63F763C7935EF39EA3DB6
:1038F00044523EDF12F1C23FDE03CB966446C73F1F
:10390000599322942449D23F935555555555E53F37
:103910009FC678D0099AC33FAF788E1DC571CC3F42
:1039200004FA97999999D93F555555555555D53F0D
:1039300000005043FFFFEF7F0000F03F0000E03F3A
:10394000000050C3204601F08BFA0FA3D3E90023F7
:103950008046894601F0EAFA0DA3D3E90023044624
:103960000D464046494601F0E1FA9AE702460B4609
:103970005046594601F026F9DDE9022301F0D6FA56
:1039800014E700BFAFF300800000E0FE422EE63FE8
:10399000763C7935EF39EA3D2DE9F04F944E21F030
:1039A0000047B74291B040F382809246914A9742D5
:1039B0000C4626DC002984A3D3E9002340F3A88128
:1039C00001F000F98C4B9F4204460D4600F08480C4
:1039D0007FA3D3E9002301F0F5F802460B46CAE9BC
:1039E00000232046294601F0EDF879A3D3E900230E
:1039F00001F0E8F80125CAE90201284611B0BDE846
:103A0000F08F7E4A974240F384807D4A974259DC8A
:103A10003D15A5F21645A7EB055319461F46064668
:103A200001F034FD01F01CFA8046894602460B463F
:103A300030463946CDE90A8901F0C4F80022714BBD
:103A400001F074FA8946804601F020FD01F008FA81
:103A500002460B4606460F4640464946CDE90C67EE
:103A600001F0B0F80022674B01F060FA0022002359
:103A7000CDE90E0101F0C2FC002800F075810023A1
:103A800030463946002201F0B9FC002814BF01235A
:103A900002235D4A0192022100912A4651460AA85A
:103AA00000F0C2FA002CC0F25181054606E0C2E9DE
:103AB000000100250024C2E902450025284611B076
:103AC000BDE8F08F02460B4601F07CF80025CAE9FC
:103AD0000201CAE90001F1E73FA3D3E9002301F0A5
:103AE00071F83FA3D3E900230D46044601F06AF8BC
:103AF00002460B46CAE900232946204601F062F837
:103B000037A3D3E9002301F05DF80125CAE90201DA
:103B1000D4E700F037FF34A3D3E900238046894679
:103B200001F004FA0022394B01F04EF801F0AEFC2E
:103B3000054601F095F924A3D3E90023CDE904015A
:103B400001F0F4F902460B464046494601F03AF8C6
:103B50001FA3D3E9002380468946DDE9040101F073
:103B6000E5F91F2DCDE9020154DC294B6A1E53F8FB
:103B700022309F424ED002460B464046494601F055
:103B800021F802460B46CAE9002383460E465A46F0
:103B900033464046494601F015F8DDE9022301F0BD
:103BA00011F8002C02460B46CAE9022386DA5B466E
:103BB00006F1004601F100418AE84800CAF80C10FD
:103BC000CAF808006D4279E700004054FB21F93F34
:103BD0003163621A61B4D03D0000601A61B4D03D17
:103BE0007370032E8A19A33B83C8C96D305FE43F0D
:103BF000FB21E93F7BD90240FB21F93FFB21394101
:103C0000FFFFEF7F0000704190A300000000E03F45
:103C100010A30000DDE902234046494600F0D2FF30
:103C20003A15C1F30A53D31A102B83460E46099254
:103C3000CAE90001ABDD5EA3D3E90023DDE904019D
:103C400001F074F906460F4602460B4640464946C7
:103C500000F0B8FFCDE9060102460B464046494652
:103C600000F0B0FF32463B4600F0ACFF52A3D3E970
:103C7000002306460F46DDE9040101F057F93246FC
:103C80003B4600F09FFFDDE90689CDE902010246CF
:103C90000B464046494600F095FF0B46C1F30A57D4
:103CA0000E460999CF1B0246312F8346CAE90023ED
:103CB0007ADD43A3D3E90023DDE9040101F036F9FD
:103CC00006460F4602460B4640464946CDE9068960
:103CD00000F078FF02460B4680468946DDE9060182
:103CE00000F070FF32463B4600F06CFF36A3D3E98C
:103CF000002306460F46DDE9040101F017F93246BC
:103D00003B4600F05FFF02460B46CDE9022334E755
:103D100000F05AFF304B9F4204460D4626D02CA39C
:103D2000D3E9002300F050FF02460B46CAE9002306
:103D30002946204600F046FF25A3D3E9002300F0E2
:103D400043FF4FF0FF35CAE90201B7E6DAF8042075
:103D5000DAF80C3002F1004203F100434542CAF8A0
:103D60000420CAF80C30A9E6032392E610A3D3E995
:103D7000002300F029FF10A3D3E900230D460446D9
:103D800000F022FF02460B46CAE9002329462046DE
:103D900000F018FF08A3D3E9002300F015FF4FF04F
:103DA000FF35CAE9020189E6DDE90689EFE600BFD1
:103DB0000000601A61B4D03D7370032E8A19A33BD2
:103DC0000000002E8A19A33BC14920259A837B3924
:103DD0003163621A61B4D03DFB21F93FFFFFFFFF61
:103DE0002DE9F04F21F00046B6F1795F85B00C4621
:103DF00092469B4605466BDA01F048FB002800F02E
:103E0000E8802A4623462846214601F08FF874A30D
:103E1000D3E900238046894601F088F872A3D3E9EC
:103E2000002300F0D1FE42464B4601F07FF870A31C
:103E3000D3E9002300F0C6FE42464B4601F076F877
:103E40006DA3D3E9002300F0BFFE42464B4601F0CC
:103E50006DF86BA3D3E9002300F0B4FE42464B4655
:103E600001F064F868A3D3E9002300F0ADFE4246F8
:103E70004B4601F05BF8CDE900010022644B40465F
:103E8000494601F053F8DDE9002306460F46404657
:103E9000494601F04BF85246804689465B46284623
:103EA000214601F043F802460B464046494600F0E1
:103EB00089FE02460B463046394600F083FE024634
:103EC0000B460020534900F07DFE05B0BDE8F08FA1
:103ED00002460B4601F02AF841A3D3E900238046AD
:103EE000894601F023F840A3D3E9002300F06CFEDB
:103EF00042464B4601F01AF83DA3D3E9002300F0F7
:103F000061FE42464B4601F011F83BA3D3E9002382
:103F100000F05AFE42464B4601F008F838A3D3E9B8
:103F2000002300F04FFE42464B4600F0FFFF36A351
:103F3000D3E9002300F048FE4B46424600F0F6FF6E
:103F4000354B9E42CDE9000197DD344B9E424FF048
:103F5000000238DCA6F5001300202E4916461F4645
:103F600000F030FECDE902010022294B40464946CF
:103F700000F0DCFF32463B4600F024FEDDE9002382
:103F800006460F464046494600F0D0FF524680465E
:103F900089465B462846214600F0C8FF02460B468C
:103FA0004046494600F00EFE02460B463046394672
:103FB00000F008FE02460B46DDE9020100F002FEB9
:103FC00005B0BDE8F08F164B164FCDE90223002651
:103FD000CAE71049002005B0BDE8F08FAFF30080BC
:103FE000D43888BEE9FAA8BDC4B1B4BD9EEE213E66
:103FF000AD529C804F7E923E9015CB19A001FA3EA7
:104000007751C1166CC1563F4C5555555555A53F76
:104010000000E03F0000F03F3233D33F0000E93FB3
:104020000000E73F0000D23F2DE9F04FADF51D7DC8
:10403000784CA69E784D54F8264009942646D41E06
:1040400085FB0475E417C4EBA50424EAE4741D465B
:104050000B93631CA3EB8303013D02EBC3030893A3
:104060002B460D940295651BF41804900A9116D402
:104070002C44013422AEA79F08E057F8250000F039
:10408000EFFE0135A542E6E9020108D0002DF4DA81
:10409000013500200021A542E6E90201F6D1099B85
:1040A000002B2FDB099BDDF8089074AA02EBC30BF1
:1040B0000DF5E47A029B002BC0F295810B9BC3EBBC
:1040C000090824AB03EBC808049BA3F1080524AB43
:1040D00003EBC90400260027F5E9022374E8020176
:1040E00000F024FF02460B463046394600F06CFDD6
:1040F000444506460F46EFD1EAE90267DA4509F181
:104100000109D7D1099D05F18043023B9B001A1D8F
:1041100010A90A440B440F920E939CAB03EBC5030A
:10412000002D53E928672BDD9CAB03EBC504A83CAD
:104130000DF13C0A0DF5E47B0022384B3046394640
:1041400000F0F4FE01F0A2F900F08AFE0022344BE8
:104150008046894600F0EAFE02460B463046394664
:1041600000F030FD01F092F974E802234AF8040FE0
:104170004946404600F028FD5C4506460F46DBD127
:10418000089C30463946224600F092FC00224FF04F
:104190007F5306460F4600F0C9FE00F0F9FB0022EF
:1041A000204B00F0C3FE02460B463046394600F075
:1041B00009FD0F46064601F069F9814600F050FE00
:1041C00002460B463046394600F0FCFC002C064601
:1041D0000F4640F3EF80691E10AAC4F1180352F88D
:1041E000212042FA03F000FA03F3D31A10AAC4F113
:1041F000170842F82130814443FA08F8B8F1000F5B
:104200003DDD002D09F1010940F3D482002214465E
:104210000FA911E098A40000ABAAAA2A0000703EE2
:104220000000704100002040C3F180700BB10860B5
:104230000124013295420DDD51F8043F002CF3D0EA
:10424000C3F1FF13013203F57F4395420B604FF03A
:104250000104F1DC089B002B0DDD012B00F0B28086
:10426000022B08D16A1E10AB10A953F82230C3F3F9
:10427000150341F82230B8F1020F00F082800022CD
:1042800000233046394601F0B9F8002800F05C827E
:10429000099B05F1FF3B5B4510DC05F1804310AA4B
:1042A000013B0F9802EB8303002253F80419834269
:1042B00042EA0102F9D1002A40F0B280099B10AA1B
:1042C000013B52F82330002B40F072820E9A0123FA
:1042D00052F8041901330029FAD0E9186A1C8A42FD
:1042E0000C9149DC0D990B985118DB0001F18041CC
:1042F0000593A79B05440139E80003EB810A24AB31
:10430000D20003EB000B74AB13440193A2F108033A
:10431000069007934FF000095AF8040F00F0A0FD33
:10432000029B002BEBE8020128DB069B03EB090450
:10433000079B09EB030824AB1C449844049B00260C
:10434000A3F108050027F5E9022374E8020100F053
:10435000EDFD02460B463046394600F035FC44453B
:1043600006460F46EFD1019BE3E802670193059BE8
:1043700009F108099945CFD10C9DCEE6002600270A
:10438000F1E732463B460020AF4900F01BFC0646F1
:104390000F46002C3FF473AF089AAB49002000F0A1
:1043A00087FB02460B463046394600F00BFC0646BA
:1043B0000F4664E710D16B1E10AA52F823304FEA63
:1043C000E3581BE76A1E10AB10A953F82230C3F361
:1043D000160341F822304EE700229C4B01F02CF8E6
:1043E00058B980464BE700260027EAE90267DA451C
:1043F00009F101097FF45EAE84E6002D09F101099F
:10440000C8BF4FF002083FF701AF32463B460020DD
:104410008D4900F0D7FB4FF0020806460F462EE705
:1044200010AB089A53F82B30CDF81490183ACDF809
:10443000048008926BB90BF18043013B10A901EB9A
:10444000830353F804190BF1FF3B183A0029F8D005
:104450000892089A7C49002000F02AFBBBF1000F6B
:1044600004460D46C0F2B6814FEACB030DF5E8785D
:1044700010AA02EB8B0608EB03090493043609F13A
:10448000080756F8040D00F0EBFC22462B4600F01E
:104490004DFD002267E902016D4B2046294600F0E0
:1044A00045FDB84504460D46EBD10DF5987A4B46CF
:1044B000CDF808A0DDF824A0CDF818B04FF0000921
:1044C0009B46BAF1000FC0F22881DFF888815D4673
:1044D0005BA3D3E9002300260027002403E0A145C5
:1044E00010DBF8E90223F5E8020100F01FFD0246A7
:1044F0000B463046394600F067FB0134A2450646BC
:104500000F46ECDA029B03EBC903ABF1080BC3E9DE
:10451000006772AB5B4509F10109D2D1A69BDDF8BA
:1045200018B0DDF808A0032B00F28380DFE813F059
:10453000D300940094000400BBF1000F40F35481B9
:10454000049BCDF808B00AEB0308D8E90067D3460E
:1045500058E9029A32463B464846514600F034FB41
:1045600004460D4602460B464846514600F02AFBDB
:1045700032463B4600F028FBC8E9000168E90245E5
:10458000C34526462F46E3D1DA46DDF808B0BBF135
:10459000010F40F32981049B5344D3E900679846F7
:1045A00099460DF59C7B59E902343046CDE9023439
:1045B0001A463946234600F007FB04460D460246DC
:1045C0000B46DDE9020100F0FDFA32463B4600F001
:1045D000FBFAC9E9000169E90245CB4526462F46A9
:1045E000E1D1002308F108081D4650AC18462946C1
:1045F00078E9022300F0E8FA444503460D46F5D178
:10460000019A002A00F0D8800A9FDAF80440DAF80C
:104610000C20DAF80010DAF808003B6105F10045DB
:1046200004F1004402F100437D617C60FB6039606D
:10463000B860059B03F007000DF51D7DBDE8F08F08
:1046400000000040FB21F93F0000F03F0000E03F88
:104650000000703EA8A40000049C002608345444C6
:1046600033463046194674E9022300F0ADFA54454A
:1046700006460B46F5D1019A30461946002A4FD01E
:104680000A9803F10044324644600660DAE900010A
:1046900000F098FABBF1000F02460B460DDD012435
:1046A00010461946FAE9022300F08EFA0134A345B8
:1046B00002460B46F4DA019909B103F100431946A9
:1046C0000A9B1046C3E90201059B03F007000DF5A4
:1046D0001D7DBDE8F08F049B002208339A441346E9
:1046E000104619467AE9022300F06EFA0BF1FF3BFF
:1046F000BBF1FF3F02460B46F2D1019909B103F12C
:10470000004319460A9B1046C3E90001059B03F0CC
:1047100007000DF51D7DBDE8F08F00260027F1E6AE
:104720000A9B3246C3E900010B46DAE9000100F0BA
:1047300049FABBF1000F02460B46B0DC19460A9B52
:104740001046C3E90201BFE7089BCDF814905A4216
:1047500030463946CDF8048000F0AAF900222C4BEF
:1047600006460F4600F068FE002840D00022294B84
:104770003046394600F0DAFB00F088FE044600F0CF
:104780006FFB0022224B00F0D1FB0B46024639465C
:10479000304600F017FA00F079FE089B183305F157
:1047A000010B089310AB43F8250043F82B4050E66B
:1047B000012392E500244DE518462946DAE9002355
:1047C000DAE902450A9FC7E90401C7E90023C7E9FE
:1047D00002452EE7A69B032B3FF62BAFDFE803F045
:1047E000151010020DF5987A00231D4608E7304693
:1047F000394600F04BFE10ABAB4643F8250028E6E7
:10480000002633460DF5987A35E70022134674E703
:10481000000070410000703E2DE9F04F21F000468D
:10482000B6F1795F85B00C4690469946054604DAA4
:1048300000F02CFE002800F085802A4623462846FA
:10484000214600F073FB06460F4602460B462846FB
:10485000214600F06BFB3EA3D3E9002382468B4642
:104860003046394600F062FB3BA3D3E9002300F059
:10487000A9F932463B4600F059FB39A3D3E900239E
:1048800000F0A2F932463B4600F050FB36A3D3E9D4
:10489000002300F097F932463B4600F047FB34A373
:1048A000D3E9002300F090F90E9BCDE900019BB302
:1048B0000022334B4046494600F038FBDDE9002337
:1048C000CDE902015046594600F030FB02460B4646
:1048D000DDE9020100F076F932463B4600F026FBA6
:1048E00042464B4600F06EF923A3D3E90023064667
:1048F0000F465046594600F019FB02460B4630461B
:10490000394600F061F902460B462846214600F080
:1049100059F905B0BDE8F08F02460B4630463946DE
:1049200000F004FB14A3D3E9002300F04BF9524636
:104930005B4600F0FBFA2A46234600F045F905B035
:10494000BDE8F08F2846214605B0BDE8F08F00BFD6
:104950007CD5CF5A3AD9E53DEB9C2B8AE6E55A3E09
:104960007DFEB157E31DC73ED561C119A0012A3FA5
:10497000A6F810111111813F495555555555C53FA0
:104980000000E03F21F00041704700BFFFFFFFFF44
:10499000C1F30A522DE9F843A2F2FF36132E0B465B
:1049A0000D460446884607461CDC002E3FDB3A4A8B
:1049B00042FA06F901EA09020243864617D034A3F7
:1049C000D3E9002300F000F90022002300F03EFDAF
:1049D00020B1002D40DB28EA09050027384629468A
:1049E000BDE8F883332E06DDB6F5806F2FD0204664
:1049F0001946BDE8F883A2F213424FF0FF3929FAB5
:104A000002F910EA090FF2D021A3D3E9002300F044
:104A1000DBF80022002300F019FD0028DED0002D75
:104A200020DB454627EA090738462946D8E718A378
:104A3000D3E9002300F0C8F80022002300F006FDAF
:104A40000028CBD0002D18DB00273D46C6E70246E4
:104A50000B4600F0B9F8CCE74FF4801343FA06F6A2
:104A6000B044B8E7142E10D00123C6F1340603FA7F
:104A700006F6371928BF9844D3E725F00042074BC4
:104A8000224318BF1D460027A8E705F10108C8E723
:104A90009C7500883CE4377EFFFF0F000000F0BFEC
:104AA0000020704700200149704700BF0000F87FD8
:104AB000F8B5C1F30A5604460D460B46174606BB29
:104AC00021F00043034325D00022354B00F02EFA9D
:104AD000344A974204460D460B462ADBC1F30A5678
:104AE000363E3E4440F2FE72964228DC002E12DD35
:104AF00023F0FF4323F4E00343EA0655204629460A
:104B0000F8BD40F2FF729642EBD102460B4600F030
:104B10005BF8F8BDF8BD16F1350F1DDA4CF25033D5
:104B20009F4222462B4625DC19A1D1E9000100F065
:104B30003DF817A3D3E9002300F0F8F9F8BD2246A9
:104B40002B4615A1D1E9000100F030F812A3D3E9FA
:104B5000002300F0EBF9F8BD23F0FF4323F4E0035A
:104B6000363643EA06552046294600220E4B00F011
:104B7000DDF9F8BD08A1D1E9000100F017F806A39E
:104B8000D3E9002300F0D2F9F8BD00BFAFF30080F5
:104B900059F3F8C21F6EA5019C7500883CE4377E6E
:104BA00000005043B03CFFFF0000903C03F0004386
:104BB00021F0004242EA0301704700BF81F000414A
:104BC00002E000BF83F0004330B54FEA41044FEAF2
:104BD000430594EA050F08BF90EA020F1FBF54EA8D
:104BE000000C55EA020C7FEA645C7FEA655C00F029
:104BF000E2804FEA5454D4EB5555B8BF6D420CDDFA
:104C00002C4480EA020281EA030382EA000083EA7C
:104C1000010180EA020281EA0303362D88BF30BD1C
:104C200011F0004F4FEA01314FF4801C4CEA113172
:104C300002D0404261EB410113F0004F4FEA0333D1
:104C40004CEA133302D0524263EB430394EA050F5C
:104C500000F0A780A4F10104D5F1200E0DDB02FACB
:104C60000EFC22FA05F2801841F1000103FA0EF25F
:104C7000801843FA05F359410EE0A5F120050EF125
:104C8000200E012A03FA0EFC28BF4CF0020C43FA56
:104C900005F3C01851EBE37101F0004507D54FF063
:104CA000000EDCF1000C7EEB00006EEB0101B1F5B3
:104CB000801F1BD3B1F5001F0CD349085FEA3000F9
:104CC0004FEA3C0C04F101044FEA445212F5800F04
:104CD00080F09A80BCF1004F08BF5FEA500C50F1A1
:104CE000000041EB045141EA050130BD5FEA4C0C84
:104CF000404141EB010111F4801FA4F10104E9D10D
:104D000091F0000F04BF01460020B1FA81F308BF03
:104D10002033A3F10B03B3F120020CDA0C3208DDCF
:104D200002F1140CC2F10C0201FA0CF021FA02F1AA
:104D30000CE002F11402D8BFC2F1200C01FA02F11A
:104D400020FA0CFCDCBF41EA0C019040E41AA2BF3F
:104D500001EB0451294330BD6FEA04041F3C1CDA07
:104D60000C340EDC04F11404C4F1200220FA04F027
:104D700001FA02F340EA030021FA04F345EA0301D1
:104D800030BDC4F10C04C4F1200220FA02F001FA93
:104D900004F340EA0300294630BD21FA04F0294615
:104DA00030BD94F0000F83F4801306BF81F48011AE
:104DB0000134013D4EE77FEA645C18BF7FEA655C21
:104DC00029D094EA050F08BF90EA020F05D054EAF3
:104DD000000C04BF1946104630BD91EA030F1EBFF8
:104DE0000021002030BD5FEA545C05D140004941FC
:104DF00028BF41F0004130BD14F580043CBF01F5EF
:104E0000801130BD01F0004545F0FE4141F47001D4
:104E10004FF0000030BD7FEA645C1ABF19461046AF
:104E20007FEA655C1CBF0B46024650EA013406BFB0
:104E300052EA033591EA030F41F4002130BD00BF6F
:104E400090F0000F04BF0021704730B54FF480642C
:104E500004F132044FF000054FF0000150E700BFAD
:104E600090F0000F04BF0021704730B54FF480640C
:104E700004F1320410F0004548BF40424FF00001F9
:104E80003EE700BF42004FEAE2014FEA31014FEA3C
:104E900002701FBF12F07F4393F07F4F81F060518B
:104EA000704792F0000F14BF93F07F4F704730B5FA
:104EB0004FF4607401F0004521F0004120E700BF8D
:104EC00050EA010208BF704730B54FF000050AE014
:104ED00050EA010208BF704730B511F0004502D515
:104EE000404261EB41014FF4806404F132045FEA17
:104EF000915C3FF4DCAE4FF003025FEADC0C18BFBC
:104F000003325FEADC0C18BF033202EBDC02C2F1B1
:104F1000200300FA03FC20FA02F001FA03FE40EA43
:104F20000E0021FA02F11444C1E600BF70B54FF043
:104F3000FF0C4CF4E06C1CEA11541DBF1CEA135525
:104F400094EA0C0F95EA0C0F00F0DEF82C4481EA8D
:104F5000030621EA4C5123EA4C5350EA013518BFAD
:104F600052EA033541F4801143F4801338D0A0FB9A
:104F700002CE4FF00005E1FB02E506F00042E0FB47
:104F800003E54FF00006E1FB03569CF0000F18BF4D
:104F90004EF0010EA4F1FF04B6F5007F64F54074F5
:104FA00004D25FEA4E0E6D4146EB060642EAC62188
:104FB00041EA55514FEAC52040EA5E504FEACE2EF5
:104FC000B4F1FD0C88BFBCF5E06F1ED8BEF1004FF8
:104FD00008BF5FEA500E50F1000041EB045170BD74
:104FE00006F0004646EA010140EA020081EA0301B8
:104FF000B4EB5C04C2BFD4EB0C0541EA045170BDB4
:1050000041F480114FF0000E013C00F3AB8014F12D
:10501000360FDEBF002001F0004170BDC4F1000476
:10502000203C35DA0C341BDC04F11404C4F12005F7
:1050300000FA05F320FA04F001FA05F240EA020052
:1050400001F0004221F0004110EBD37021FA04F688
:1050500042EB06015EEA430E08BF20EAD37070BD42
:10506000C4F10C04C4F1200500FA04F320FA05F0A1
:1050700001FA04F240EA020001F0004110EBD370A3
:1050800041F100015EEA430E08BF20EAD37070BD13
:10509000C4F1200500FA05F24EEA020E20FA04F3EC
:1050A00001FA05F243EA020321FA04F001F000419B
:1050B00021FA04F220EA020000EBD3705EEA430E0C
:1050C00008BF20EAD37070BD94F0000F0FD101F03B
:1050D0000046400041EB010111F4801F08BF013C74
:1050E000F7D041EA060195F0000F18BF704703F0B2
:1050F0000046520043EB030313F4801F08BF013D39
:10510000F7D043EA0603704794EA0C0F0CEA1355F4
:1051100018BF95EA0C0F0CD050EA410618BF52EAAE
:105120004306D1D181EA030101F000414FF00000B4
:1051300070BD50EA410606BF1046194652EA4306C2
:1051400019D094EA0C0F02D150EA013613D195EA36
:105150000C0F05D152EA03361CBF104619460AD17E
:1051600081EA030101F0004141F0FE4141F4700188
:105170004FF0000070BD41F0FE4141F4780170BD78
:1051800070B54FF0FF0C4CF4E06C1CEA11541DBFDD
:105190001CEA135594EA0C0F95EA0C0F00F0A7F8DF
:1051A000A4EB050481EA030E52EA03354FEA01310C
:1051B00000F088804FEA03334FF0805545EA13131F
:1051C00043EA12634FEA022245EA111545EA1065E7
:1051D0004FEA00260EF000419D4208BF964244F17E
:1051E000FD0404F5407402D25B084FEA3202B61A9D
:1051F00065EB03055B084FEA32024FF480104FF471
:10520000002CB6EB020E75EB030E22BFB61A7546E4
:1052100040EA0C005B084FEA3202B6EB020E75EB77
:10522000030E22BFB61A754640EA5C005B084FEADF
:105230003202B6EB020E75EB030E22BFB61A7546AC
:1052400040EA9C005B084FEA3202B6EB020E75EBB7
:10525000030E22BFB61A754640EADC0055EA060E78
:1052600018D04FEA051545EA16754FEA06164FEABB
:10527000C30343EA52734FEAC2025FEA1C1CC0D167
:1052800011F4801F0BD141EA00014FF000004FF0F4
:10529000004CB6E711F4801F04BF01430020B4F1B5
:1052A000FD0C88BFBCF5E06F3FF6AFAEB5EB030C6D
:1052B00004BFB6EB020C5FEA500C50F1000041EB6A
:1052C000045170BD0EF0004E4EEA113114EB5C0437
:1052D000C2BFD4EB0C0541EA045170BD41F480110A
:1052E0004FF0000E013C90E645EA060E8DE60CEA12
:1052F000135594EA0C0F08BF95EA0C0F3FF43BAF2F
:1053000094EA0C0F0AD150EA01347FF434AF95EAE5
:105310000C0F7FF425AF104619462CE795EA0C0FC9
:1053200006D152EA03353FF4FDAE1046194622E796
:1053300050EA410618BF52EA43067FF4C5AE50EA70
:1053400041047FF40DAF52EA43057FF4EBAE12E760
:105350004FF0FF3C06E000BF4FF0010C02E000BF41
:105360004FF0010C4DF804CD4FEA410C7FEA6C5C24
:105370004FEA430C18BF7FEA6C5C1BD001B050EAC7
:10538000410C0CBF52EA430C91EA030F02BF90EAB2
:10539000020F0020704710F1000F91EA030F58BF71
:1053A000994208BF90422CBFD8176FEAE37040F0D3
:1053B000010070474FEA410C7FEA6C5C02D150EA71
:1053C000013C07D14FEA430C7FEA6C5CD6D152EA2C
:1053D000033CD3D05DF8040B704700BF84461046F1
:1053E00062468C461946634600E000BF01B5FFF7F0
:1053F000B7FF002848BF10F1000F01BD4DF808EDC0
:10540000FFF7F4FF0CBF012000205DF808FB00BF90
:105410004DF808EDFFF7EAFF34BF012000205DF8EA
:1054200008FB00BF4DF808EDFFF7E0FF94BF012037
:1054300000205DF808FB00BF4DF808EDFFF7CEFF38
:1054400094BF012000205DF808FB00BF4DF808ED77
:10545000FFF7C4FF34BF012000205DF808FB00BF48
:105460004FEA410C7FEA6C5C02D150EA013C0AD160
:105470004FEA430C7FEA6C5C02D152EA033C02D152
:105480004FF0000070474FF0010070474FEA4102B3
:1054900012F5001215D211D56FF47873B3EB625286
:1054A00012D94FEAC12343F0004343EA505311F0AD
:1054B000004F23FA02F018BF404270474FF000003F
:1054C000704750EA013005D111F0004008BF6FF07D
:1054D000004070474FF00000704700BF4FEA4102A4
:1054E000B2F1E04324BFB3F5001CDCF1FE5C0DD942
:1054F00001F0004C4FEAC0024CEA5070B2F1004F8C
:1055000040EB830008BF20F00100704711F0804F8E
:1055100021D113F13872BCBF01F00040704741F453
:1055200080114FEA5252C2F11802C2F1200C10FA57
:105530000CF320FA02F018BF40F001004FEAC1233B
:105540004FEAD32303FA0CFC40EA0C0023FA02F3DF
:105550004FEA4303CCE77FEA625307D150EA0133B5
:105560001EBF4FF0FE4040F44000704701F0004085
:1055700040F0FE4040F40000704700BF80F0004063
:1055800002E000BF81F0004142001FBF5FEA41031B
:1055900092EA030F7FEA226C7FEA236C6AD04FEA1B
:1055A0001262D2EB1363C1BFD21841404840414060
:1055B000B8BF5B42192B88BF704710F0004F40F412
:1055C000000020F07F4018BF404211F0004F41F42E
:1055D000000121F07F4118BF494292EA030F3FD0FA
:1055E000A2F1010241FA03FC10EB0C00C3F120030D
:1055F00001FA03F100F0004302D5494260EB40009C
:10560000B0F5000F13D3B0F1807F06D340084FEA06
:10561000310102F10102FE2A51D2B1F1004F40EBFB
:10562000C25008BF20F0010040EA03007047490063
:1056300040EB000010F4000FA2F10102EDD1B0FA2E
:1056400080FCACF1080CB2EB0C0200FA0CF0AABF23
:1056500000EBC25052421843BCBFD04018437047C1
:1056600092F0000F81F4000106BF80F400000132C7
:10567000013BB5E74FEA41037FEA226C18BF7FEA9E
:10568000236C21D092EA030F04D092F0000F08BFE0
:105690000846704790EA010F1CBF0020704712F0C7
:1056A0007F4F04D1400028BF40F00040704712F106
:1056B00000723CBF00F50000704700F0004343F06B
:1056C000FE4040F4000070477FEA226216BF0846A1
:1056D0007FEA23630146420206BF5FEA412390EA64
:1056E000010F40F4800070474FF0000304E000BF5A
:1056F00010F0004348BF40425FEA000C08BF70470B
:1057000043F0964301464FF000001CE050EA0102CE
:1057100008BF70474FF000030AE000BF50EA0102E3
:1057200008BF704711F0004302D5404261EB4101D0
:105730005FEA010C02BF84460146002043F0B643F5
:1057400008BFA3F18053A3F50003BCFA8CF2083A1A
:10575000A3EBC25310DB01FA02FC634400FA02FC23
:10576000C2F12002BCF1004F20FA02F243EB02002A
:1057700008BF20F00100704702F1200201FA02FC8C
:10578000C2F1200250EA4C0021FA02F243EB02007F
:1057900008BF20EADC7070474FF0FF0C1CEAD052C3
:1057A0001EBF1CEAD15392EA0C0F93EA0C0F6FD084
:1057B0001A4480EA010C400218BF5FEA41211ED062
:1057C0004FF0006343EA501043EA5111A0FB01314E
:1057D0000CF00040B1F5000F3EBF490041EAD37123
:1057E0005B0040EA010062F17F02FD2A1DD8B3F19F
:1057F000004F40EBC25008BF20F00100704790F00E
:10580000000F0CF0004C08BF49024CEA502040EA5F
:1058100051207F3AC2BFD2F1FF0340EAC250704725
:1058200040F400004FF00003013A5DDC12F1190F63
:10583000DCBF00F000407047C2F10002410021FAD5
:1058400002F1C2F1200200FA02FC5FEA310040F1ED
:10585000000053EA4C0308BF20EADC70704792F066
:10586000000F00F0004C02BF400010F4000F013A9E
:10587000F9D040EA0C0093F0000F01F0004C02BF99
:10588000490011F4000F013BF9D041EA0C018FE708
:105890000CEAD15392EA0C0F18BF93EA0C0F0AD00E
:1058A00030F0004C18BF31F0004CD8D180EA010034
:1058B00000F00040704790F0000F17BF90F0004FCD
:1058C000084691F0000F91F0004F14D092EA0C0FAF
:1058D00001D142020FD193EA0C0F03D14B0218BF42
:1058E000084608D180EA010000F0004040F0FE4088
:1058F00040F40000704740F0FE4040F44000704724
:105900004FF0FF0C1CEAD0521EBF1CEAD15392EAA2
:105910000C0F93EA0C0F69D0A2EB030280EA010C92
:1059200049024FEA402037D04FF0805343EA11112B
:1059300043EA10130CF000408B4238BF5B0042F189
:105940007D024FF4000C8B4224BF5B1A40EA0C002E
:10595000B3EB510F24BFA3EB510340EA5C00B3EB60
:10596000910F24BFA3EB910340EA9C00B3EBD10F4E
:1059700024BFA3EBD10340EADC001B0118BF5FEAA0
:105980001C1CE0D1FD2A3FF650AF8B4240EBC250C9
:1059900008BF20F0010070470CF0004C4CEA50208A
:1059A0007F32C2BFD2F1FF0340EAC250704740F4D9
:1059B00000004FF00003013A37E792F0000F00F0CB
:1059C000004C02BF400010F4000F013AF9D040EA49
:1059D0000C0093F0000F01F0004C02BF490011F4DD
:1059E000000F013BF9D041EA0C0195E70CEAD153D5
:1059F00092EA0C0F08D142027FF47DAF93EA0C0FBC
:105A00007FF470AF084676E793EA0C0F04D14B029F
:105A10003FF44CAF08466EE730F0004C18BF31F051
:105A2000004CCAD130F000427FF45CAF31F000434B
:105A30007FF43CAF5FE700BF4FF0FF3C06E000BFE4
:105A40004FF0010C02E000BF4FF0010C4DF804CD07
:105A50004FEA40024FEA41037FEA226C18BF7FEA17
:105A6000236C11D001B052EA530C18BF90EA010F19
:105A700058BFB2EB030088BFC81738BF6FEAE170A8
:105A800018BF40F0010070477FEA226C02D15FEA44
:105A9000402C05D17FEA236CE4D15FEA412CE1D0B0
:105AA0005DF8040B704700BF844608466146FFE777
:105AB0000FB5FFF7C9FF002848BF10F1000F0FBD59
:105AC0004DF808EDFFF7F4FF0CBF012000205DF852
:105AD00008FB00BF4DF808EDFFF7EAFF34BF0120D7
