:1000000000800020BD0100004D25000019250000E2
:1000100019250000192500001925000019250000E8
:100020001925000019250000192500004D250000A4
:100030004D25000019250000A93500006D3600008F
:100040004D2500004D2500004D2500004D250000E8
:100050004D2500004D2500004D2500004D250000D8
:100060004D2500004D2500004D2500004D250000C8
:100070004D2500004D2500004D2500004D250000B8
:100080004D2500004D2500004D2500004D250000A8
:100090004D2500004D2500004D2500004D25000098
:1000A000511A00005D1A00004D2500004D2500008A
:1000B0004D2500004D2500004D2500004D25000078
:1000C0004D2500004D2500004D2500004D25000068
:1000D0004D2500004D2500004D2500004D25000058
:1000E0004D2500004D2500004D2500004D25000048
:1000F0004D250000C93700004D250000E5380000FF
:100100004D250000013A00004D2500004D2500005E
:100110004D2500004D2500004D2500004D25000017
:100120004D2500004D2500004D2500004D25000007
:100130004D2500004D2500004D2500004D250000F7
:100140004D2500004D2500004D2500004D250000E7
:10015000593700006D3700008137000095370000E7
:100160004D250000D52A00004D2500004D2500003A
:100170004D2500004D2500004D2500004D250000B7
:100180004D2500004D2500004D2500004D250000A7
:100190004D2500004D2500004D2500004D25000097
:1001A0004D2500004D2500004D2500004D25000087
:1001B0004D2500004D2500004D250000564B4CF20A
:1001C000205210B51A804DF628121A8000BF00BFC9
:1001D00002F0C0F9514B4FF010621A60504A9A6019
:1001E000504ADA60504A136813F4807301BF4F49D4
:1001F0000B604FF4A85313604D4B4E491A7810070B
:1002000042BF1A7842F008021A704B4B2A221A7029
:100210004A4A4B4B8B4204D252F8040F43F8040B6A
:10022000F8E7484B484A0021934202D243F8041BA6
:10023000FAE7464A4648002350F8231042F82310B4
:1002400001336F2BF8D1434B434A802103F8011B44
:100250009342FBD1414B3D4A1A60414B8A221A70AE
:10026000A3F5805324225A70A0221A709A7991071C
:10027000FCD59A79D206FCD43A4A937903F00C0360
:10028000082B384BF9D105221A7143225A719A79F9
:100290009406FCD533498A79324B5006FBD5324A55
:1002A0004FF0817111600521516020221A709A79F6
:1002B00002F00C020C2AFAD12C4B2D4A1A602D4B5D
:1002C0002D4A1A6000225A60072243F8042C2B4A58
:1002D000C3F80C2D62B602F0E1FA144B1B68DA0782
:1002E00005D5274802F0BCF9264B274A1A60274B50
:1002F0001B785B0609D5234C234B22689A4204D114
:100300001F4802F0ADF90023236005F025FD02F03F
:1003100027F902F03DF8FEE70E200540308004404A
:10032000823F04000100002B10D0034014D0034092
:1003300002D007409898FF1F00E007402CA800005B
:100340002087FF1F9898FF1F889EFF1F0082FF1FB6
:100350000000000000E400E05FE400E008ED00E0E1
:1003600000500640004006404480044004800440A1
:10037000C010050014E000E03F190100000020203B
:100380001FD7A25B1CE00340A5C3945A00F00740AE
:10039000FFFFFFFFFFFFFFFFFFFFFFFFFFFFFFFF6D
:1003A000FFFFFFFFFFFFFFFFFFFFFFFFFFFFFFFF5D
:1003B000FFFFFFFFFFFFFFFFFFFFFFFFFFFFFFFF4D
:1003C000FFFFFFFFFFFFFFFFFFFFFFFFFFFFFFFF3D
:1003D000FFFFFFFFFFFFFFFFFFFFFFFFFFFFFFFF2D
:1003E000FFFFFFFFFFFFFFFFFFFFFFFFFFFFFFFF1D
:1003F000FFFFFFFFFFFFFFFFFFFFFFFFFFFFFFFF0D
:10040000FFFFFFFFFFFFFFFFFFFFFFFFDEF9FFFF23
:1004100010B5054C237833B9044B13B10448AFF33E
:1004200000800123237010BD9898FF1F000000007A
:1004300028A80000084B10B51BB108490848AFF3C5
:1004400000800848036803B910BD074B002BFBD0A0
:10045000BDE81040184700BF000000009C98FF1F37
:1004600028A800009898FF1F0000000010B504465F
:10047000006908B105F0A0FC204610BDF0B50D4F95
:10048000002600240025C0E90245C0E90667C0E94E
:1004900008670023437083700278591CDBB29A42CC
:1004A00006D9026902EBC303C3E900450B46F3E733
:1004B000F0BD00BF0000F87F10B504460170C80011
:1004C00005F072FC206100B920702046FFF7D6FFCE
:1004D000204610BD2DE9F041D0F8108004461646A4
:1004E0001F46B8F1000F3DD0857808EBC505D5E96A
:1004F0000023D0E9020104F07DFCC4E90201C5E952
:100500000067A57808EBC508D8E90023D4E9020103
:1005100004F072FC013594F80080EDB24545A570F9
:10052000657808BF0023C4E9020108BFA37015B9AC
:10053000C4E9086706E0D4E906233046394605F0E9
:100540007FF810B1C4E9066708E0D4E90823304613
:10055000394605F093F808B1C4E90867A84584BF97
:1005600001356570BDE8F0812DE9F04145788046A0
:10057000F5B1002400260027E3B29D420DD9D8F83A
:10058000103003EBC40330463946D3E9002304F0AE
:1005900033FC013406460F46EEE7284604F078FDAA
:1005A00002460B463046394604F002FFBDE8F081B2
:1005B00000200149BDE8F0810000F87F2DE9F341FA
:1005C0001D4F1E4D1E4E8046386900F0ADFF1D4B7D
:1005D0002870002483F80080347008F1FF38A045AB
:1005E00007D9386900F0A0FF142C305501D0013430
:1005F000F5E73444002363702B780C2B11D8DFE827
:1006000003F007101010101010101010090B0D003F
:10061000012204E00A2202E0082200E009220A4B3B
:100620001A600A4B1B680193094B019A1A60002358
:100630002B7002B0BDE8F081709BFF1F8C9AFF1FEA
:10064000949AFF1F8D9AFF1F2088FF1FA89BFF1FF2
:10065000B09AFF1F134B2DE9F0411C68204605F0AE
:100660000FF9114BD3F80080104B1F680546002688
:1006700046450ADA3946284605F056F90146284625
:1006800005F048F802360546F2E7284605F012FB69
:10069000074B201A1860074B1B68E41A064B1C60B6
:1006A000BDE8F0810888FF1F4888FF1F2888FF1FCA
:1006B000B498FF1F4488FF1FC098FF1F134B10B54D
:1006C0000446186805F0DCF80146204605F022F8DB
:1006D0000F4B0446186805F0D3F80146204605F094
:1006E000D7F90C4B0446186805F0CAF801462046B5
:1006F00005F01AF9084B0446186805F0C1F80146E0
:10070000204605F009F805F0D5FA10BD509BFF1FF3
:10071000B498FF1FC098FF1F4488FF1F38B5C5B2AB
:100720000C462846E4B2012101F0AAFF204601212F
:1007300001F0A6FF2846002101F0D0FF204600214D
:10074000BDE8384001F0CABF38B5C5B20C462846EE
:10075000E4B2012101F0C2FF2046012101F0BEFFF9
:100760002846002101F08CFF20460121BDE83840D9
:1007700001F086BF38B5C5B20C462846E4B2012167
:1007800001F0ACFF2046012101F0A8FF284601211D
:1007900001F076FF20460021BDE8384001F070BF2F
:1007A0002DE9F04F524D534B697BDFF880B1DFF8F4
:1007B00080A1DFF88091DFF880814F4F89B001245C
:1007C0000026039304940296019400962869224619
:1007D0000C2300F04FFE2B69484AC3F85C22484ABC
:1007E000C3F86022FFF736FF4648474DFFF746FE45
:1007F0004648FFF743FE4648FFF740FE304601F00B
:1008000037FD21460D2001F069FF31460D2001F032
:1008100037FF404B3146187801F060FF3E4B3146C0
:10082000187801F05BFF3D4B3146187801F056FF18
:100830002146287801F052FF394B0793187821465A
:1008400001F04CFF2146287801F048FF354A069216
:100850001078214601F042FF21469BF8000001F08C
:100860003DFF21469AF8000001F038FF214699F833
:10087000000001F033FF214698F8000001F02EFF40
:100880002146387801F02AFF274B2146187801F0DD
:1008900025FF2146287801F0F3FE069A21461078BC
:1008A00001F0EEFE079B3146187801F0E9FE214683
:1008B0009BF8000001F0E4FE21469AF8000001F0E8
:1008C000DFFE214699F8000001F0DAFE214698F893
:1008D000000001F0D5FE2146387801F0D1FE124B20
:1008E0001878214609B0BDE8F04F01F0C9BE00BF3D
:1008F000709BFF1F801A06000088FF1FBD050000C7
:1009000069100000D89AFF1F1888FF1F009BFF1F67
:10091000289BFF1F5C88FF1F6488FF1F3888FF1F0C
:100920004C88FF1F3088FF1F6088FF1F2488FF1F2F
:100930001C88FF1F5088FF1F4088FF1F964B2DE922
:10094000F34719689548964E964C974D01F006FA74
:10095000964B7B221A707D225A7100225A709A702F
:10096000DA701A71924B187801F0AAFE914B306040
:10097000187801F0A5FE23682860032B56D037684D
:10098000012F06D1142001F073FF022323608A4B4C
:100990001F602B68012B07D1142001F069FF02238F
:1009A0002360854B03221A602368013B082B00F269
:1009B0000083DFE813F07B0109003B006401820043
:1009C000B4002501E301E7017B4B1A68012A1D46AB
:1009D0000BD17A4B19687A4B1868FFF7B5FE794B43
:1009E0001978794B187801F04BFE2B68032B0BD14B
:1009F000764B1968764B1868FFF7A6FE754B197889
:100A0000714B187801F03CFE734B0121187801F00E
:100A100037FE724B00251D60714B186804F030FFE3
:100A2000704B1860704B1D600323AFE16B4F6F4B31
:100A30003A681B68DFF8B0919A4213DADFF8A481B4
:100A40006B4BD8F800A01968504604F06DFF0146C2
:100A5000504604F05FFEC8F80000FFF72FFEC9F80B
:100A6000000003E0634B1B68C9F80030DFF88881A1
:100A7000012198F8000001F003FED9F80030182297
:100A8000534301D0013BFDD1002198F8000001F053
:100A9000F7FDD9F800301822534301D0013BFDD1B6
:100AA0003B6801333B603368012B00F082822B6886
:100AB000012B00F07E82042368E13F4B1A68012A73
:100AC0001D460BD13D4B19683D4B1868FFF73CFEA6
:100AD0003C4B19783C4B187801F0D2FD2B68032B66
:100AE0000BD13A4B19683A4B1868FFF72DFE394B7A
:100AF0001978354B187801F0C3FD374B0121187870
:100B000001F0BEFD354B00251D60354B186804F023
:100B1000B7FE344B1860344B1D60062336E12F4B73
:100B2000324A1E681268304F96421D4612DADFF8CC
:100B3000B4802F4BD8F800901968484604F0F4FEB2
:100B40000146484604F0E6FDC8F80000FFF7B6FD90
:100B5000386002E0274B1B683B6001362E60264D53
:100B60000121287801F08CFD3B681822534301D005
:100B7000013BFDD10021287801F082FD3B6818225D
:100B8000534301D0013BFDD11C4A1368013B136064
:100B9000002B90D00DE200BFB09AFF1FCC98FF1F32
:100BA000C09AFF1F2088FF1FC49AFF1FC498FF1F11
:100BB0005C88FF1F6488FF1FBC9AFF1F6088FF1FAF
:100BC0000088FF1FA89AFF1F3088FF1F1C88FF1F87
:100BD0002488FF1F0488FF1F4C88FF1FBC98FF1F3D
:100BE0000888FF1FAC9AFF1F909AFF1F4888FF1FBD
:100BF0002888FF1F4488FF1F1888FF1FB49AFF1F13
:100C0000984B994F994E9A4D00221A60994B18783B
:100C100001F052FB984B3860187801F04DFB974B70
:100C20003060187801F048FB39682A68944B91428B
:100C300018601F4605DD934B1968934B1868FFF742
:100C400083FD32682B689A4205DD904B1968904B02
:100C50001868FFF779FD3A682B689A4205DD8D4BDD
:100C600019688D4B1868FFF76FFD8C4B187801F0F1
:100C700027FD8B4B0128186040F0878099E1794B64
:100C800000211960874B187801F0FAFC7D4B196838
:100C90007D4B1868FFF742FD7E4B19687E4B186844
:100CA000FFF73CFD804B013BFDD16EE0714B6E4F79
:100CB00018786E4E724D01F0FFFA6F4B386018785D
:100CC00001F0FAFA6D4B3060187801F0F5FA2860FF
:100CD000386804F0DDF902460B467448FFF7FAFB6A
:100CE000306804F0D5F902460B467148FFF7F2FB75
:100CF000286804F0CDF902460B466E48FFF7EAFB80
:100D00002B68009333683A686B496C4801F0B1F87E
:100D10006648FFF729FC80463868894604F0B8F930
:100D200002460B464046494604F064F80022002380
:100D300080460C4604F0A2FCBA4608B904F100440F
:100D40005F4F386804F0A4F902460B46404621463E
:100D500004F094FC5B4C002835D05448FFF704FCA9
:100D6000594B80461868894604F092F902460B46B2
:100D70004046494604F082FC50B924E0534800F054
:100D800081FF02E0514800F0F1FE0123236010E1F1
:100D90004F4B1A6882B9DAF800104FF47A6332398F
:100DA000594340F2B63391FBF3F14A4B01F5FA6136
:100DB00089B2187801F0C2F8236801332360314BFF
:100DC0001968314B4BE03A48FFF7CEFB804630685C
:100DD000894604F05DF902460B464046494604F058
:100DE00009F8002200238146884604F047FC08B930
:100DF00008F10048386804F04BF902460B464846B3
:100E0000414604F03BFC002866D02948FFF7ACFBC4
:100E10002D4B80461868894604F03AF902460B4685
:100E20004046494604F02AFC002855D0284B1A6851
:100E30007AB931684FF47A633239594340F2B633A4
:100E400091FBF3F1234B01F5FA6189B2187801F0B7
:100E500075F82368013323600C4B19680C4B186834
:100E600086E000BFB49AFF1FCC9AFF1FD09AFF1FE5
:100E70002C88FF1F0C88FF1F1088FF1F1488FF1F7E
:100E8000D49AFF1F1C88FF1F2488FF1F4088FF1F64
:100E90005088FF1F6088FF1F0088FF1F3888FF1FD2
:100EA000B89AFF1F4C88FF1F007C9200D89AFF1F42
:100EB000009BFF1F289BFF1F089F0000288EFF1F1D
:100EC0003488FF1FC89AFF1F5488FF1F589BFF1FBD
:100ED000549BFF1F5888FF1F3748FFF745FB80468C
:100EE0002868894604F0D4F802460B464046494635
:100EF00003F080FF0022002380460E4604F0BEFB74
:100F000008B906F1004638682C4F04F0C1F80246D3
:100F10000B464046314604F0B1FB294E002833D041
:100F20002548FFF721FB274B80461868894604F0C7
:100F3000AFF802460B464046494604F09FFB18B303
:100F4000214B1A687AB929684FF47A6332395943C8
:100F500040F2B63391FBF3F11C4B01F5FA6189B213
:100F6000187800F0EBFF236839683068013323609C
:100F7000FFF700FC2368642B1BDD154B01221A6070
:100F8000144B00221A6014E0104B187801F062F83C
:100F9000114B1968114B1868FFF7C0FB104B19680B
:100FA000104B1868FFF7BAFB39683068FFF7B6FBDB
:100FB000E0E702B0BDE8F087289BFF1F6088FF1FB5
:100FC0000088FF1F5488FF1F549BFF1F5888FF1F76
:100FD000B898FF1FC89AFF1F1C88FF1F2488FF1F97
:100FE0004088FF1F5088FF1FF8B5164B164E196832
:100FF000164F1748174D184C00F0AEFD0E2117483C
:1010000000F052FE31783846FFF756FA3846144F52
:101010002A46214602F094FD31783846FFF74CFA13
:101020003846104F2A46214602F08AFD317838466C
:10103000FFF742FA2A4621463846BDE8F84002F05A
:101040007FBD00BF5888FF1F3C88FF1FD89AFF1F35
:10105000589BFF1FFC87FF1F6D040000CC98FF1FEB
:10106000009BFF1F289BFF1F13B5094C09492368EC
:1010700009484B70062200F033F8084B1B680193B7
:10108000074B019A1A600023236002B010BD00BF15
:10109000B898FF1FC498FF1F709BFF1FA89BFF1FDE
:1010A000B09AFF1F002070470369D3F83801D3F8C6
:1010B0003431C01A704770470269D2F84432B3F530
:1010C000817F09D8D2F84432581C1344C2F8440234
:1010D00083F83C1101207047012303710020704701
:1010E00070B50569D5F84432B3F5817F22D8D5F8BB
:1010F0004442D5F84432C4F581740134944238BF77
:10110000012205F59E7638BF027103F1FF3338BF27
:10111000224633448D18A94204D011F8014B03F83C
:10112000014FF8E70169D1F844321344C1F8443261
:10113000104670BD01230371002070BD38B50A4B05
:101140000360036993F84822022A044609D1D3F8C0
:10115000645235B1284600F06BFE0821284601F0A4
:1011600019FA204638BD00BF209F0000002210B5AC
:1011700002710273064A02604FF47A74054A846071
:101180004FF41B74417304FB0121016110BD00BFCA
:10119000209F00006888FF1FF8B5C3681B789B0676
:1011A00004460E4600F19780836880211970C36859
:1011B0001221197090F84932012B03D01AB980F826
:1011C000482200E01A46531E012B00F2868016B911
:1011D0004FF0807103E0012E03D14FF00071404BBE
:1011E0001960022A73D1D4F8645245B9082001F07D
:1011F000CFF92946074600F0C7FDC4F86472D4F859
:1012000064526DB12B79102B0AD1284600F010FEE4
:101210000821284601F0BEF90023C4F8643256E0E4
:1012200036BB2A682F48938B9BB243F00803938305
:101230002A792D4B02F1100143F8210053119B0034
:1012400003F1604303F5614302F01F02012101FA3B
:1012500002F21A602A68938B9BB243F002039383D5
:101260002B7903F1804303F5043396221E7026E0A8
:10127000012E25D12A681D48938B9BB243F00803A9
:1012800093832A79184B02F1100143F8210053117E
:101290009B0003F1604303F5614302F01F02964097
:1012A0002A681E60938B9BB243F0020393832B79D1
:1012B00003F1804303F5043300221A7097221A7059
:1012C000002384F85A32022384F8483205E00120D2
:1012D00084F84802F8BD0020F8BD0120F8BD00BF29
:1012E00000E100E0511A00000082FF1F5D1A0000BB
:1012F000F0B54FF47A74B1FBF4F3B2FBF4F21D4C89
:101300001B02B3FBF2F2002354F82350194EB2EB48
:10131000052F03DB0133372BF6D100E03BB35D1E15
:1013200056F8237056F82540A2EB0424002CA2EBBB
:101330000722B8BF6442002AB8BF5242944216DC6A
:101340000D4A4368525D1A7056F82530B1FBF3F32D
:10135000C0F84C32094B826999428FBF0423084B75
:10136000B1FBF3F1C9B28CBF13701170F0BD1D4613
:10137000E6E700BF3C9F000018A00000FF6BDC0206
:10138000001BB7002DE9F0479A469DF820308046B3
:101390000C4617461BB1C268127892060ED4BAF1F9
:1013A000000F40F2036240F2032540F264690CBF73
:1013B0004FF41975914624B9012F07D90020BDE8D3
:1013C000F087012CFAD1BA1E012AF6E753B398F838
:1013D0004B32002B98F84A320CBF00260226032B12
:1013E00020D8DFE803F0020910173146112001F080
:1013F00075F93146102013E03146122001F06EF9E4
:10140000314613200CE031461E2001F067F93146C9
:101410001D2005E031461F2001F060F931461A20F9
:1014200001F05CF934B91FB1012F13D10D4B0EE05F
:101430000D4B0CE0012C0DD1022F07D0032F09D149
:101440000A4BC3F80090C3F8049003E0084B1D60FA
:1014500043F8045C88F84A7288F84BA20120BDE882
:10146000F08700BF0CA0044004A0044000D004405A
:101470002CB0044073B504460D469DF8180021B900
:10148000274E316841F0400105E0012904D1244E86
:10149000316841F080013160002184F8511284F8F4
:1014A0004922616932B920230B7023681A70E369FD
:1014B0001A7015E0002814BF282220220A70216823
:1014C00001D0984201D95A0000E04200D2B20A701D
:1014D000E26920B198428CBF40005800C0B2107041
:1014E000002300939DF81C209DF8203029462046BB
:1014F000FFF748FF099A0B492046FFF7F9FE9DF8D0
:10150000282029462046FFF747FE94F84922A36881
:101510000AB9802200E0C0221A7002B070BD00BF7C
:101520003480044000512502D0F83421D0F83831FD
:101530009A423FBFD0F834315A1CC0F83421C01849
:1015400034BF90F830004FF0FF3070470069FFF76C
:10155000EBBFD0F83421D0F838319A423DBFD0F8F3
:101560003431C01890F830004FF0FF3070470069F8
:10157000FFF7EFBF38B5C16883680D781A78D2B22B
:1015800004469006EDB216D512F0100F94F85A22C8
:1015900008D0022A00F0CB8094F85A22032A40F0A7
:1015A000F080C4E0022A00F0718194F85A22032AE4
:1015B00040F095816AE115F0100F05F0400304D06A
:1015C00010200870002B00F0AE8003F0FF01002B0C
:1015D00056D094F851320A2B04D1D4F85C32002B47
:1015E00040F0268205F0040505F0FF03F5B109235C
:1015F00084F851320023C4F84432A368D0221A7010
:1016000023691B785B0884F85232D4F8603203B146
:101610009847D4F844320BB984F83C31236994F8E4
:101620003C211A700123C4F840327CE094F84A222D
:1016300084F85832012A03D10322B84912200EE05F
:101640001AB90322B549112009E0022A03D1032265
:10165000B3491E2003E0032A03D1B1491F2001F042
:101660006FF80A2384F851320023C4F83831A36894
:10167000C0221A7023691B785B0884F8523252E04A
:1016800002F0100202F0FF03F2B115F0010513D1D0
:10169000D4F84022D4F844329A4207D2D4F84032E7
:1016A0005A1C2344C4F8402293F83C5123691D700E
:1016B000A368D0221A7036E0A368C0221A7023698A
:1016C0001B7884F851122EE094F851220A2A2AD16C
:1016D00094F84A2284F85832012A03D103228F4910
:1016E00012200EE01AB903228C49112009E0022AC7
:1016F00003D103228A491E2003E0032A03D188492B
:101700001F2001F01DF823691A78D4F83831B3F599
:10171000817FD2B207D8D4F83831591C2344C4F899
:10172000381183F83020E36802221A7038BDD4F8EB
:1017300064321A68928B100600F19D8094F85A2248
:10174000032A0ED10A781506FCD51A79754B1A7042
:10175000002384F85A32D4F84432013BC4F84032B2
:1017600007E01A79704B1968012393400B42DAD0D5
:10177000A1E0D4F840322269234493F83C3113703D
:10178000D1E794F85122012A3CD105F0100202F071
:10179000FF006AB10722002384F85A3284F85122EC
:1017A00012220A70A26880211170C4F8403238BD3C
:1017B00015F0010508D084F85A02D4F8402292B3FB
:1017C000062284F85122F5E0D4F840220132C4F810
:1017D0004022D4F844128A4202D384F8515243E0A2
:1017E00094F85A22012AC4D1022284F85A22F12202
:1017F0001A70D4F864321A794C4B1A70236994F831
:101800003D2157E794F85122D2B2022A27D1E806A7
:1018100007D5072384F8513212230B70A368802266
:1018200083E7ED0701D50522CBE794F85A12012989
:1018300008D184F85A22E1221A70D4F864321A7955
:101840003A4B08E0032284F85122D4F85422012AAA
:101850000CBFE822E0221A7023691B7863E794F832
:101860005122042A40F0A68094F85022012A00F068
:10187000A180B0221EE794F85A22022A7FF45EAFBC
:101880001A792B4B1A70A368F0220FE0D4F8643257
:101890001A681B79928B12F0800F4DD094F85A225F
:1018A000022A49D1224A1370A368E8221A7003233E
:1018B00084F85A3237E71E4B1A70D4F864321A791A
:1018C0001C4B1A700023EA0684F85A327FF52BAFBE
:1018D000072284F85122E2681221117062E7D4F8DD
:1018E0003821D4F8541202328A4265D094F8512239
:1018F000042A03D194F85922002A5DD0D4F8383153
:10190000D4F854220133934271D294F85132042B0B
:1019100055D194F85932002B69D150E0FD1A0000DE
:10192000091B00001C8000402C8000401B800040F0
:101930001F8000401E80004094F85A22032A25D1BF
:101940003F4A1370002384F85A3294F85122042A33
:1019500018BF84F85132A368B0221A70D4F85432F8
:10196000013BC4F83831D4F838315A1CC4F8382156
:1019700022692344127883F8302094F85032012BE6
:101980007FF4D1AE1823013BFDD112E02D4A11683E
:1019900001229A400A423FF4C6AE2B4A1370D4F893
:1019A00064321A79294B1A70002384F85A3284F869
:1019B0005132A36880227DE6E8221A709EE7D4F8AF
:1019C00038315A1CC4F8382122692344127883F82C
:1019D000302094F85132042B7FF4A5AE94F859329C
:1019E000002B7FF4A0AE012384F859329BE694F8D3
:1019F00051220023042A84F8593201D084F851324C
:101A0000A368B0221A70D4F838315A1CC4F83821AF
:101A100022692344127883F8302094F85032012B45
:101A2000D7D11823013BFDD1A36880221A70D0E7DB
:101A30000022C4F83421D4F838019847D2E500BF19
:101A40001C8000402C8000401E8000401F80004011
:101A500000210148FFF78EBD6888FF1F0121014862
:101A6000FFF788BDD48AFF1F10B5C3681B7803F049
:101A70002003044603F0FF02F3B990F84A3280F8DD
:101A80005122012B01D1122009E00BB9112006E0EF
:101A9000022B01D11E2002E0032B02D11F2000F0F7
:101AA0009DFDD4F85C3243B30022C4F83421D4F84D
:101AB0003801BDE81040184790F858320133DBB2C6
:101AC000012B80F8583204D890F84932012B00D10C
:101AD00010BD94F84A32012B01D1122009E00BB954
:101AE000112006E0022B01D11E2002E0032B04D1BD
:101AF0001F20BDE8104000F071BD10BD002101485D
:101B0000FFF7B2BF6888FF1F01210148FFF7ACBF94
:101B1000D48AFF1F38B50C4B0C4D0D4C18460021D4
:101B2000FFF724FB2A462146184602F009F8094B24
:101B300001211846FFF71AFB2A4621461846BDE840
:101B4000384001F0FDBF00BF709BFF1FFC87FF1FE7
:101B50003D1100005C9BFF1F38B504460D46E8B2FE
:101B6000012100F0BBFD2560204638BD38B50022BC
:101B700004464FF47A71007800F0E0F91A4B013B0B
:101B8000FDD11A4D207800F065FA2B46013BFDD1BE
:101B900000224FF47A71207800F0D0F92B46013BF7
:101BA000FDD1207800F056FA2B46013BFDD10022F2
:101BB0004FF47A71207800F0C1F92B46013BFDD13A
:101BC000207800F047FA013DFDD100224FF4167154
:101BD000207800F0B3F9064B013BFDD12078BDE839
:101BE000384000F037BA00BF00F22B0000F91500B2
:101BF00000E457002DE9F7431E46214B1B68019373
:101C0000019814460D4603F037FE314603F040FFBD
:101C100003F050FA01F09AFF8046894620464FF0C3
:101C2000804103F079FD03F045FA064620460F4651
:101C300003F040FA42464B4603F090FA02460B4648
:101C40003046394603F0D8F803F038FD18244443F1
:101C50000526EDB20121284600F012FD14B12346FD
:101C6000013BFDD10021284600F00AFD14B12346B6
:101C7000013BFDD1013EEDD103B0BDE8F08300BFD3
:101C8000A89BFF1F38B505464FF47A74044B054AEC
:101C900029682846FFF7AEFF013CF7D138BD00BFE9
:101CA0000000F0410000C84238B5002303704360D3
:101CB0004FF4FA6304460D468360C3614FF4C87263
:101CC00005492C3000F06CFBE8B2012100F006FD64
:101CD000C4F8BC51204638BD50A00000012190F846
:101CE000BC0100F0CDBC836870B553431546FF229C
:101CF000B3FBF2F3436104460E4600F099FDE06049
:101D00003DB161686369411A99422CBF00210121EC
:101D100000E0294684F82010F0B200F0B1FC6268BF
:101D2000E368A168981A884298BF1346636070BD43
:101D3000426A836AB2F57A7FB4BF013200224262FE
:101D400002B90133642BA8BF0023836200EB830335
:101D5000D0F8BC11DA6AFFF7C6BFFFFF07B5094B21
:101D60001B680193019B8361591AC369994203D28D
:101D7000FFF7DEFF012002E0FFF7B0FF002003B015
:101D80005DF804FBA89BFF1F30B572B6254C89B9DE
:101D9000016879B103790F2B0CD822881A41D20738
:101DA00008D503F1007303F59063B1EB431F01D134
:101DB00062B630BD2188002341FA03F212F001021D
:101DC00027D101259D402943218062B6164DD9B205
:101DD00001712C6844F002042C6055F8044C03F1A6
:101DE000007344F0020445F8044C03F590630F4C73
:101DF0005B0182252560A176A1772176E1770360DA
:101E00001A605A609A60DA601A615A619A61DA61FE
:101E100030BD0133102BCFD162B6002202600371B6
:101E200030BD00BF849BFF1F408004400080004005
:101E300003790F2B10D8094A137072B6084902793A
:101E4000012303FA02F20B8823EA02030B8062B635
:101E50001023037100230360704700BF1A80004005
:101E6000849BFF1F10B5036814465B6898472046A3
:101E700010BD0EB403B503AA52F8041B019204F07E
:101E800073FD02B05DF804EB03B0704710B5044673
:101E900001F040FC204610BD1F4A2048136870B571
:101EA000012116464BB10068013B80F88010591D96
:101EB00008BF6FF00203136070BD0368184C1970FF
:101EC00023680BB3174B1D680021284603F0D4FE8E
:101ED000A8B91549284603F0E3FE80B913492846FE
:101EE00003F022FD4FF07C5103F014FC03F008FFD7
:101EF0002328024603D90E490E4801F0C3FB23688C
:101F000033600023236070BD0A4801F003FC0A4BD4
:101F1000FF221A7070BD00BF989BFF1F909BFF1F90
:101F2000949BFF1F9C9BFF1F398EE34C00001042C7
:101F3000991E0000889BFF1F408DFF1F21282DE95F
:101F4000F84307466ED83AB14A434FF47A74B2FB6D
:101F5000F4F46400013401E06FF00204002914BFBE
:101F60000846012003F088FC01462F4803F090FD4D
:101F70002E4B03EBC7020546516872B62C4ADFF8B8
:101F8000D08092F800E02B4E7745994614D1D8F8CE
:101F9000001003F05DFE30B1336803F00103013B34
:101FA0001C4434603DE0244BC8F800501C6033688A
:101FB00003F00103336034E020481770BEF1210FB5
:101FC0009EBF03684FF0010C83F800C059F837300A
:101FD000346003F580720260012283F8002183F8E7
:101FE00080224FF4A2730B60C8F8005000212846ED
:101FF00003F042FEA8B91249284603F051FE80B909
:102000001049284603F090FC4FF07C5103F082FB0E
:1020100003F076FE2328024603D90B490B4801F052
:1020200031FB62B6BDE8F8830024F4480CA200003E
:10203000408DFF1F989BFF1F949BFF1F909BFF1FCE
:10204000398EE34C00001042991E0000889BFF1F50
:102050009C9BFF1F212810B50ED872B6074C237821
:10206000834208D1064801F055FB064B1B6801224C
:102070001A70FF23237062B610BD00BF408DFF1F92
:10208000889BFF1F909BFF1F0448054A05490023BA
:1020900003608023037101F053BD00BF889BFF1FC5
:1020A000FC87FF1F8D1E0000F0B5374A374B1168C3
:1020B0000906FCD4196811F08001F8D172B63448D1
:1020C0000378002B5DD0334B334A1F6804330C3246
:1020D0001B6852F80C6C52F8085C52F8044C1268F9
:1020E0003B4433442B4423441344C3F34E032B4A51
:1020F00043F4004313602A4B1F68043340321B68CB
:1021000052F80C6C52F8085C52F8044C12683B44CC
:1021100033442B4423441344C3F34E03214A43F472
:1021200000431360204B02F500221F680433103275
:102130001B681668556894683B440C323344126837
:102140002B4423441344C3F34E03184A43F400437F
:102150001360174B1F68043340321B6852F80C6C35
:1021600052F8085C52F8044C12683B4433442B4448
:1021700023441344C3F34E030E4A43F40043136055
:10218000017062B6F0BD00BF24B0034024B00B4024
:10219000A19BFF1F38B0034040B003402CB0034068
:1021A00058B0034030B0034038B00B402CB00B4067
:1021B00058B00B4030B00B4010B5204B204821499F
:1021C00060221A70E1225A701F4B204A1C78204B63
:1021D000082C01D1012402E00A2C03D11924046047
:1021E000132005E00C2C0CBF15243D2404601220A4
:1021F000086014601860174B17491B78174A03B121
:1022000001230B601360164B164A1978164B0129EF
:1022100001D880210BE0042901D8842107E0082996
:1022200001D8852103E0102994BF86218721116000
:1022300019600E4B01221A7010BD00BF004007400C
:1022400008B003400CB00340418DFF1F08B00B40A5
:102250000CB00B40A49BFF1F20B0034020B00B40EC
:10226000428DFF1F24B0034024B00B40A19BFF1FF1
:102270000E4B1A7860B1BAB9012119700C4B1B785A
:1022800023B10C4B1A6003F500231A60FFF794BFCB
:1022900052B11870064B1B78002BF7D0054B186015
:1022A00003F500231860F1E7704700BFA49BFF1FF0
:1022B000A19BFF1F24B0034028282DE9F04150D8EE
:1022C000294B1C5CFF2C4CD0284B1B780BB1FFF723
:1022D000EBFE210617D472B6254E264F346001233B
:1022E0003B7062B6234D72B633681A0604D5224B92
:1022F00000221B682A7026E02B78002BEED062B6F5
:1023000001F0E4F8EFE772B61C4EDFF8808004F0CD
:102310004007FFB204F03F05336817B123F0100304
:1023200001E043F01003164C33600123C8F800505D
:10233000237062B672B6D8F800301B060AD5114B6E
:1023400000221B68227062B60F4A107843FA00F030
:10235000BDE8F0812378002BDED062B601F0B6F83C
:10236000E8E70020BDE8F081E0A10000A19BFF1F8D
:1023700000B00340A39BFF1F10B003400CB00B4004
:10238000A29BFF1F10B00B40A09BFF1F00B00B4093
:1023900008B5FEF705FAFEF7D1FA01F097F8FAE76B
:1023A000844641EA000313F003036DD1403A41D360
:1023B00051F8043B40F8043B51F8043B40F8043B1F
:1023C00051F8043B40F8043B51F8043B40F8043B0F
:1023D00051F8043B40F8043B51F8043B40F8043BFF
:1023E00051F8043B40F8043B51F8043B40F8043BEF
:1023F00051F8043B40F8043B51F8043B40F8043BDF
:1024000051F8043B40F8043B51F8043B40F8043BCE
:1024100051F8043B40F8043B51F8043B40F8043BBE
:1024200051F8043B40F8043B51F8043B40F8043BAE
:10243000403ABDD2303211D351F8043B40F8043B4E
:1024400051F8043B40F8043B51F8043B40F8043B8E
:1024500051F8043B40F8043B103AEDD20C3205D35E
:1024600051F8043B40F8043B043AF9D2043208D056
:10247000D2071CBF11F8013B00F8013B01D30B88C8
:1024800003806046704700BF082A13D38B078DD0A6
:1024900010F003038AD0C3F10403D21ADB071CBF78
:1024A00011F8013B00F8013B80D331F8023B20F8E2
:1024B000023B7BE7043AD9D3013A11F8013B00F81B
:1024C000013BF9D20B7803704B7843708B788370A3
:1024D0006046704701B5EAB1102A17DB00F0070328
:1024E00033B1C3F10803D21A013B00F8011BFBDC36
:1024F000C9B241EA012141EA01418C46D308013BBE
:10250000E0E8021CFBDC12F0070203D0013A00F8FD
:10251000011BFBDC01BD00BF08B50B4D2C462B6831
:10252000580301D500F0D6FA2368590501D501F00A
:102530004BF923681A0501D501F0D4F92368DB04AF
:10254000EDD501F05DFAEAE73480044008B5FFF705
:10255000E3FFFFFF014B10221A8070470020054067
:102560007047FFFF094908B50B6868B16A4618440F
:10257000A2F58052904206D303F0E8FB0C230360DF
:102580004FF0FF3008BD0860184608BD448DFF1F9E
:1025900003F00ABC03F010BC30B503460020B3FBC7
:1025A000F2F402FB1433092B94BF30333733DBB220
:1025B0000B5423460CB10130F1E70A18234654703E
:1025C000C41AA34206DACC5C1578CD5402F801494E
:1025D0000133F5E7084630BD7047FFFF194B03EBA9
:1025E000C000426802F14043A3F592217C2910D932
:1025F000A3F594217C290ED9A3F596217C290CD929
:10260000A3F598217C290AD9A3F59A237C2B08D914
:1026100070470D4906E00D4904E00D4902E00D49FF
:1026200000E00D4972B6136823F0877323F48033FA
:1026300043F080731360C2F38402084B41F82230E8
:1026400062B670470CA20000488DFF1F808DFF1FEF
:10265000D08DFF1F008EFF1F208EFF1FD925000089
:10266000044B054900221A600A60044A10601022D7
:102670001A60704714D0034004D0034000D00340D8
:10268000212810B518D80D4B53F8302092F880420D
:102690003CB1012311B182F8803010BD82F80031C5
:1026A00010BD03EBC0035B681A6811B142F003026E
:1026B00001E022F002021A6010BD00BF0CA200006F
:1026C00021289FBF044B53F8303093F80002C0B26A
:1026D00088BF0020704700BF0CA20000212810B561
:1026E0002BD8164A02EBC00301295B68144601D0BF
:1026F00004290FD154F83020012082F880024FF4D1
:10270000A2721A601A6804290CBF42F0200222F05B
:10271000200211E052F83000002280F8802211B926
:102720004FF4807208E0022902D140F2031203E064
:10273000032908BF4FF481721A6010BD0CA200007B
:10274000212870B50E4659D8042A57D8DFE802F080
:10275000070905030B00092306E00A2304E0082308
:1027600002E00C2300E00B231D04254B03EBC00308
:102770005C68216811F4E06101D1FFF7AFFF214BE4
:10278000214AC3F89C21214AC3F8A021204AC3F85A
:10279000A421204AC3F8A8211F4AC3F8AC2104F1A0
:1027A0004043A3F592227C2A10D9A3F594227C2AD7
:1027B0000ED9A3F596227C2A0CD9A3F598227C2A5F
:1027C0000AD9A3F59A237C2B08D970BD134B06E0D8
:1027D000134B04E0134B02E0134B00E0134B72B6B3
:1027E000226822F47022226042F08071C4F38402D5
:1027F00043F8226045EA0103236062B670BD00BF62
:102800000CA200000082FF1FD187FF1FA587FF1FBA
:102810007987FF1F4D87FF1F2187FF1F488DFF1FEF
:10282000808DFF1FD08DFF1F008EFF1F208EFF1F8A
:1028300072B60C4B0C4A0D491B681268096862B6E7
:10284000490102D5322B88BF0132C3F58C334820B1
:1028500003F23F13B3FBF0F34FF47A7000FB023046
:10286000704700BF18E000E0A89BFF1F04ED00E0E8
:1028700038B50446FFF7DCFF054624B938BD013CF6
:102880000AD005F57A75FFF7D3FF401BB0F57A7FC4
:10289000F5D200F01BFEF6E738BDFFFF214B4FF4E9
:1028A000000210B51A604FF080721A604FF000728B
:1028B0001A604FF080621A604FF000621A601A4B83
:1028C0001A4A1B4C002048F6FF71186059602823F3
:1028D0001360936013619361136293621363936354
:1028E0000922226004F58054043420606160A360F2
:1028F000236144F8042C04F5FE2420600D48016097
:102900000D490B608B600D4B1A60FFF755FC3220B0
:10291000FFF7AEFF00F0EAFB4FF4AF70BDE81040E8
:10292000FFF7A6BF08E100E0048003400C800340ED
:102930000080034008800B400C800B4000800B405F
:10294000F0B50C4C0C4E23780C4D43F0020706EB0F
:10295000C70283F0010350602A782370002A14BF55
:10296000C820882082F0010240EA01412A7046F81E
:102970003710F0BD149CFF1F0080FF1F8C9CFF1FB1
:10298000431E032B10B510D872B6094A52F8230023
:1029900048B1416842F823100649048831F81320F1
:1029A000121B21F8132062B610BD002010BD00BF1D
:1029B000049CFF1F709EFF1F013803280AD872B6BF
:1029C000054B53F82030002013B101305B68FBE762
:1029D00062B6704700207047589CFF1F70B472B6F3
:1029E000174C184901231A1912F8012C12071DD58A
:1029F0009A00144E51F832502DB906EB43130830AB
:102A00005860114B09E042F0010251F832506DB9A3
:102A100006EBC203083058600C4B46F832300C4AC3
:102A20001378013B137062B670BC70470133052BFD
:102A3000D9D162B6064B00221A7070BC00F0CABB36
:102A400044A300000080FF1F88004000C800400031
:102A5000829CFF1F431E032B10B532D8194A400138
:102A600040F01000104472B6174AD45C032C0BD807
:102A7000DFE804F018040207052414E008300224FB
:102A800011E0083004240EE01048114A50F82340A9
:102A900014B940F8231002E052F82300416042F8D4
:102AA00023100DE00324D45410F0080F01F10803A3
:102AB0000A88436014BFC823882343EA02430360A3
:102AC00062B610BD0080FF1FC09BFF1F589CFF1FF8
:102AD000689CFF1F2DE9F74FA94B1C78E4B214F056
:102AE000040F1D461AD0A74B1B78A3B1A64A117834
:102AF00001F0FF0321B1013BDBB2137003B900BE4B
:102B0000A24A117801F0FF0329B1013BDBB2137037
:102B10000BB900F0B7FC9A4A0423137004F00803C1
:102B200003F0FF02002B00F07182994B994C1B7847
:102B3000DBB21F094FEA930640F0EC8104EBC603B9
:102B4000596854F83630C3F38303013B0C2B00F271
:102B5000DD81DFE813F09A019A01DB01DB01DB0183
:102B6000DB01DB01DB01B901DB01DB01DB010D0076
:102B70000A68894D89484B682A6001216B60DFF83B
:102B80005082874B017092B240F2816044F8363037
:102B900082424FF00003C8F800302361A36117D8C8
:102BA000B2F5D06F80F02781B2F5817F00F0D88038
:102BB00006D8802A00F0C180822A00F0C28035E168
:102BC00040F202339A4200F00781B2F5A06F1AE09A
:102BD00042F22100824200F055810CD8B2F5086F14
:102BE00000F0A580B2F5106F40F02081654AA97809
:102BF00011701E460AE042F221218A4200F00E8145
:102C000042F221339A4200F015810FE1A219136AB2
:102C10001F0603D5506A083800F0DCFA0836802E0B
:102C2000F4D1DFF8B0915F4F0026CA4659F826006C
:102C30004FEA860B30B14268009200F0CBFA009A5E
:102C40001046F7E7584B594A4AF80B004BF8030077
:102C50005BF8020040B141680192009100F0BAFABD
:102C60000099019A0846F5E7514B42F80B0023F80A
:102C700016003B784F4A023B4BF80200032B07D863
:102C8000DFE803F002040204002300E001233B70AC
:102C90000136042E07F10107C8D1474B474E404F7C
:102CA00000221A704FF0010B9946454A0BEB0601C2
:102CB0005A4411F8011C920011F0080F11704FEAEC
:102CC0008B0A24D000F068FA38B104EB4B120830BC
:102CD0003C4B506044F83A3006E099F8002044F844
:102CE0003A00013289F8002000F056FA4AF0010259
:102CF00030B104EBC2010830486044F8327006E09D
:102D000044F8320099F80020013289F800204AF096
:102D100002010BF1010B4AF0030A0022BBF1050F7F
:102D200044F8312044F83A20BFD1134683E0154BD4
:102D3000254E1B7833700B4680E0234E3370737042
:102D40007BE0AA8802F07F02042A6FD81E4E920010
:102D5000337073701D4B9B5C9C076ED531706CE0BB
:102D6000AA8802F07F02042A60D86B88002B5DD10C
:102D70001649920011440A7822F0020239E000BF9D
:102D8000802007408B9CFF1F159CFF1F8D9CFF1F01
:102D9000902007400080FF1F789CFF1F8C9CFF1F26
:102DA000C8004000C09BFF1FB09BFF1F589CFF1F27
:102DB000709EFF1F689CFF1F829CFF1F44A30000A2
:102DC00030C8011088004000839CFF1FC0200740CE
:102DD000AC9BFF1F049CFF1FAA8802F07F02042AFD
:102DE00024D86B8813BBA549920011440A7842F09D
:102DF00002020A701FE06A88A988A14B5E68AEB122
:102E00001888904208D15888884205D1120A032AAE
:102E10000CBF33781B8911E00C33EFE7994A116836
:102E2000994A1160994AA978117004E0934B0F22D6
:102E30001A7027E000231E4600E00223EC889C4223
:102E400028BF1C46402C254628BF40253046294631
:102E5000FFF776FD641B2E4403D1402D12D1254689
:102E600003E0402C254628BF402530462946FFF781
:102E700067FD641B2E4401D1402D03D1844BC8F85B
:102E800000601C800122834B3FE0834B1A8842F292
:102E900021039A4214D1814A0023C85C985401331B
:102EA000072BFAD17D4B1B68862B08BF7C4B4FF05C
:102EB000000108BF0F22084608BF1A70FFF740FD47
:102EC000784B44F8363021E0774F3E68A6B1DFF802
:102ED000C081B8F80040402C254628BF4025304628
:102EE0002946FFF72DFD601B80B2A8F8000008B945
:102EF000402D00D170193860674B1A88B2F5A06F69
:102F000004D100225A709A78684B1A70614B0122E2
:102F10001A7077E004EBC605013F6A6803F0080306
:102F2000A2F10800FFB203F0FF0E002B36D000F034
:102F300051F95F485F4A50F82710E9B14B6840F8F3
:102F4000273001F108036B60D35D032B0BD8DFE85A
:102F500003F002040608032304E0022302E0052331
:102F600000E00423D35515F0080F0A8814BFC823C6
:102F7000882343EA024343E0D35D032B07D8DFE80D
:102F800003F041410204002306E0012304E015F0B0
:102F9000080F14BF03230223D35533E054F836300F
:102FA0001B0C99B222F8081C23B3434B22F806EC01
:102FB00042F804EC53F82720DFF82CE112B943F86B
:102FC000270002E05EF8273058603C4A4EF82700A0
:102FD00032F817300B4422F8173000F0DDF810B14A
:102FE0000830686006E0364A44F83600137801334A
:102FF000137007E0334A2B4B15F0080F08BF134638
:1030000044F83630304A0823137065E5E0071ED5D2
:1030100020492C482D4C02230B702D4B1A702D4B40
:10302000186098602C48D8601A619A615C60134BF4
:103030000D2018702948FF2303702B700274284A52
:103040001370284B9F221A7001230B7012E0210687
:1030500004D50A4B0D221A7080232B70A20705D5C8
:103060001E4A1378DBB2137002232B70E30644BFB1
:1030700010232B7003B0BDE8F08F00BFC0200740C5
:1030800048A30000A89BFF1F809EFF1F9C9CFF1F62
:10309000809CFF1F94200740789CFF1F789EFF1F95
:1030A000159CFF1FC8004000AC9BFF1F98200740E5
:1030B000589CFF1FC09BFF1F049CFF1F709EFF1F9B
:1030C000829CFF1F8800400080200740C49BFF1F98
:1030D000149CFF1F0080FF1F189CFF1F88200740C3
:1030E0008C20074084200740B09BFF1F10B500F0E4
:1030F000EDFC0023194819461950C4180833882BD1
:10310000164A6160F8D116490B6843F480230B60BE
:10311000144BC2F307211970C2F30741120E19753F
:103120001A76114AFF2313700021137202F8703CC3
:103130000123137582F8801013710C4B70226FF409
:1031400050711A700B444FF400721A6003F1C043BF
:1031500003F5C82310221A7010BD00BF0080FF1FA6
:10316000348004409C2007408020074049E400E070
:1031700000F0A2B800F076B800F04EB800F08EB8BB
:1031800000F052B900F02CB90846114600F0ACB876
:10319000084600F019B9704710B572B60B480268BE
:1031A000B2FA82F10B2902DD62B6002010BD4FF0A9
:1031B0000043CB4022EA0302026062B6044C48237B
:1031C0004B43E0180022E250426010BD388EFF1FD2
:1031D000BC83FF1F0C4B4822C31AB3FBF2F30B2B2B
:1031E00011D80A4A127822B1094A12780AB1FFF7B7
:1031F000F5BB72B607494FF0004222FA03F30A68A2
:103200001A430A6062B67047BC83FF1F829CFF1F8F
:103210008B9CFF1F388EFF1F10B5104C23686BB1BD
:10322000206843885A1C03441C7A03889A4212D3AC
:10323000FFF7D0FF094B00221A600DE0084B1B7806
:1032400013B94FF0FF3010BD0320FFF799FB20604A
:103250000028E5D1F5E74280204610BD989CFF1F6D
:103260008B9CFF1F10B50B4C236813B122686AB901
:1032700002E0094B1B7813B94FF0FF3010BD03205B
:10328000FFF77EFB20600028F0D1F5E75388134458
:10329000187A10BD989CFF1F8B9CFF1F044B9888C9
:1032A000044B1A681AB1138852889B1A1844704745
:1032B000709EFF1F989CFF1F10B5094B1B786BB1C8
:1032C000084C206818B1FFF785FF00232360032016
:1032D000FFF756FB10B1FFF77DFFF8E710BD00BF09
:1032E0008B9CFF1F989CFF1F2DE9F84F314DDFF895
:1032F000D490012382460C462B700E464F46002E7A
:1033000053D0D9F800303BBBDFF8B0B048F60148E5
:10331000294B1B7803F0FF010BB9297015E004203D
:10332000FFF74AFB072807D801232B70FFF734FF6C
:10333000386088B91F4B1870B8F1010802D09BF8AB
:10334000003033B11D4B01221A704FF0FF30BDE841
:10335000F88F00F0BBF8DBE7184B002119703968D3
:103360004B88C3F14000B04228BF304603EB000E4B
:103370000B44A1F802E0361A07330AEB0008C245F5
:1033800004D01AF8010B03F8010FF8E74B883F2B24
:1033900006D940230B800420FFF75CFB00233B6031
:1033A000074B05221A70C246A9E72E702046BDE8D9
:1033B000F88F00BF8E9CFF1F8B9CFF1F949CFF1FEC
:1033C0008D9CFF1F909CFF1F07B502AB012103F8E6
:1033D000010D1846FFF788FF03B05DF804FBFFFFFF
:1033E00038B50E4C0E4D012323702B687BB90D4B65
:1033F0001B7813B90020207038BD0420FFF7DCFAD9
:103400000728F7D8FFF7C8FE28600028F2D02B68FD
:10341000588800232370C0F1400038BD8E9CFF1FE8
:10342000909CFF1F8B9CFF1F2DE9F041114B1B78D7
:10343000F3B1114F114B3C68114D01261E70984697
:103440004CB1002663882E70214623800420FFF7AC
:1034500001FB3E6009E0FFF79FFE014620B104201A
:103460002C70FFF7F7FA00E02E70002388F8003088
:10347000BDE8F0818B9CFF1F909CFF1F8E9CFF1F5F
:103480008D9CFF1F38B50E4B1B7803F0FF05ABB9C1
:103490000C4C216831B14B880B800420FFF7DAFA1D
:1034A000256038BDFFF778FE014620B10420BDE855
:1034B0003840FFF7CFBA044B01221A7038BD00BF65
:1034C0008E9CFF1F909CFF1F8D9CFF1F38B51E4CCC
:1034D0002378002B36D101232370FFF7DFFE08B1DC
:1034E000FFF759FE00F060F908B100F0C7F800F0EE
:1034F000E9F908B100F0C3F800F072FA08B100F081
:10350000BFF800232370EFF30583DBB9EFF31082DC
:1035100072B60E4D286810B10D4C217811B18AB9E0
:1035200062B638BD0123237043692B600BB19961EA
:1035300001E008490B6002B962B60025457783684F
:103540009847257038BD00BF9D9CFF1FB09CFF1F92
:10355000B49CFF1FAC9CFF1FEFF3108072B6B0FA53
:1035600080F04009704700B162B67047F8B50C4E64
:103570000C4F0025FFF7F0FF346802466CB1636919
:1035800033600BB19D6100E03B601046FFF7EBFF3D
:103590006577A36820469847ECE7FFF7E4FFF8BD9E
:1035A000A09CFF1FA49CFF1FFFF7E0BF15490B68FD
:1035B00030B513B98360C36009E004681A689442A7
:1035C00007D20025121B8360C560D8601A600860AE
:1035D00015E002681C689968121B026061B10C68F2
:1035E000A2420B46F5D28160C968C160D860C1684B
:1035F000A21A88601A6002E08160C36098600223AA
:10360000037530BDA89CFF1F70B5164D2C680026B1
:10361000BCB1236813B1013B236012E0A26802B180
:10362000D36020692A60036826751B682246002142
:10363000984763681BB123602046FFF7B7FF2C68EB
:10364000E6E7FFF789FF084B00221C681A60FFF7C6
:103650008AFF2CB1A5682046FFF7A8FF2C46F8E7A3
:1036600070BD00BFA89CFF1FB89CFF1F024A1368D3
:1036700001331360FFF7C8BFA89BFF1F7047704757
:1036800070477047036830B523B100249C60012463
:10369000DC6017E0194C236843F40003236000BF8B
:1036A000174B01241C6003F58073164C03600368FC
:1036B0009D683DB11033A3420360F8D90023036035
:1036C000184630BD0468104B226023441B110F4D77
:1036D0000322A2600E4A45F823100179995444331D
:1036E0005A11920002F1604202F56142012003F09A
:1036F0001F0300FA03F3136030BD00BF3C80044099
:10370000007003403F710340008FFCBF3C8EFF1FE1
:1037100044E400E0016830B5A1B10B4B0B441B1130
:1037200003F144025511012402F01F0204FA02F2CF
:10373000064C44F82520064A064C42F82340002354
:103740008B60036030BD00BF008FFCBF80E100E0F4
:103750003C8EFF1F83360000024B01221A60024B91
:103760001B6818470C7103403C8EFF1F024B01225F
:103770001A60024B5B6818471C7103403C8EFF1FA8
:10378000024B01221A60024B9B6818472C710340C0
:103790003C8EFF1F024B01221A60024BDB68184768
:1037A0003C7103403C8EFF1F054B1878054B1A787F
:1037B000C0B2D3B2984238BF4030C01A704700BF81
:1037C000429DFF1FC19CFF1FF0B534490B7913F0D8
:1037D000300F2FD072B68B7D03F0FF0423B9CB7965
:1037E00040234B7462B625E062B62D482D4A03781B
:1037F00012782D4FDBB2D2B20546581C4028CE7944
:1038000028BF00209042F6B21CBF3E540346601E03
:1038100010F0FF04F1D1D9B229702449096849B1E7
:10382000934236BFC2F140029B1A9B18272BC4BF9C
:1038300001230B70194AD178C9B20D061ED5137930
:103840001C061BD51A4B1B481D7803781A4EEDB287
:10385000DBB2AB420AD00133402B28BF00231479DE
:10386000F45CE4B2D471147D072CF2D9DBB203709E
:103870000A4B1A79100644BF7C22DA7049060CD52F
:10388000064B1A79520608D50C4A002111700C4AD1
:10389000126802B111703C22DA70F0BD00A006403F
:1038A000429DFF1FC19CFF1F029DFF1FBC9CFF1F6D
:1038B000489DFF1F439DFF1FC29CFF1FC09CFF1F11
:1038C000449DFF1F054B1878054B1A78C0B2D3B240
:1038D000984238BF4030C01A704700BFBA9DFF1FE2
:1038E000519DFF1FF0B534490B7913F0300F2FD0E5
:1038F00072B68B7D03F0FF0423B9CB7940234B7460
:1039000062B625E062B62D482D4A037812782D4F15
:10391000DBB2D2B20546581C4028CE7928BF002021
:103920009042F6B21CBF3E540346601E10F0FF04E6
:10393000F1D1D9B229702449096849B1934236BFFF
:10394000C2F140029B1A9B18272BC4BF01230B70A6
:10395000194AD178C9B20D061ED513791C061BD59C
:103960001A4B1B481D7803781A4EEDB2DBB2AB42FE
:103970000AD00133282B28BF00231479F45CE4B269
:10398000D471147D072CF2D9DBB203700A4B1A797B
:10399000100644BF7C22DA7049060CD5064B1A7912
:1039A000520608D50C4A002111700C4A126802B167
:1039B00011703C22DA70F0BD00B00640BA9DFF1FC6
:1039C000519DFF1F7A9DFF1F4C9DFF1FC09DFF1F34
:1039D000BB9DFF1F529DFF1F509DFF1FBC9DFF1FE2
:1039E000054B1878054B1A78C0B2D3B2984238BF4D
:1039F0004030C01A704700BF329EFF1FC99DFF1F95
:103A000010B5284B1A79920620D52749DA790B7818
:103A10002648013300783F2BC8BF0023834218BFDC
:103A20002348D2B21EBFC254DAB20A70214A1168CA
:103A300061B1214A1278D2B2934236BFC2F140023C
:103A40009B1A9B18272BC4BF01230B701549CA78FA
:103A5000D2B2140616D50B79180613D5174B164C8F
:103A600018782378DBB2984202D16C23CB7009E03E
:103A70000133282B28BF00231148C05CDBB2C0B241
:103A8000C871237051060CD5064B1A79520608D519
:103A90000C4A002111700C4A126802B111702C22DC
:103AA000DA7010BD00C00640329EFF1FC99DFF1F87
:103AB000F29DFF1FC49DFF1F339EFF1F389EFF1FF7
:103AC000CA9DFF1FC89DFF1F349EFF1F1FB572B602
:103AD000154B70221A70154A412111700F2102F8FE
:103AE000011C80221A701A781206FCD5104B186837
:103AF00062B6104B984298BF0A2301AC98BF584356
:103B00000A222146FEF748FD0B4A0023E15C21B161
:103B100001330A2B22F8021BF8D1084A01335B005B
:103B2000137004B010BD00BF000002400700024047
:103B3000080002407F969800D68EFF1FD48EFF1F8C
:103B40000B460146184602F0FBB800BF30B51F4ACD
:103B500021F00043934287B01BDD1D4A934205DDEF
:103B600002460B4601F046F907B030BD02AA00F04C
:103B700033F800F003000128DDE904231AD00228FD
:103B80000FD0E0B1DDE9020100F04AFA01F1004195
:103B9000EAE7002300930022002300F05DFF07B056
:103BA00030BD0124DDE90201009400F055FF01F170
:103BB0000041D9E7DDE9020100F032FAD4E701243F
:103BC000DDE90201009400F047FFCDE7FB21E93F6A
:103BD000FFFFEF7FFFFFFFFF2DE9F04F944E21F035
:103BE0000047B74291B040F382809246914A974293
:103BF0000C4626DC002984A3D3E9002340F3A881E6
:103C000001F0F8F88C4B9F4204460D4600F084808A
:103C10007FA3D3E9002301F0EDF802460B46CAE981
:103C200000232046294601F0E5F879A3D3E90023D3
:103C300001F0E0F80125CAE90201284611B0BDE80B
:103C4000F08F7E4A974240F384807D4A974259DC48
:103C50003D15A5F21645A7EB055319461F46064626
:103C600001F02CFD01F014FA8046894602460B460D
:103C700030463946CDE90A8901F0BCF80022714B83
:103C800001F06CFA8946804601F018FD01F000FA57
:103C900002460B4606460F4640464946CDE90C67AC
:103CA00001F0A8F80022674B01F058FA0022002327
:103CB000CDE90E0101F0BAFC002800F07581002367
:103CC00030463946002201F0B1FC002814BF012320
:103CD00002235D4A0192022100912A4651460AA818
:103CE00000F0C2FA002CC0F25181054606E0C2E99C
:103CF000000100250024C2E902450025284611B034
:103D0000BDE8F08F02460B4601F074F80025CAE9C1
:103D10000201CAE90001F1E73FA3D3E9002301F062
:103D200069F83FA3D3E900230D46044601F062F889
:103D300002460B46CAE900232946204601F05AF8FC
:103D400037A3D3E9002301F055F80125CAE90201A0
:103D5000D4E700F037FF34A3D3E900238046894637
:103D600001F0FCF90022394B01F046F801F0A6FC05
:103D7000054601F08DF924A3D3E90023CDE9040120
:103D800001F0ECF902460B464046494601F032F894
:103D90001FA3D3E9002380468946DDE9040101F031
:103DA000DDF91F2DCDE9020154DC294B6A1E53F8C1
:103DB00022309F424ED002460B464046494601F013
:103DC00019F802460B46CAE9002383460E465A46B6
:103DD00033464046494601F00DF8DDE9022301F083
:103DE00009F8002C02460B46CAE9022386DA5B4634
:103DF00006F1004601F100418AE84800CAF80C10BB
:103E0000CAF808006D4279E700004054FB21F93FF1
:103E10003163621A61B4D03D0000601A61B4D03DD4
:103E20007370032E8A19A33B83C8C96D305FE43FCA
:103E3000FB21E93F7BD90240FB21F93FFB213941BE
:103E4000FFFFEF7F000070411CA400000000E03F76
:103E50009CA30000DDE902234046494600F0CAFF6A
:103E60003A15C1F30A53D31A102B83460E46099212
:103E7000CAE90001ABDD5EA3D3E90023DDE904015B
:103E800001F06CF906460F4602460B46404649468D
:103E900000F0B0FFCDE9060102460B464046494618
:103EA00000F0A8FF32463B4600F0A4FF52A3D3E93E
:103EB000002306460F46DDE9040101F04FF93246C2
:103EC0003B4600F097FFDDE90689CDE90201024695
:103ED0000B464046494600F08DFF0B46C1F30A579A
:103EE0000E460999CF1B0246312F8346CAE90023AB
:103EF0007ADD43A3D3E90023DDE9040101F02EF9C3
:103F000006460F4602460B4640464946CDE906891D
:103F100000F070FF02460B4680468946DDE9060147
:103F200000F068FF32463B4600F064FF36A3D3E959
:103F3000002306460F46DDE9040101F00FF9324681
:103F40003B4600F057FF02460B46CDE9022334E71B
:103F500000F052FF304B9F4204460D4626D02CA362
:103F6000D3E9002300F048FF02460B46CAE90023CC
:103F70002946204600F03EFF25A3D3E9002300F0A8
:103F80003BFF4FF0FF35CAE90201B7E6DAF804203B
:103F9000DAF80C3002F1004203F100434542CAF85E
:103FA0000420CAF80C30A9E6032392E610A3D3E953
:103FB000002300F021FF10A3D3E900230D4604469F
:103FC00000F01AFF02460B46CAE9002329462046A4
:103FD00000F010FF08A3D3E9002300F00DFF4FF01D
:103FE000FF35CAE9020189E6DDE90689EFE600BF8F
:103FF0000000601A61B4D03D7370032E8A19A33B90
:104000000000002E8A19A33BC14920259A837B39E1
:104010003163621A61B4D03DFB21F93FFFFFFFFF1E
:104020002DE9F04F21F00046B6F1795F85B00C46DE
:1040300092469B4605466BDA01F040FB002800F0F3
:10404000E8802A4623462846214601F087F874A3D3
:10405000D3E900238046894601F080F872A3D3E9B2
:10406000002300F0C9FE42464B4601F077F870A3EA
:10407000D3E9002300F0BEFE42464B4601F06EF845
:104080006DA3D3E9002300F0B7FE42464B4601F092
:1040900065F86BA3D3E9002300F0ACFE42464B4623
:1040A00001F05CF868A3D3E9002300F0A5FE4246C6
:1040B0004B4601F053F8CDE900010022644B404625
:1040C000494601F04BF8DDE9002306460F4640461D
:1040D000494601F043F85246804689465B462846E9
:1040E000214601F03BF802460B464046494600F0A7
:1040F00081FE02460B463046394600F07BFE024602
:104100000B460020534900F075FE05B0BDE8F08F66
:1041100002460B4601F022F841A3D3E90023804672
:10412000894601F01BF840A3D3E9002300F064FEA8
:1041300042464B4601F012F83DA3D3E9002300F0BC
:1041400059FE42464B4601F009F83BA3D3E9002350
:1041500000F052FE42464B4601F000F838A3D3E986
:10416000002300F047FE42464B4600F0F7FF36A31F
:10417000D3E9002300F040FE4B46424600F0EEFF3C
:10418000354B9E42CDE9000197DD344B9E424FF006
:10419000000238DCA6F5001300202E4916461F4603
:1041A00000F028FECDE902010022294B4046494695
:1041B00000F0D4FF32463B4600F01CFEDDE9002350
:1041C00006460F464046494600F0C8FF5246804624
:1041D00089465B462846214600F0C0FF02460B4652
:1041E0004046494600F006FE02460B463046394638
:1041F00000F000FE02460B46DDE9020100F0FAFD88
:1042000005B0BDE8F08F164B164FCDE9022300260E
:10421000CAE71049002005B0BDE8F08FAFF3008079
:10422000D43888BEE9FAA8BDC4B1B4BD9EEE213E23
:10423000AD529C804F7E923E9015CB19A001FA3E64
:104240007751C1166CC1563F4C5555555555A53F34
:104250000000E03F0000F03F3233D33F0000E93F71
:104260000000E73F0000D23F2DE9F04FADF51D7D86
:10427000784CA69E784D54F8264009942646D41EC4
:1042800085FB0475E417C4EBA50424EAE4741D4619
:104290000B93631CA3EB8303013D02EBC303089361
:1042A0002B460D940295651BF41804900A9116D4C0
:1042B0002C44013422AEA79F08E057F8250000F0F7
:1042C000E7FE0135A542E6E9020108D0002DF4DA47
:1042D000013500200021A542E6E90201F6D1099B43
:1042E000002B2FDB099BDDF8089074AA02EBC30BAF
:1042F0000DF5E47A029B002BC0F295810B9BC3EB7A
:10430000090824AB03EBC808049BA3F1080524AB00
:1043100003EBC90400260027F5E9022374E8020133
:1043200000F01CFF02460B463046394600F064FDA3
:10433000444506460F46EFD1EAE90267DA4509F13E
:104340000109D7D1099D05F18043023B9B001A1D4D
:1043500010A90A440B440F920E939CAB03EBC503C8
:10436000002D53E928672BDD9CAB03EBC504A83C6B
:104370000DF13C0A0DF5E47B0022384B30463946FE
:1043800000F0ECFE01F09AF900F082FE0022344BBE
:104390008046894600F0E2FE02460B46304639462A
:1043A00000F028FD01F08AF974E802234AF8040FAE
:1043B0004946404600F020FD5C4506460F46DBD1ED
:1043C000089C30463946224600F08AFC00224FF015
:1043D0007F5306460F4600F0C1FE00F0F9FB0022B5
:1043E000204B00F0BBFE02460B463046394600F03B
:1043F00001FD0F46064601F061F9814600F048FED6
:1044000002460B463046394600F0F4FC002C0646C6
:104410000F4640F3EF80691E10AAC4F1180352F84A
:10442000212042FA03F000FA03F3D31A10AAC4F1D0
:10443000170842F82130814443FA08F8B8F1000F18
:104440003DDD002D09F1010940F3D482002214461C
:104450000FA911E024A50000ABAAAA2A0000703E13
:104460000000704100002040C3F180700BB1086073
:104470000124013295420DDD51F8043F002CF3D0A8
:10448000C3F1FF13013203F57F4395420B604FF0F8
:104490000104F1DC089B002B0DDD012B00F0B28044
:1044A000022B08D16A1E10AB10A953F82230C3F3B7
:1044B000150341F82230B8F1020F00F0828000228B
:1044C00000233046394601F0B1F8002800F05C8244
:1044D000099B05F1FF3B5B4510DC05F1804310AA09
:1044E000013B0F9802EB8303002253F80419834227
:1044F00042EA0102F9D1002A40F0B280099B10AAD9
:10450000013B52F82330002B40F072820E9A0123B7
:1045100052F8041901330029FAD0E9186A1C8A42BA
:104520000C9149DC0D990B985118DB0001F1804189
:104530000593A79B05440139E80003EB810A24ABEE
:10454000D20003EB000B74AB13440193A2F10803F8
:10455000069007934FF000095AF8040F00F098FDF9
:10456000029B002BEBE8020128DB069B03EB09040E
:10457000079B09EB030824AB1C449844049B0026CA
:10458000A3F108050027F5E9022374E8020100F011
:10459000E5FD02460B463046394600F02DFC444509
:1045A00006460F46EFD1019BE3E802670193059BA6
:1045B00009F108099945CFD10C9DCEE600260027C8
:1045C000F1E732463B460020AF4900F013FC0646B7
:1045D0000F46002C3FF473AF089AAB49002000F05F
:1045E0007FFB02460B463046394600F003FC064688
:1045F0000F4664E710D16B1E10AA52F823304FEA21
:10460000E3581BE76A1E10AB10A953F82230C3F31E
:10461000160341F822304EE700229C4B01F024F8AB
:1046200058B980464BE700260027EAE90267DA45D9
:1046300009F101097FF45EAE84E6002D09F101095C
:10464000C8BF4FF002083FF701AF32463B4600209B
:104650008D4900F0CFFB4FF0020806460F462EE7CB
:1046600010AB089A53F82B30CDF81490183ACDF8C7
:10467000048008926BB90BF18043013B10A901EB58
:10468000830353F804190BF1FF3B183A0029F8D0C3
:104690000892089A7C49002000F022FBBBF1000F31
:1046A00004460D46C0F2B6814FEACB030DF5E8781B
:1046B00010AA02EB8B0608EB03090493043609F1F8
:1046C000080756F8040D00F0E3FC22462B4600F0E4
:1046D00045FD002267E902016D4B2046294600F0A6
:1046E0003DFDB84504460D46EBD10DF5987A4B4695
:1046F000CDF808A0DDF824A0CDF818B04FF00009DF
:104700009B46BAF1000FC0F22881DFF888815D4630
:104710005BA3D3E9002300260027002403E0A14582
:1047200010DBF8E90223F5E8020100F017FD02466C
:104730000B463046394600F05FFB0134A245064681
:104740000F46ECDA029B03EBC903ABF1080BC3E99C
:10475000006772AB5B4509F10109D2D1A69BDDF878
:1047600018B0DDF808A0032B00F28380DFE813F017
:10477000D300940094000400BBF1000F40F3548177
:10478000049BCDF808B00AEB0308D8E90067D346CC
:1047900058E9029A32463B464846514600F02CFB07
:1047A00004460D4602460B464846514600F022FBA1
:1047B00032463B4600F020FBC8E9000168E90245AB
:1047C000C34526462F46E3D1DA46DDF808B0BBF1F3
:1047D000010F40F32981049B5344D3E900679846B5
:1047E00099460DF59C7B59E902343046CDE90234F7
:1047F0001A463946234600F0FFFA04460D460246A3
:104800000B46DDE9020100F0F5FA32463B4600F0C6
:10481000F3FAC9E9000169E90245CB4526462F466E
:10482000E1D1002308F108081D4650AC184629467E
:1048300078E9022300F0E0FA444503460D46F5D13D
:10484000019A002A00F0D8800A9FDAF80440DAF8CA
:104850000C20DAF80010DAF808003B6105F1004599
:1048600004F1004402F100437D617C60FB6039602B
:10487000B860059B03F007000DF51D7DBDE8F08FC6
:1048800000000040FB21F93F0000F03F0000E03F46
:104890000000703E38A50000049C002608345444F3
:1048A00033463046194674E9022300F0A5FA544510
:1048B00006460B46F5D1019A30461946002A4FD0DC
:1048C0000A9803F10044324644600660DAE90001C8
:1048D00000F090FABBF1000F02460B460DDD0124FB
:1048E00010461946FAE9022300F086FA0134A3457E
:1048F00002460B46F4DA019909B103F10043194667
:104900000A9B1046C3E90201059B03F007000DF561
:104910001D7DBDE8F08F049B002208339A441346A6
:10492000104619467AE9022300F066FA0BF1FF3BC4
:10493000BBF1FF3F02460B46F2D1019909B103F1E9
:10494000004319460A9B1046C3E90001059B03F08A
:1049500007000DF51D7DBDE8F08F00260027F1E66C
:104960000A9B3246C3E900010B46DAE9000100F078
:1049700041FABBF1000F02460B46B0DC19460A9B18
:104980001046C3E90201BFE7089BCDF814905A42D4
:1049900030463946CDF8048000F0A2F900222C4BB5
:1049A00006460F4600F060FE002840D00022294B4A
:1049B0003046394600F0D2FB00F080FE044600F09D
:1049C00067FB0022224B00F0C9FB0B46024639462A
:1049D000304600F00FFA00F071FE089B183305F125
:1049E000010B089310AB43F8250043F82B4050E629
:1049F000012392E500244DE518462946DAE9002313
:104A0000DAE902450A9FC7E90401C7E90023C7E9BB
:104A100002452EE7A69B032B3FF62BAFDFE803F002
:104A2000151010020DF5987A00231D4608E7304650
:104A3000394600F043FE10ABAB4643F8250028E6AC
:104A4000002633460DF5987A35E70022134674E7C1
:104A5000000070410000703E2DE9F04F21F000464B
:104A6000B6F1795F85B00C4690469946054604DA62
:104A700000F024FE002800F085802A4623462846C0
:104A8000214600F06BFB06460F4602460B462846C1
:104A9000214600F063FB3EA3D3E9002382468B4608
:104AA0003046394600F05AFB3BA3D3E9002300F01F
:104AB000A1F932463B4600F051FB39A3D3E900236C
:104AC00000F09AF932463B4600F048FB36A3D3E9A2
:104AD000002300F08FF932463B4600F03FFB34A341
:104AE000D3E9002300F088F90E9BCDE900019BB3C8
:104AF0000022334B4046494600F030FBDDE90023FD
:104B0000CDE902015046594600F028FB02460B460B
:104B1000DDE9020100F06EF932463B4600F01EFB73
:104B200042464B4600F066F923A3D3E9002306462C
:104B30000F465046594600F011FB02460B463046E0
:104B4000394600F059F902460B462846214600F046
:104B500051F905B0BDE8F08F02460B4630463946A4
:104B600000F0FCFA14A3D3E9002300F043F9524605
:104B70005B4600F0F3FA2A46234600F03DF905B003
:104B8000BDE8F08F2846214605B0BDE8F08F00BF94
:104B90007CD5CF5A3AD9E53DEB9C2B8AE6E55A3EC7
:104BA0007DFEB157E31DC73ED561C119A0012A3F63
:104BB000A6F810111111813F495555555555C53F5E
:104BC0000000E03F21F00041704700BFFFFFFFFF02
:104BD000C1F30A522DE9F843A2F2FF36132E0B4619
:104BE0000D460446884607461CDC002E3FDB3A4A49
:104BF00042FA06F901EA09020243864617D034A3B5
:104C0000D3E9002300F0F8F80022002300F036FD7D
:104C100020B1002D40DB28EA090500273846294647
:104C2000BDE8F883332E06DDB6F5806F2FD0204621
:104C30001946BDE8F883A2F213424FF0FF3929FA72
:104C400002F910EA090FF2D021A3D3E9002300F002
:104C5000D3F80022002300F011FD0028DED0002D43
:104C600020DB454627EA090738462946D8E718A336
:104C7000D3E9002300F0C0F80022002300F0FEFC7E
:104C80000028CBD0002D18DB00273D46C6E70246A2
:104C90000B4600F0B1F8CCE74FF4801343FA06F668
:104CA000B044B8E7142E10D00123C6F1340603FA3D
:104CB00006F6371928BF9844D3E725F00042074B82
:104CC000224318BF1D460027A8E705F10108C8E7E1
:104CD0009C7500883CE4377EFFFF0F000000F0BFAA
:104CE000F8B5C1F30A5604460D460B46174606BBF7
:104CF00021F00043034325D00022354B00F02EFA6B
:104D0000344A974204460D460B462ADBC1F30A5645
:104D1000363E3E4440F2FE72964228DC002E12DD02
:104D200023F0FF4323F4E00343EA065520462946D7
:104D3000F8BD40F2FF729642EBD102460B4600F0FE
:104D40005BF8F8BDF8BD16F1350F1DDA4CF25033A3
:104D50009F4222462B4625DC19A1D1E9000100F033
:104D60003DF817A3D3E9002300F0F8F9F8BD224677
:104D70002B4615A1D1E9000100F030F812A3D3E9C8
:104D8000002300F0EBF9F8BD23F0FF4323F4E00328
:104D9000363643EA06552046294600220E4B00F0DF
:104DA000DDF9F8BD08A1D1E9000100F017F806A36C
:104DB000D3E9002300F0D2F9F8BD00BFAFF30080C3
:104DC00059F3F8C21F6EA5019C7500883CE4377E3C
:104DD00000005043B03CFFFF0000903C03F0004354
:104DE00021F0004242EA0301704700BF81F0004118
:104DF00002E000BF83F0004330B54FEA41044FEAC0
:104E0000430594EA050F08BF90EA020F1FBF54EA5A
:104E1000000C55EA020C7FEA645C7FEA655C00F0F6
:104E2000E2804FEA5454D4EB5555B8BF6D420CDDC7
:104E30002C4480EA020281EA030382EA000083EA4A
:104E4000010180EA020281EA0303362D88BF30BDEA
:104E500011F0004F4FEA01314FF4801C4CEA113140
:104E600002D0404261EB410113F0004F4FEA03339F
:104E70004CEA133302D0524263EB430394EA050F2A
:104E800000F0A780A4F10104D5F1200E0DDB02FA99
:104E90000EFC22FA05F2801841F1000103FA0EF22D
:104EA000801843FA05F359410EE0A5F120050EF1F3
:104EB000200E012A03FA0EFC28BF4CF0020C43FA24
:104EC00005F3C01851EBE37101F0004507D54FF031
:104ED000000EDCF1000C7EEB00006EEB0101B1F581
:104EE000801F1BD3B1F5001F0CD349085FEA3000C7
:104EF0004FEA3C0C04F101044FEA445212F5800FD2
:104F000080F09A80BCF1004F08BF5FEA500C50F16E
:104F1000000041EB045141EA050130BD5FEA4C0C51
:104F2000404141EB010111F4801FA4F10104E9D1DA
:104F300091F0000F04BF01460020B1FA81F308BFD1
:104F40002033A3F10B03B3F120020CDA0C3208DD9D
:104F500002F1140CC2F10C0201FA0CF021FA02F178
:104F60000CE002F11402D8BFC2F1200C01FA02F1E8
:104F700020FA0CFCDCBF41EA0C019040E41AA2BF0D
:104F800001EB0451294330BD6FEA04041F3C1CDAD5
:104F90000C340EDC04F11404C4F1200220FA04F0F5
:104FA00001FA02F340EA030021FA04F345EA03019F
:104FB00030BDC4F10C04C4F1200220FA02F001FA61
:104FC00004F340EA0300294630BD21FA04F02946E3
:104FD00030BD94F0000F83F4801306BF81F480117C
:104FE0000134013D4EE77FEA645C18BF7FEA655CEF
:104FF00029D094EA050F08BF90EA020F05D054EAC1
:10500000000C04BF1946104630BD91EA030F1EBFC5
:105010000021002030BD5FEA545C05D140004941C9
:1050200028BF41F0004130BD14F580043CBF01F5BC
:10503000801130BD01F0004545F0FE4141F47001A2
:105040004FF0000030BD7FEA645C1ABF194610467D
:105050007FEA655C1CBF0B46024650EA013406BF7E
:1050600052EA033591EA030F41F4002130BD00BF3D
:1050700090F0000F04BF0021704730B54FF48064FA
:1050800004F132044FF000054FF0000150E700BF7B
:1050900090F0000F04BF0021704730B54FF48064DA
:1050A00004F1320410F0004548BF40424FF00001C7
:1050B0003EE700BF42004FEAE2014FEA31014FEA0A
:1050C00002701FBF12F07F4393F07F4F81F0605159
:1050D000704792F0000F14BF93F07F4F704730B5C8
:1050E0004FF4607401F0004521F0004120E700BF5B
:1050F00050EA010208BF704730B54FF000050AE0E2
:1051000050EA010208BF704730B511F0004502D5E2
:10511000404261EB41014FF4806404F132045FEAE4
:10512000915C3FF4DCAE4FF003025FEADC0C18BF89
:1051300003325FEADC0C18BF033202EBDC02C2F17F
:10514000200300FA03FC20FA02F001FA03FE40EA11
:105150000E0021FA02F11444C1E600BF70B54FF011
:10516000FF0C4CF4E06C1CEA11541DBF1CEA1355F3
:1051700094EA0C0F95EA0C0F00F0DEF82C4481EA5B
:10518000030621EA4C5123EA4C5350EA013518BF7B
:1051900052EA033541F4801143F4801338D0A0FB68
:1051A00002CE4FF00005E1FB02E506F00042E0FB15
:1051B00003E54FF00006E1FB03569CF0000F18BF1B
:1051C0004EF0010EA4F1FF04B6F5007F64F54074C3
:1051D00004D25FEA4E0E6D4146EB060642EAC62156
:1051E00041EA55514FEAC52040EA5E504FEACE2EC3
:1051F000B4F1FD0C88BFBCF5E06F1ED8BEF1004FC6
:1052000008BF5FEA500E50F1000041EB045170BD41
:1052100006F0004646EA010140EA020081EA030185
:10522000B4EB5C04C2BFD4EB0C0541EA045170BD81
:1052300041F480114FF0000E013C00F3AB8014F1FB
:10524000360FDEBF002001F0004170BDC4F1000444
:10525000203C35DA0C341BDC04F11404C4F12005C5
:1052600000FA05F320FA04F001FA05F240EA020020
:1052700001F0004221F0004110EBD37021FA04F656
:1052800042EB06015EEA430E08BF20EAD37070BD10
:10529000C4F10C04C4F1200500FA04F320FA05F06F
:1052A00001FA04F240EA020001F0004110EBD37071
:1052B00041F100015EEA430E08BF20EAD37070BDE1
:1052C000C4F1200500FA05F24EEA020E20FA04F3BA
:1052D00001FA05F243EA020321FA04F001F0004169
:1052E00021FA04F220EA020000EBD3705EEA430EDA
:1052F00008BF20EAD37070BD94F0000F0FD101F009
:105300000046400041EB010111F4801F08BF013C41
:10531000F7D041EA060195F0000F18BF704703F07F
:105320000046520043EB030313F4801F08BF013D06
:10533000F7D043EA0603704794EA0C0F0CEA1355C2
:1053400018BF95EA0C0F0CD050EA410618BF52EA7C
:105350004306D1D181EA030101F000414FF0000082
:1053600070BD50EA410606BF1046194652EA430690
:1053700019D094EA0C0F02D150EA013613D195EA04
:105380000C0F05D152EA03361CBF104619460AD14C
:1053900081EA030101F0004141F0FE4141F4700156
:1053A0004FF0000070BD41F0FE4141F4780170BD46
:1053B00070B54FF0FF0C4CF4E06C1CEA11541DBFAB
:1053C0001CEA135594EA0C0F95EA0C0F00F0A7F8AD
:1053D000A4EB050481EA030E52EA03354FEA0131DA
:1053E00000F088804FEA03334FF0805545EA1313ED
:1053F00043EA12634FEA022245EA111545EA1065B5
:105400004FEA00260EF000419D4208BF964244F14B
:10541000FD0404F5407402D25B084FEA3202B61A6A
:1054200065EB03055B084FEA32024FF480104FF43E
:10543000002CB6EB020E75EB030E22BFB61A7546B2
:1054400040EA0C005B084FEA3202B6EB020E75EB45
:10545000030E22BFB61A754640EA5C005B084FEAAD
:105460003202B6EB020E75EB030E22BFB61A75467A
:1054700040EA9C005B084FEA3202B6EB020E75EB85
:10548000030E22BFB61A754640EADC0055EA060E46
:1054900018D04FEA051545EA16754FEA06164FEA89
:1054A000C30343EA52734FEAC2025FEA1C1CC0D135
:1054B00011F4801F0BD141EA00014FF000004FF0C2
:1054C000004CB6E711F4801F04BF01430020B4F183
:1054D000FD0C88BFBCF5E06F3FF6AFAEB5EB030C3B
:1054E00004BFB6EB020C5FEA500C50F1000041EB38
:1054F000045170BD0EF0004E4EEA113114EB5C0405
:10550000C2BFD4EB0C0541EA045170BD41F48011D7
:105510004FF0000E013C90E645EA060E8DE60CEADF
:10552000135594EA0C0F08BF95EA0C0F3FF43BAFFC
:1055300094EA0C0F0AD150EA01347FF434AF95EAB3
:105540000C0F7FF425AF104619462CE795EA0C0F97
:1055500006D152EA03353FF4FDAE1046194622E764
:1055600050EA410618BF52EA43067FF4C5AE50EA3E
:1055700041047FF40DAF52EA43057FF4EBAE12E72E
:105580004FF0FF3C06E000BF4FF0010C02E000BF0F
:105590004FF0010C4DF804CD4FEA410C7FEA6C5CF2
:1055A0004FEA430C18BF7FEA6C5C1BD001B050EA95
:1055B000410C0CBF52EA430C91EA030F02BF90EA80
:1055C000020F0020704710F1000F91EA030F58BF3F
:1055D000994208BF90422CBFD8176FEAE37040F0A1
:1055E000010070474FEA410C7FEA6C5C02D150EA3F
:1055F000013C07D14FEA430C7FEA6C5CD6D152EAFA
:10560000033CD3D05DF8040B704700BF84461046BE
:1056100062468C461946634600E000BF01B5FFF7BD
:10562000B7FF002848BF10F1000F01BD4DF808ED8D
:10563000FFF7F4FF0CBF012000205DF808FB00BF5E
:105640004DF808EDFFF7EAFF34BF012000205DF8B8
:1056500008FB00BF4DF808EDFFF7E0FF94BF012005
:1056600000205DF808FB00BF4DF808EDFFF7CEFF06
:1056700094BF012000205DF808FB00BF4DF808ED45
:10568000FFF7C4FF34BF012000205DF808FB00BF16
:105690004FEA410C7FEA6C5C02D150EA013C0AD12E
:1056A0004FEA430C7FEA6C5C02D152EA033C02D120
:1056B0004FF0000070474FF0010070474FEA410281
:1056C00012F5001215D211D56FF47873B3EB625254
:1056D00012D94FEAC12343F0004343EA505311F07B
:1056E000004F23FA02F018BF404270474FF000000D
:1056F000704750EA013005D111F0004008BF6FF04B
:10570000004070474FF00000704700BF80F000403D
:1057100002E000BF81F0004142001FBF5FEA410389
:1057200092EA030F7FEA226C7FEA236C6AD04FEA89
:105730001262D2EB1363C1BFD218414048404140CE
:10574000B8BF5B42192B88BF704710F0004F40F480
:10575000000020F07F4018BF404211F0004F41F49C
:10576000000121F07F4118BF494292EA030F3FD068
:10577000A2F1010241FA03FC10EB0C00C3F120037B
:1057800001FA03F100F0004302D5494260EB40000A
:10579000B0F5000F13D3B0F1807F06D340084FEA75
:1057A000310102F10102FE2A51D2B1F1004F40EB6A
:1057B000C25008BF20F0010040EA030070474900D2
:1057C00040EB000010F4000FA2F10102EDD1B0FA9D
:1057D00080FCACF1080CB2EB0C0200FA0CF0AABF92
:1057E00000EBC25052421843BCBFD0401843704730
:1057F00092F0000F81F4000106BF80F40000013236
:10580000013BB5E74FEA41037FEA226C18BF7FEA0C
:10581000236C21D092EA030F04D092F0000F08BF4E
:105820000846704790EA010F1CBF0020704712F035
:105830007F4F04D1400028BF40F00040704712F174
:1058400000723CBF00F50000704700F0004343F0D9
:10585000FE4040F4000070477FEA226216BF08460F
:105860007FEA23630146420206BF5FEA412390EAD2
:10587000010F40F4800070474FF0000304E000BFC8
:1058800010F0004348BF40425FEA000C08BF704779
:1058900043F0964301464FF000001CE050EA01023D
:1058A00008BF70474FF000030AE000BF50EA010252
:1058B00008BF704711F0004302D5404261EB41013F
:1058C0005FEA010C02BF84460146002043F0B64364
:1058D00008BFA3F18053A3F50003BCFA8CF2083A89
:1058E000A3EBC25310DB01FA02FC634400FA02FC92
:1058F000C2F12002BCF1004F20FA02F243EB020099
:1059000008BF20F00100704702F1200201FA02FCFA
:10591000C2F1200250EA4C0021FA02F243EB0200ED
:1059200008BF20EADC7070474FF0FF0C1CEAD05231
:105930001EBF1CEAD15392EA0C0F93EA0C0F6FD0F2
:105940001A4480EA010C400218BF5FEA41211ED0D0
:105950004FF0006343EA501043EA5111A0FB0131BC
:105960000CF00040B1F5000F3EBF490041EAD37191
:105970005B0040EA010062F17F02FD2A1DD8B3F10D
:10598000004F40EBC25008BF20F00100704790F07C
:10599000000F0CF0004C08BF49024CEA502040EACE
:1059A00051207F3AC2BFD2F1FF0340EAC250704794
:1059B00040F400004FF00003013A5DDC12F1190FD2
:1059C000DCBF00F000407047C2F10002410021FA44
:1059D00002F1C2F1200200FA02FC5FEA310040F15C
:1059E000000053EA4C0308BF20EADC70704792F0D5
:1059F000000F00F0004C02BF400010F4000F013A0D
:105A0000F9D040EA0C0093F0000F01F0004C02BF07
:105A1000490011F4000F013BF9D041EA0C018FE776
:105A20000CEAD15392EA0C0F18BF93EA0C0F0AD07C
:105A300030F0004C18BF31F0004CD8D180EA0100A2
:105A400000F00040704790F0000F17BF90F0004F3B
:105A5000084691F0000F91F0004F14D092EA0C0F1D
:105A600001D142020FD193EA0C0F03D14B0218BFB0
:105A7000084608D180EA010000F0004040F0FE40F6
:105A800040F40000704740F0FE4040F44000704792
:105A90004FF0FF0C1CEAD0521EBF1CEAD15392EA11
:105AA0000C0F93EA0C0F69D0A2EB030280EA010C01
:105AB00049024FEA402037D04FF0805343EA11119A
:105AC00043EA10130CF000408B4238BF5B0042F1F8
:105AD0007D024FF4000C8B4224BF5B1A40EA0C009D
