:1000000000800020BD0100007D180000491800009C
:10001000491800004918000049180000491800005C
:100020004918000049180000491800007D18000018
:100030007D18000049180000BD280000812900003B
:100040007D1800007D1800007D1800007D1800005C
:100050007D1800007D1800007D1800007D1800004C
:100060007D1800007D1800007D1800007D1800003C
:100070007D1800007D1800007D1800007D1800002C
:100080007D1800007D1800007D1800007D1800001C
:100090007D1800007D1800007D1800007D1800000C
:1000A00049100000551000007D1800007D18000068
:1000B0007D1800007D1800007D1800007D180000EC
:1000C0007D1800007D1800007D1800007D180000DC
:1000D0007D1800007D1800007D1800007D180000CC
:1000E0007D1800007D1800007D1800007D180000BC
:1000F0007D180000952B00007D180000B12C000039
:100100007D180000CD2D00007D1800007D18000036
:100110007D1800007D1800007D1800007D1800008B
:100120007D1800007D1800007D1800007D1800007B
:100130007D1800007D1800007D1800007D1800006B
:100140007D1800007D1800007D1800007D1800005B
:100150006D2A0000812A0000952A0000A92A0000CB
:100160007D180000E91D00007D1800007D180000CA
:100170007D1800007D1800007D1800007D1800002B
:100180007D1800007D1800007D1800007D1800001B
:100190007D1800007D1800007D1800007D1800000B
:1001A0007D1800007D1800007D1800007D180000FB
:1001B0007D1800007D1800007D180000564B4CF2A1
:1001C000205210B51A804DF628121A8000BF00BFC9
:1001D00001F058FB514B4FF010621A60504A9A6080
:1001E000504ADA60504A136813F4807301BF4F49D4
:1001F0000B604FF4A85313604D4B4E491A7810070B
:1002000042BF1A7842F008021A704B4B2A221A7029
:100210004A4A4B4B8B4204D252F8040F43F8040B6A
:10022000F8E7484B484A0021934202D243F8041BA6
:10023000FAE7464A4648002350F8231042F82310B4
:1002400001336F2BF8D1434B434A802103F8011B44
:100250009342FBD1414B3D4A1A60414B8A221A70AE
:10026000A3F5805324225A70A0221A709A7991071C
:10027000FCD59A79D206FCD43A4A937903F00C0360
:10028000082B384BF9D105221A7143225A719A79F9
:100290009406FCD533498A79324B5006FBD5324A55
:1002A0004FF0817111600521516020221A709A79F6
:1002B00002F00C020C2AFAD12C4B2D4A1A602D4B5D
:1002C0002D4A1A6000225A60072243F8042C2B4A58
:1002D000C3F80C2D62B601F06BFC144B1B68DA07F7
:1002E00005D5274801F054FB264B274A1A60274BB7
:1002F0001B785B0609D5234C234B22689A4204D114
:100300001F4801F045FB0023236004F0E3FE01F0E9
:10031000BFFA01F0D5F9FEE70E2005403080044019
:10032000823F04000100002B10D0034014D0034092
:1003300002D007403098FF1F00E007408C9B000070
:100340002087FF1F3098FF1F609DFF1F0082FF1F47
:100350000000000000E400E05FE400E008ED00E0E1
:1003600000500640004006404480044004800440A1
:10037000C010050014E000E03F190100000020203B
:10038000BAD6A25B1CE00340A5C3945A00F0074014
:10039000FFFFFFFFFFFFFFFFFFFFFFFFFFFFFFFF6D
:1003A000FFFFFFFFFFFFFFFFFFFFFFFFFFFFFFFF5D
:1003B000FFFFFFFFFFFFFFFFFFFFFFFFFFFFFFFF4D
:1003C000FFFFFFFFFFFFFFFFFFFFFFFFFFFFFFFF3D
:1003D000FFFFFFFFFFFFFFFFFFFFFFFFFFFFFFFF2D
:1003E000FFFFFFFFFFFFFFFFFFFFFFFFFFFFFFFF1D
:1003F000FFFFFFFFFFFFFFFFFFFFFFFFFFFFFFFF0D
:10040000FFFFFFFFFFFFFFFFFFFFFFFFDEF9FFFF23
:1004100010B5054C237833B9044B13B10448AFF33E
:1004200000800123237010BD3098FF1F00000000E2
:10043000889B0000084B10B51BB108490848AFF372
:1004400000800848036803B910BD074B002BFBD0A0
:10045000BDE81040184700BF000000003498FF1F9F
:10046000889B00003098FF1F000000002DE9F34139
:100470001E4F1F4D1F4E8046386900F051FB1E4B2A
:100480002870002483F80080347008F1FF38A045FC
:1004900007D9386900F044FB142C305501D00134E1
:1004A000F5E73444002363702B780B2B0FD004D86E
:1004B0004BB10A2B0ED102220AE0102B05D0112BD2
:1004C00008D1092204E0012202E0032200E0082210
:1004D0000A4B1A6000232B70094B1B680193019A89
:1004E000084B1A6002B0BDE8F08100BF4C9AFF1FB4
:1004F0006098FF1F4C98FF1F349AFF1F0088FF1F52
:100500007C9AFF1F309AFF1F30B51B4A7B23137064
:100510007D235371002387B053709370D370137190
:100520001C46E5B20121284601F062FA013400219F
:10053000284601F03DFA0C2CF3D101210E2001F0E8
:1005400057FA0E4C00210E2001F032FA0C4B617B61
:1005500003930122002304920293019200932069E5
:100560000D2300F083FA2369064AC3F85C22064A89
:10057000C3F8602207B030BD289AFF1F4C9AFF1FB6
:10058000801A06006D04000089060000F8B52C4BA7
:100590002C48196800F0DEFE50B12B4C2368023B5A
:1005A000072B4BD8DFE803F0200D4A4A4A4A383E71
:1005B0000446E0B20021013401F0FAF90C2CF8D124
:1005C000EBE7224B1A780D2A1E4628D1204F002532
:1005D00033789D4223DAE95D4B1E5942E8B2594116
:1005E00001F0E6F90135F3E7184E1A4A337812782C
:1005F00019491A48164F00F048FF002533789D42EC
:1006000006DA7A5D1649154800F03FFF0135F5E737
:10061000124800F023FF02E0124800F02FFE0123F1
:100620002360F8BD0F4800F09DFD0025E8B20021D1
:10063000013501F0BDF90C2DF8D1F0E7F8BD00BF90
:10064000309AFF1F6898FF1F0088FF1F349AFF1F12
:100650004C98FF1F6098FF1F88920000C48DFF1FF9
:100660009A9200006498FF1F08B51421044800F016
:100670006FFD0D210348BDE8084000F011BE00BF2A
:100680006498FF1F6898FF1F06220249024800F085
:1006900023B800BF289AFF1F4C9AFF1F0020704705
:1006A0000369D3F83801D3F83431C01A7047704762
:1006B0000269D2F84432B3F5817F09D8D2F84432C6
:1006C000581C1344C2F8440283F83C1101207047BF
:1006D000012303710020704770B50569D5F84432D5
:1006E000B3F5817F22D8D5F84442D5F84432C4F519
:1006F00081740134944238BF012205F59E7638BFDB
:10070000027103F1FF3338BF224633448D18A942EA
:1007100004D011F8014B03F8014FF8E70169D1F853
:1007200044321344C1F84432104670BD01230371B2
:10073000002070BD38B50A4B0360036993F8482266
:10074000022A044609D1D3F8645235B1284600F094
:100750006BFE0821284601F0B5F8204638BD00BFE1
:10076000A8920000002210B502710273064A0260CE
:100770004FF47A74054A84604FF41B74417304FB90
:100780000121016110BD00BFA89200000488FF1F75
:10079000F8B5C3681B789B0604460E4600F19780A7
:1007A000836880211970C3681221197090F849324A
:1007B000012B03D01AB980F8482200E01A46531ED4
:1007C000012B00F2868016B94FF0807103E0012EF4
:1007D00003D14FF00071404B1960022A73D1D4F855
:1007E000645245B9082001F06BF82946074600F02D
:1007F000C7FDC4F86472D4F864526DB12B79102B24
:100800000AD1284600F010FE0821284601F05AF8C7
:100810000023C4F8643256E036BB2A682F48938B15
:100820009BB243F0080393832A792D4B02F1100108
:1008300043F8210053119B0003F1604303F561432A
:1008400002F01F02012101FA02F21A602A68938B5A
:100850009BB243F0020393832B7903F1804303F5AA
:10086000043396221E7026E0012E25D12A681D48E9
:10087000938B9BB243F0080393832A79184B02F1C0
:10088000100143F8210053119B0003F1604303F56D
:10089000614302F01F0296402A681E60938B9BB250
:1008A00043F0020393832B7903F1804303F5043370
:1008B00000221A7097221A70002384F85A320223F9
:1008C00084F8483205E0012084F84802F8BD002091
:1008D000F8BD0120F8BD00BF00E100E049100000B4
:1008E0000082FF1F55100000F0B54FF47A74B1FB81
:1008F000F4F3B2FBF4F21D4C1B02B3FBF2F2002343
:1009000054F82350194EB2EB052F03DB0133372B7C
:10091000F6D100E03BB35D1E56F8237056F8254033
:10092000A2EB0424002CA2EB0722B8BF6442002AE9
:10093000B8BF5242944216DC0D4A4368525D1A70A9
:1009400056F82530B1FBF3F3C0F84C32094B8269FD
:1009500099428FBF0423084BB1FBF3F1C9B28CBF9E
:1009600013701170F0BD1D46E6E700BFC492000091
:10097000A0930000FF6BDC02001BB7002DE9F047DD
:100980009A469DF8203080460C4617461BB1C26837
:10099000127892060ED4BAF1000F40F2036240F2D0
:1009A000032540F264690CBF4FF41975914624B9D0
:1009B000012F07D90020BDE8F087012CFAD1BA1E1B
:1009C000012AF6E753B398F84B32002B98F84A32D5
:1009D0000CBF00260226032B20D8DFE803F0020913
:1009E00010173146112001F003F83146102013E0B2
:1009F0003146122000F0FCFF314613200CE0314656
:100A00001E2000F0F5FF31461D2005E031461F2075
:100A100000F0EEFF31461A2000F0EAFF34B91FB1B2
:100A2000012F13D10D4B0EE00D4B0CE0012C0DD11D
:100A3000022F07D0032F09D10A4BC3F80090C3F847
:100A4000049003E0084B1D6043F8045C88F84A7288
:100A500088F84BA20120BDE8F08700BF0CA004403D
:100A600004A0044000D004402CB0044073B50446F8
:100A70000D469DF8180021B9274E316841F040011C
:100A800005E0012904D1244E316841F08001316034
:100A9000002184F8511284F84922616932B9202377
:100AA0000B7023681A70E3691A7015E0002814BFF0
:100AB000282220220A70216801D0984201D95A00C8
:100AC00000E04200D2B20A70E26920B198428CBFC5
:100AD00040005800C0B21070002300939DF81C2005
:100AE0009DF8203029462046FFF748FF099A0B4918
:100AF0002046FFF7F9FE9DF8282029462046FFF7FB
:100B000047FE94F84922A3680AB9802200E0C02277
:100B10001A7002B070BD00BF34800440005125023D
:100B2000D0F83421D0F838319A423FBFD0F8343170
:100B30005A1CC0F83421C01834BF90F830004FF070
:100B4000FF3070470069FFF7EBBFD0F83421D0F8D1
:100B500038319A423DBFD0F83431C01890F8300097
:100B60004FF0FF3070470069FFF7EFBF38B5C1683D
:100B700083680D781A78D2B204469006EDB216D585
:100B800012F0100F94F85A2208D0022A00F0CB80FD
:100B900094F85A22032A40F0F080C4E0022A00F0C0
:100BA000718194F85A22032A40F095816AE115F088
:100BB000100F05F0400304D010200870002B00F047
:100BC000AE8003F0FF01002B56D094F851320A2B6F
:100BD00004D1D4F85C32002B40F0268205F00405E5
:100BE00005F0FF03F5B1092384F851320023C4F85E
:100BF0004432A368D0221A7023691B785B0884F8FA
:100C00005232D4F8603203B19847D4F844320BB969
:100C100084F83C31236994F83C211A700123C4F80C
:100C200040327CE094F84A2284F85832012A03D1F9
:100C30000322B84912200EE01AB90322B549112047
:100C400009E0022A03D10322B3491E2003E0032A4C
:100C500003D1B1491F2000F0FDFE0A2384F8513270
:100C60000023C4F83831A368C0221A7023691B78A6
:100C70005B0884F8523252E002F0100202F0FF03E7
:100C8000F2B115F0010513D1D4F84022D4F8443262
:100C90009A4207D2D4F840325A1C2344C4F8402266
:100CA00093F83C5123691D70A368D0221A7036E076
:100CB000A368C0221A7023691B7884F851122EE0B1
:100CC00094F851220A2A2AD194F84A2284F85832F8
:100CD000012A03D103228F4912200EE01AB9032200
:100CE0008C49112009E0022A03D103228A491E20DF
:100CF00003E0032A03D188491F2000F0ABFE2369DB
:100D00001A78D4F83831B3F5817FD2B207D8D4F845
:100D10003831591C2344C4F8381183F83020E36873
:100D200002221A7038BDD4F864321A68928B100609
:100D300000F19D8094F85A22032A0ED10A781506F4
:100D4000FCD51A79754B1A70002384F85A32D4F8FE
:100D50004432013BC4F8403207E01A79704B1968FD
:100D6000012393400B42DAD0A1E0D4F8403222694B
:100D7000234493F83C311370D1E794F85122012AAF
:100D80003CD105F0100202F0FF006AB107220023F7
:100D900084F85A3284F8512212220A70A268802103
:100DA0001170C4F8403238BD15F0010508D084F840
:100DB0005A02D4F8402292B3062284F85122F5E078
:100DC000D4F840220132C4F84022D4F844128A42B6
:100DD00002D384F8515243E094F85A22012AC4D134
:100DE000022284F85A22F1221A70D4F864321A7955
:100DF0004C4B1A70236994F83D2157E794F851221F
:100E0000D2B2022A27D1E80607D5072384F8513247
:100E100012230B70A368802283E7ED0701D505221A
:100E2000CBE794F85A12012908D184F85A22E1221A
:100E30001A70D4F864321A793A4B08E0032284F825
:100E40005122D4F85422012A0CBFE822E0221A7061
:100E500023691B7863E794F85122042A40F0A680A6
:100E600094F85022012A00F0A180B0221EE794F8E5
:100E70005A22022A7FF45EAF1A792B4B1A70A368AC
:100E8000F0220FE0D4F864321A681B79928B12F0CA
:100E9000800F4DD094F85A22022A49D1224A137069
:100EA000A368E8221A70032384F85A3237E71E4BEE
:100EB0001A70D4F864321A791C4B1A700023EA06AF
:100EC00084F85A327FF52BAF072284F85122E2686A
:100ED0001221117062E7D4F83821D4F8541202328A
:100EE0008A4265D094F85122042A03D194F85922F9
:100EF000002A5DD0D4F83831D4F85422013393421B
:100F000071D294F85132042B55D194F85932002BF8
:100F100069D150E0F5100000011100001C80004074
:100F20002C8000401B8000401F8000401E8000403D
:100F300094F85A22032A25D13F4A1370002384F8DB
:100F40005A3294F85122042A18BF84F85132A36807
:100F5000B0221A70D4F85432013BC4F83831D4F8B6
:100F600038315A1CC4F8382122692344127883F896
:100F7000302094F85032012B7FF4D1AE1823013B7E
:100F8000FDD112E02D4A116801229A400A423FF435
:100F9000C6AE2B4A1370D4F864321A79294B1A70F2
:100FA000002384F85A3284F85132A36880227DE607
:100FB000E8221A709EE7D4F838315A1CC4F8382158
:100FC00022692344127883F8302094F85132042B9C
:100FD0007FF4A5AE94F85932002B7FF4A0AE012324
:100FE00084F859329BE694F851220023042A84F8AD
:100FF000593201D084F85132A368B0221A70D4F863
:1010000038315A1CC4F8382122692344127883F8F5
:10101000302094F85032012BD7D11823013BFDD159
:10102000A36880221A70D0E70022C4F83421D4F8D3
:1010300038019847D2E500BF1C8000402C8000405A
:101040001E8000401F80004000210148FFF78EBD38
:101050000488FF1F01210148FFF788BD708AFF1F28
:1010600010B5C3681B7803F02003044603F0FF02A9
:10107000F3B990F84A3280F85122012B01D11220A5
:1010800009E00BB9112006E0022B01D11E2002E07D
:10109000032B02D11F2000F039FCD4F85C3243B39B
:1010A0000022C4F83421D4F83801BDE810401847B4
:1010B00090F858320133DBB2012B80F8583204D853
:1010C00090F84932012B00D110BD94F84A32012B1F
:1010D00001D1122009E00BB9112006E0022B01D149
:1010E0001E2002E0032B04D11F20BDE8104000F0B9
:1010F0000DBC10BD00210148FFF7B2BF0488FF1FDF
:1011000001210148FFF7ACBF708AFF1F38B50C4BB7
:101110000C4D0D4C18460021FFF724FB2A462146B2
:10112000184601F0F3FE094B01211846FFF71AFBA0
:101130002A4621461846BDE8384001F0E7BE00BF08
:101140004C9AFF1FFC87FF1F35070000389AFF1FCE
:1011500038B504460D46E8B2012100F049FC25608F
:10116000204638BD38B5002204464FF47A71007825
:1011700000F0F0F91A4B013BFDD11A4D207800F038
:1011800075FA2B46013BFDD100224FF47A7120788D
:1011900000F0E0F92B46013BFDD1207800F066FA23
:1011A0002B46013BFDD100224FF47A71207800F0EC
:1011B000D1F92B46013BFDD1207800F057FA013DD3
:1011C000FDD100224FF41671207800F0C3F9064BD0
:1011D000013BFDD12078BDE8384000F047BA00BFA0
:1011E00000F22B0000F9150000E457002DE9F74349
:1011F0001E46214B1B680193019814460D4603F0CF
:101200001FFD314603F028FE03F038F901F084FE9B
:101210008046894620464FF0804103F061FC03F090
:101220002DF9064620460F4603F028F942464B4664
:1012300003F078F902460B463046394602F0C0FF0B
:1012400003F020FC182444430526EDB20121284672
:1012500000F0AEFB14B12346013BFDD1002128462E
:1012600000F0A6FB14B12346013BFDD1013EEDD1B8
:1012700003B0BDE8F08300BF7C9AFF1F38B5054678
:101280004FF47A74044B054A29682846FFF7AEFFED
:10129000013CF7D138BD00BF0000F0410000C8425A
:1012A00038B50023037043604FF4FA6304460D46DB
:1012B0008360C3614FF4C87205492C3000F008FA0E
:1012C000E8B2012100F094FBC4F8BC51204638BDBF
:1012D000D8930000012190F8BC0100F069BB83683D
:1012E00070B553431546FF22B3FBF2F34361044646
:1012F0000E4600F027FCE0603DB161686369411A69
:1013000099422CBF0021012100E0294684F82010D9
:10131000F0B200F04DFB6268E368A168981A884259
:1013200098BF1346636070BD426A836AB2F57A7FE4
:10133000B4BF01320022426202B90133642BA8BF5C
:101340000023836200EB8303D0F8BC11DA6AFFF755
:10135000C6BFFFFF07B5094B1B680193019B836163
:10136000591AC369994203D2FFF7DEFF012002E058
:10137000FFF7B0FF002003B05DF804FB7C9AFF1F6D
:1013800030B572B6254C89B9016879B103790F2B54
:101390000CD822881A41D20708D503F1007303F54F
:1013A0009063B1EB431F01D162B630BD21880023A9
:1013B00041FA03F212F0010227D101259D40294391
:1013C000218062B6164DD9B201712C6844F0020436
:1013D0002C6055F8044C03F1007344F0020445F806
:1013E000044C03F590630F4C5B0182252560A176C8
:1013F000A1772176E17703601A605A609A60DA601B
:101400001A615A619A61DA6130BD0133102BCFD174
:1014100062B600220260037130BD00BF609AFF1FF8
:10142000408004400080004003790F2B10D8094A07
:10143000137072B608490279012303FA02F20B888D
:1014400023EA02030B8062B61023037100230360BA
:10145000704700BF1A800040609AFF1F07B5064B17
:101460001B88ADF80430036802225B6801A9984725
:1014700003B05DF804FB00BF6895000010B5036879
:1014800014465B689847204610BD0EB403B503AA06
:1014900052F8041B019204F027FC02B05DF804EB43
:1014A00003B0704710B5044601F0BEFA204610BDE7
:1014B0001F4A2048136870B5012116464BB10068D9
:1014C000013B80F88010591D08BF6FF002031360C4
:1014D00070BD0368184C197023680BB3174B1D6857
:1014E0000021284603F0ACFDA8B91549284603F0B1
:1014F000BBFD80B91349284603F0FAFB4FF07C513D
:1015000003F0ECFA03F0BAFD2328024603D90E4992
:101510000E4801F041FA236833600023236070BD58
:101520000A4801F081FA0A4BFF221A7070BD00BF11
:10153000749AFF1F6C9AFF1F709AFF1F789AFF1F03
:10154000398EE34C00001042B1140000649AFF1F72
:10155000DC8CFF1F21282DE9F84307466ED83AB1ED
:101560004A434FF47A74B2FBF4F46400013401E0AE
:101570006FF00204002914BF0846012003F060FB4D
:1015800001462F4803F068FC2E4B03EBC7020546CB
:10159000516872B62C4ADFF8D08092F800E02B4EEA
:1015A0007745994614D1D8F8001003F035FD30B1D5
:1015B000336803F00103013B1C4434603DE0244BDD
:1015C000C8F800501C60336803F00103336034E056
:1015D00020481770BEF1210F9EBF03684FF0010C29
:1015E00083F800C059F83730346003F58072026028
:1015F000012283F8002183F880224FF4A2730B604C
:10160000C8F800500021284603F01AFDA8B9124975
:10161000284603F029FD80B91049284603F068FBED
:101620004FF07C5103F05AFA03F028FD23280246BC
:1016300003D90B490B4801F0AFF962B6BDE8F88356
:101640000024F4486C950000DC8CFF1F749AFF1F87
:10165000709AFF1F6C9AFF1F398EE34C00001042F6
:10166000B1140000649AFF1F789AFF1F212810B55B
:101670000ED872B6074C2378834208D1064801F091
:10168000D3F9064B1B6801221A70FF23237062B640
:1016900010BD00BFDC8CFF1F649AFF1F6C9AFF1FF8
:1016A0000448054A0549002303608023037101F0C3
:1016B0002DBC00BF649AFF1FFC87FF1FA51400000C
:1016C00008B5FEF721FFFEF761FF01F089F8FAE7A0
:1016D000844641EA000313F003036DD1403A41D33D
:1016E00051F8043B40F8043B51F8043B40F8043BFC
:1016F00051F8043B40F8043B51F8043B40F8043BEC
:1017000051F8043B40F8043B51F8043B40F8043BDB
:1017100051F8043B40F8043B51F8043B40F8043BCB
:1017200051F8043B40F8043B51F8043B40F8043BBB
:1017300051F8043B40F8043B51F8043B40F8043BAB
:1017400051F8043B40F8043B51F8043B40F8043B9B
:1017500051F8043B40F8043B51F8043B40F8043B8B
:10176000403ABDD2303211D351F8043B40F8043B2B
:1017700051F8043B40F8043B51F8043B40F8043B6B
:1017800051F8043B40F8043B103AEDD20C3205D33B
:1017900051F8043B40F8043B043AF9D2043208D033
:1017A000D2071CBF11F8013B00F8013B01D30B88A5
:1017B00003806046704700BF082A13D38B078DD083
:1017C00010F003038AD0C3F10403D21ADB071CBF55
:1017D00011F8013B00F8013B80D331F8023B20F8BF
:1017E000023B7BE7043AD9D3013A11F8013B00F8F8
:1017F000013BF9D20B7803704B7843708B78837080
:101800006046704701B5EAB1102A17DB00F0070304
:1018100033B1C3F10803D21A013B00F8011BFBDC12
:10182000C9B241EA012141EA01418C46D308013B9A
:10183000E0E8021CFBDC12F0070203D0013A00F8DA
:10184000011BFBDC01BD00BF08B50B4D2C462B680E
:10185000580301D500F0C8FA2368590501D501F0F5
:1018600099F923681A0501D501F022FA2368DB04EF
:10187000EDD501F0ABFAEAE73480044008B5FFF794
:10188000E3FFFFFF014B10221A8070470020054044
:101890007047FFFF094908B50B6868B16A461844EC
:1018A000A2F58052904206D303F00EFC0C23036095
:1018B0004FF0FF3008BD0860184608BDE08CFF1FE0
:1018C00003F030BC03F036BC30B503460020B3FB58
:1018D000F2F402FB1433092B94BF30333733DBB2FD
:1018E0000B5423460CB10130F1E70A18234654701B
:1018F000C41AA34206DACC5C1578CD5402F801492B
:101900000133F5E7084630BD7047FFFF194B03EB85
:10191000C000426802F14043A3F592217C2910D90E
:10192000A3F594217C290ED9A3F596217C290CD905
:10193000A3F598217C290AD9A3F59A237C2B08D9F1
:1019400070470D4906E00D4904E00D4902E00D49DC
:1019500000E00D4972B6136823F0877323F48033D7
:1019600043F080731360C2F38402084B41F82230C5
:1019700062B670476C950000E48CFF1F1C8DFF1F42
:101980006C8DFF1F9C8DFF1FBC8DFF1F0919000070
:10199000044B054900221A600A60044A10601022B4
:1019A0001A60704714D0034004D0034000D00340B5
:1019B000212810B518D80D4B53F8302092F88042EA
:1019C0003CB1012311B182F8803010BD82F80031A2
:1019D00010BD03EBC0035B681A6811B142F003024B
:1019E00001E022F002021A6010BD00BF6C950000F9
:1019F000212810B52BD8164A02EBC00301295B68D9
:101A0000144601D004290FD154F83020012082F867
:101A100080024FF4A2721A601A6804290CBF42F0C7
:101A2000200222F0200211E052F83000002280F85B
:101A3000802211B94FF4807208E0022902D140F2ED
:101A4000031203E0032908BF4FF481721A6010BD2E
:101A50006C950000212870B50E4659D8042A57D835
:101A6000DFE802F0070905030B00092306E00A235B
:101A700004E0082302E00C2300E00B231D04254BA7
:101A800003EBC0035C68216811F4E06101D1FFF74A
:101A9000AFFF214B214AC3F89C21214AC3F8A02162
:101AA000204AC3F8A421204AC3F8A8211F4AC3F83A
:101AB000AC2104F14043A3F592227C2A10D9A3F56E
:101AC00094227C2A0ED9A3F596227C2A0CD9A3F560
:101AD00098227C2A0AD9A3F59A237C2B08D970BDB9
:101AE000134B06E0134B04E0134B02E0134B00E0F2
:101AF000134B72B6226822F47022226042F0807189
:101B0000C4F3840243F8226045EA0103236062B60D
:101B100070BD00BF6C9500000082FF1FD187FF1FC2
:101B2000A587FF1F7987FF1F4D87FF1F2187FF1F95
:101B3000E48CFF1F1C8DFF1F6C8DFF1F9C8DFF1FF2
:101B4000BC8DFF1F72B60C4B0C4A0D491B68126806
:101B5000096862B6490102D5322B88BF0132C3F54C
:101B60008C33482003F23F13B3FBF0F34FF47A7049
:101B700000FB0230704700BF18E000E07C9AFF1FB6
:101B800004ED00E038B50446FFF7DCFF054624B954
:101B900038BD013C0AD005F57A75FFF7D3FF401B2D
:101BA000B0F57A7FF5D200F01BFEF6E738BDFFFFF7
:101BB000214B4FF4000210B51A604FF080721A608A
:101BC0004FF000721A604FF080621A604FF00062AE
:101BD0001A601A4B1A4A1B4C002048F6FF71186015
:101BE00059602823136093601361936113629362B9
:101BF000136393630922226004F580540434206047
:101C00006160A360236144F8042C04F5FE24206085
:101C10000D4801600D490B608B600D4B1A6000F0A0
:101C20004DFF3220FFF7AEFF00F0EAFB4FF4AF703C
:101C3000BDE81040FFF7A6BF08E100E004800340C4
:101C40000C8003400080034008800B400C800B4058
:101C500000800B40F0B50C4C0C4E23780C4D43F03B
:101C6000020706EBC70283F0010350602A78237055
:101C7000002A14BFC820882082F0010240EA0141F6
:101C80002A7046F83710F0BDE89AFF1F0080FF1F4A
:101C9000609BFF1F431E032B10B510D872B6094A74
:101CA00052F8230048B1416842F8231006490488DD
:101CB00031F81320121B21F8132062B610BD00204A
:101CC00010BD00BFD89AFF1F489DFF1F0138032891
:101CD0000AD872B6054B53F82030002013B10130FA
:101CE0005B68FBE762B67047002070472C9BFF1FC4
:101CF00070B472B6174C184901231A1912F8012C46
:101D000012071DD59A00144E51F832502DB906EB2A
:101D1000431308305860114B09E042F0010251F8BA
:101D200032506DB906EBC203083058600C4B46F8D0
:101D300032300C4A1378013B137062B670BC7047A6
:101D40000133052BD9D162B6064B00221A7070BC44
:101D500000F0CABBA49600000080FF1F880040006E
:101D6000C8004000569BFF1F431E032B10B532D8FE
:101D7000194A400140F01000104472B6174AD45C72
:101D8000032C0BD8DFE804F018040207052414E044
:101D90000830022411E0083004240EE01048114AF3
:101DA00050F8234014B940F8231002E052F8230001
:101DB000416042F823100DE00324D45410F0080FC2
:101DC00001F108030A88436014BFC823882343EA4B
:101DD0000243036062B610BD0080FF1F949AFF1F8C
:101DE0002C9BFF1F3C9BFF1F2DE9F74FA94B1C7835
:101DF000E4B214F0040F1D461AD0A74B1B78A3B110
:101E0000A64A117801F0FF0321B1013BDBB2137048
:101E100003B900BEA24A117801F0FF0329B1013BCA
:101E2000DBB213700BB900F0B7FC9A4A04231370AD
:101E300004F0080303F0FF02002B00F07182994BBD
:101E4000994C1B78DBB21F094FEA930640F0EC81F6
:101E500004EBC603596854F83630C3F38303013BDF
:101E60000C2B00F2DD81DFE813F09A019A01DB010F
:101E7000DB01DB01DB01DB01DB01B901DB01DB01A4
:101E8000DB010D000A68894D89484B682A600121F1
:101E90006B60DFF85082874B017092B240F2816034
:101EA00044F8363082424FF00003C8F80030236116
:101EB000A36117D8B2F5D06F80F02781B2F5817F8A
:101EC00000F0D88006D8802A00F0C180822A00F075
:101ED000C28035E140F202339A4200F00781B2F548
:101EE000A06F1AE042F22100824200F055810CD826
:101EF000B2F5086F00F0A580B2F5106F40F02081B8
:101F0000654AA97811701E460AE042F221218A42F0
:101F100000F00E8142F221339A4200F015810FE168
:101F2000A219136A1F0603D5506A083800F0DCFABC
:101F30000836802EF4D1DFF8B0915F4F0026CA46F4
:101F400059F826004FEA860B30B14268009200F043
:101F5000CBFA009A1046F7E7584B594A4AF80B005B
:101F60004BF803005BF8020040B141680192009118
:101F700000F0BAFA0099019A0846F5E7514B42F889
:101F80000B0023F816003B784F4A023B4BF8020047
:101F9000032B07D8DFE803F002040204002300E06B
:101FA00001233B700136042E07F10107C8D1474BCE
:101FB000474E404F00221A704FF0010B9946454A98
:101FC0000BEB06015A4411F8011C920011F0080FA6
:101FD00011704FEA8B0A24D000F068FA38B104EB94
:101FE0004B1208303C4B506044F83A3006E099F808
:101FF000002044F83A00013289F8002000F056FA37
:102000004AF0010230B104EBC2010830486044F8E4
:10201000327006E044F8320099F80020013289F865
:1020200000204AF002010BF1010B4AF0030A0022E2
:10203000BBF1050F44F8312044F83A20BFD11346D4
:1020400083E0154B254E1B7833700B4680E0234E02
:10205000337073707BE0AA8802F07F02042A6FD885
:102060001E4E9200337073701D4B9B5C9C076ED5A7
:1020700031706CE0AA8802F07F02042A60D86B8875
:10208000002B5DD11649920011440A7822F0020219
:1020900039E000BF802007405F9BFF1FE99AFF1FC8
:1020A000619BFF1F902007400080FF1F4C9BFF1F7C
:1020B000609BFF1FC8004000949AFF1F849AFF1F77
:1020C0002C9BFF1F489DFF1F3C9BFF1F569BFF1F24
:1020D000A496000030C8011088004000579BFF1FE5
:1020E000C0200740809AFF1FD89AFF1FAA8802F0DD
:1020F0007F02042A24D86B8813BBA549920011449F
:102100000A7842F002020A701FE06A88A988A14B8F
:102110005E68AEB11888904208D15888884205D1CF
:10212000120A032A0CBF33781B8911E00C33EFE746
:10213000994A1168994A1160994AA978117004E086
:10214000934B0F221A7027E000231E4600E0022363
:10215000EC889C4228BF1C46402C254628BF4025C1
:1021600030462946FFF776FD641B2E4403D1402DEF
:1021700012D1254603E0402C254628BF4025304695
:102180002946FFF767FD641B2E4401D1402D03D182
:10219000844BC8F800601C800122834B3FE0834BD6
:1021A0001A8842F221039A4214D1814A0023C85C62
:1021B00098540133072BFAD17D4B1B68862B08BF3F
:1021C0007C4B4FF0000108BF0F22084608BF1A7071
:1021D000FFF740FD784B44F8363021E0774F3E68FA
:1021E000A6B1DFF8C081B8F80040402C254628BFD2
:1021F000402530462946FFF72DFD601B80B2A8F828
:10220000000008B9402D00D170193860674B1A885A
:10221000B2F5A06F04D100225A709A78684B1A70F8
:10222000614B01221A7077E004EBC605013F6A6832
:1022300003F00803A2F10800FFB203F0FF0E002B29
:1022400036D000F051F95F485F4A50F82710E9B1E5
:102250004B6840F8273001F108036B60D35D032B16
:102260000BD8DFE803F002040608032304E002238E
:1022700002E0052300E00423D35515F0080F0A8877
:1022800014BFC823882343EA024343E0D35D032BF2
:1022900007D8DFE803F041410204002306E00123F0
:1022A00004E015F0080F14BF03230223D35533E0D5
:1022B00054F836301B0C99B222F8081C23B3434B58
:1022C00022F806EC42F804EC53F82720DFF82CE162
:1022D00012B943F8270002E05EF8273058603C4A04
:1022E0004EF8270032F817300B4422F8173000F070
:1022F000DDF810B10830686006E0364A44F8360070
:1023000013780133137007E0334A2B4B15F0080F95
:1023100008BF134644F83630304A0823137065E589
:10232000E0071ED520492C482D4C02230B702D4B65
:102330001A702D4B186098602C48D8601A619A6109
:102340005C60134B0D2018702948FF2303702B701D
:102350000274284A1370284B9F221A7001230B70B5
:1023600012E0210604D50A4B0D221A7080232B702F
:10237000A20705D51E4A1378DBB2137002232B7017
:10238000E30644BF10232B7003B0BDE8F08F00BFFD
:10239000C0200740A89600007C9AFF1F589DFF1F91
:1023A000709BFF1F549BFF1F942007404C9BFF1FF7
:1023B000509DFF1FE99AFF1FC8004000809AFF1F31
:1023C000982007402C9BFF1F949AFF1FD89AFF1F4D
:1023D000489DFF1F569BFF1F88004000802007403C
:1023E000989AFF1FE89AFF1F0080FF1FEC9AFF1FBB
:1023F000882007408C20074084200740849AFF1FD4
:1024000010B500F049FD0023194819461950C418A9
:102410000833882B164A6160F8D116490B6843F4DB
:1024200080230B60144BC2F307211970C2F30741DC
:10243000120E19751A76114AFF23137000211372B8
:1024400002F8703C0123137582F8801013710C4B55
:1024500070226FF450711A700B444FF400721A60BE
:1024600003F1C04303F5C82310221A7010BD00BF4A
:102470000080FF1F348004409C20074080200740DC
:1024800049E400E000F0A2B800F076B800F04EB8E1
:1024900000F08EB800F052B900F02CB90846114691
:1024A00000F0ACB8084600F019B9704710B572B624
:1024B0000B480268B2FA82F10B2902DD62B60020F5
:1024C00010BD4FF00043CB4022EA0302026062B627
:1024D000044C48234B43E0180022E250426010BDF8
:1024E000D48DFF1FBC83FF1F0C4B4822C31AB3FBC4
:1024F000F2F30B2B11D80A4A127822B1094A12784A
:102500000AB1FFF7F5BB72B607494FF0004222FA55
:1025100003F30A681A430A6062B67047BC83FF1F60
:10252000569BFF1F5F9BFF1FD48DFF1F10B5104CE4
:1025300023686BB1206843885A1C03441C7A0388C3
:102540009A4212D3FFF7D0FF094B00221A600DE028
:10255000084B1B7813B94FF0FF3010BD0320FFF775
:1025600099FB20600028E5D1F5E74280204610BDA8
:102570006C9BFF1F5F9BFF1F10B50B4C236813B1B3
:1025800022686AB902E0094B1B7813B94FF0FF309B
:1025900010BD0320FFF77EFB20600028F0D1F5E797
:1025A00053881344187A10BD6C9BFF1F5F9BFF1F5D
:1025B000044B9888044B1A681AB1138852889B1AE6
:1025C00018447047489DFF1F6C9BFF1F10B5094BB7
:1025D0001B786BB1084C206818B1FFF785FF00230A
:1025E00023600320FFF756FB10B1FFF77DFFF8E7EC
:1025F00010BD00BF5F9BFF1F6C9BFF1F2DE9F84FB5
:10260000314DDFF8D490012382460C462B700E46E4
:102610004F46002E53D0D9F800303BBBDFF8B0B0A6
:1026200048F60148294B1B7803F0FF010BB92970CC
:1026300015E00420FFF74AFB072807D801232B7079
:10264000FFF734FF386088B91F4B1870B8F10108E4
:1026500002D09BF8003033B11D4B01221A704FF0AD
:10266000FF30BDE8F88F00F0BBF8DBE7184B002126
:10267000197039684B88C3F14000B04228BF30461A
:1026800003EB000E0B44A1F802E0361A07330AEB05
:102690000008C24504D01AF8010B03F8010FF8E74F
:1026A0004B883F2B06D940230B800420FFF75CFBAF
:1026B00000233B60074B05221A70C246A9E72E7023
:1026C0002046BDE8F88F00BF629BFF1F5F9BFF1F86
:1026D000689BFF1F619BFF1F649BFF1F07B502AB39
:1026E000012103F8010D1846FFF788FF03B05DF8DC
:1026F00004FBFFFF38B50E4C0E4D012323702B68F1
:102700007BB90D4B1B7813B90020207038BD042015
:10271000FFF7DCFA0728F7D8FFF7C8FE2860002883
:10272000F2D02B68588800232370C0F1400038BDD8
:10273000629BFF1F649BFF1F5F9BFF1F2DE9F04102
:10274000114B1B78F3B1114F114B3C68114D012611
:102750001E7098464CB1002663882E702146238057
:102760000420FFF701FB3E6009E0FFF79FFE0146F2
:1027700020B104202C70FFF7F7FA00E02E70002340
:1027800088F80030BDE8F0815F9BFF1F649BFF1F4E
:10279000629BFF1F619BFF1F38B50E4B1B7803F038
:1027A000FF05ABB90C4C216831B14B880B8004207C
:1027B000FFF7DAFA256038BDFFF778FE014620B151
:1027C0000420BDE83840FFF7CFBA044B01221A704D
:1027D00038BD00BF629BFF1F649BFF1F619BFF1FF3
:1027E00038B51E4C2378002B36D101232370FFF718
:1027F000DFFE08B1FFF759FE00F0BCF908B100F0A8
:10280000C7F800F045FA08B100F0C3F800F0CEFABE
:1028100008B100F0BFF800232370EFF30583DBB9A4
:10282000EFF3108272B60E4D286810B10D4C21786E
:1028300011B18AB962B638BD0123237043692B6098
:102840000BB1996101E008490B6002B962B600253D
:10285000457783689847257038BD00BF719BFF1F7F
:10286000849BFF1F889BFF1F809BFF1FEFF310803F
:1028700072B6B0FA80F04009704700B162B6704796
:10288000F8B50C4E0C4F0025FFF7F0FF34680246F8
:102890006CB1636933600BB19D6100E03B60104631
:1028A000FFF7EBFF6577A36820469847ECE7FFF753
:1028B000E4FFF8BD749BFF1F789BFF1FFFF7E0BF8D
:1028C00015490B6830B513B98360C36009E004682B
:1028D0001A68944207D20025121B8360C560D86035
:1028E0001A60086015E002681C689968121B026093
:1028F00061B10C68A2420B46F5D28160C968C16023
:10290000D860C168A21A88601A6002E08160C36062
:1029100098600223037530BD7C9BFF1F70B5164D78
:102920002C680026BCB1236813B1013B236012E080
:10293000A26802B1D36020692A60036826751B680B
:1029400022460021984763681BB123602046FFF7A9
:10295000B7FF2C68E6E7FFF789FF084B00221C68E9
:102960001A60FFF78AFF2CB1A5682046FFF7A8FF81
:102970002C46F8E770BD00BF7C9BFF1F8C9BFF1FA0
:10298000024A136801331360FFF7C8BF7C9AFF1F28
:102990007047704770477047036830B523B1002413
:1029A0009C600124DC6017E0194C236843F40003A9
:1029B000236000BF174B01241C6003F58073164C85
:1029C000036003689D683DB11033A3420360F8D9EA
:1029D00000230360184630BD0468104B2260234476
:1029E0001B110F4D0322A2600E4A45F823100179F6
:1029F000995444335A11920002F1604202F5614247
:102A0000012003F01F0300FA03F3136030BD00BF81
:102A10003C800440007003403F710340008FFCBFC6
:102A2000D88DFF1F44E400E0016830B5A1B10B4B25
:102A30000B441B1103F144025511012402F01F0243
:102A400004FA02F2064C44F82520064A064C42F8E5
:102A5000234000238B60036030BD00BF008FFCBFAC
:102A600080E100E0D88DFF1F97290000024B012272
:102A70001A60024B1B6818470C710340D88DFF1F6A
:102A8000024B01221A60024B5B6818471C7103401D
:102A9000D88DFF1F024B01221A60024B9B6818471A
:102AA0002C710340D88DFF1F024B01221A60024B8C
:102AB000DB6818473C710340D88DFF1F10B5204BD1
:102AC0002048214960221A70E1225A701F4B204A87
:102AD0001C78204B082C01D1012402E00A2C03D1E0
:102AE00019240460132005E00C2C0CBF15243D2490
:102AF00004601220086014601860174B17491B7897
:102B0000174A03B101230B601360164B164A19785C
:102B1000164B012901D880210BE0042901D884211A
:102B200007E0082901D8852103E0102994BF8621F8
:102B30008721116019600E4B01221A7010BD00BF71
:102B40000040074008B003400CB00340E88DFF1F71
:102B500008B00B400CB00B40919BFF1F20B003400E
:102B600020B00B40E98DFF1F24B0034024B00B4080
:102B7000909BFF1F054B1878054B1A78C0B2D3B253
:102B8000984238BF4030C01A704700BF1A9CFF1FE0
:102B9000999BFF1FF0B534490B7913F0300F2FD0FC
:102BA00072B68B7D03F0FF0423B9CB7940234B74BD
:102BB00062B625E062B62D482D4A037812782D4F73
:102BC000DBB2D2B20546581C4028CE7928BF00207F
:102BD0009042F6B21CBF3E540346601E10F0FF0444
:102BE000F1D1D9B229702449096849B1934236BF5D
:102BF000C2F140029B1A9B18272BC4BF01230B7004
:102C0000194AD178C9B20D061ED513791C061BD5F9
:102C10001A4B1B481D7803781A4EEDB2DBB2AB425B
:102C20000AD00133402B28BF00231479F45CE4B2AE
:102C3000D471147D072CF2D9DBB203700A4B1A79D8
:102C4000100644BF7C22DA7049060CD5064B1A796F
:102C5000520608D50C4A002111700C4A126802B1C4
:102C600011703C22DA70F0BD00A006401A9CFF1FD4
:102C7000999BFF1FDA9BFF1F949BFF1F209CFF1F48
:102C80001B9CFF1F9A9BFF1F989BFF1F1C9CFF1FF5
:102C9000054B1878054B1A78C0B2D3B2984238BFAA
:102CA0004030C01A704700BF929CFF1F299CFF1F35
:102CB000F0B534490B7913F0300F2FD072B68B7DFD
:102CC00003F0FF0423B9CB7940234B7462B625E0AF
:102CD00062B62D482D4A037812782D4FDBB2D2B25E
:102CE0000546581C4028CE7928BF00209042F6B2F5
:102CF0001CBF3E540346601E10F0FF04F1D1D9B250
:102D000029702449096849B1934236BFC2F1400293
:102D10009B1A9B18272BC4BF01230B70194AD1782B
:102D2000C9B20D061ED513791C061BD51A4B1B48BC
:102D30001D7803781A4EEDB2DBB2AB420AD00133F4
:102D4000282B28BF00231479F45CE4B2D471147DDD
:102D5000072CF2D9DBB203700A4B1A79100644BF74
:102D60007C22DA7049060CD5064B1A79520608D532
:102D70000C4A002111700C4A126802B111703C22F9
:102D8000DA70F0BD00B00640929CFF1F299CFF1F27
:102D9000529CFF1F249CFF1F989CFF1F939CFF1FAA
:102DA0002A9CFF1F289CFF1F949CFF1F054B18782F
:102DB000054B1A78C0B2D3B2984238BF4030C01A1F
:102DC000704700BF0A9DFF1FA19CFF1F10B5284B35
:102DD0001A79920620D52749DA790B7826480133EB
:102DE00000783F2BC8BF0023834218BF2348D2B2CC
:102DF0001EBFC254DAB20A70214A116861B1214A79
:102E00001278D2B2934236BFC2F140029B1A9B188D
:102E1000272BC4BF01230B701549CA78D2B2140600
:102E200016D50B79180613D5174B164C187823783E
:102E3000DBB2984202D16C23CB7009E00133282B1E
:102E400028BF00231148C05CDBB2C0B2C871237038
:102E500051060CD5064B1A79520608D50C4A0021AA
:102E600011700C4A126802B111702C22DA7010BD78
:102E700000C006400A9DFF1FA19CFF1FCA9CFF1FA8
:102E80009C9CFF1F0B9DFF1F109DFF1FA29CFF1FFF
:102E9000A09CFF1F0C9DFF1F1FB572B6154B702223
:102EA0001A70154A412111700F2102F8011C80226D
:102EB0001A701A781206FCD5104B186862B6104BBF
:102EC000984298BF0A2301AC98BF58430A22214672
:102ED000FEF7FAFC0B4A0023E15C21B101330A2B17
:102EE00022F8021BF8D1084A01335B00137004B0CA
:102EF00010BD00BF00000240070002400800024071
:102F00007F969800748EFF1F728EFF1F0B4601463E
:102F1000184602F0D3B800BF30B51F4A21F0004375
:102F2000934287B01BDD1D4A934205DD02460B46E6
:102F300001F044F907B030BD02AA00F031F800F00A
:102F400003000128DDE904231AD002280FD0E0B1E4
:102F5000DDE9020100F048FA01F10041EAE700234F
:102F600000930022002300F05BFF07B030BD012476
:102F7000DDE90201009400F053FF01F10041D9E7BF
:102F8000DDE9020100F030FAD4E70124DDE90201B5
:102F9000009400F045FFCDE7FB21E93FFFFFEF7F05
:102FA0002DE9F04F944E21F00047B74291B040F325
:102FB00082809246914A97420C4626DC002984A3DF
:102FC000D3E9002340F3A88101F0F8F88C4B9F422D
:102FD00004460D4600F084807FA3D3E9002301F06E
:102FE000EDF802460B46CAE900232046294601F0C7
:102FF000E5F879A3D3E9002301F0E0F80125CAE957
:103000000201284611B0BDE8F08F7E4A974240F396
:1030100084807D4A974259DC3D15A5F21645A7EB01
:10302000055319461F46064601F02CFD01F014FA1F
:103030008046894602460B4630463946CDE90A8924
:1030400001F0BCF80022714B01F06CFA8946804611
:1030500001F018FD01F000FA02460B4606460F4645
:1030600040464946CDE90C6701F0A8F80022674BBD
:1030700001F058FA00220023CDE90E0101F0BAFC5C
:10308000002800F07581002330463946002201F007
:10309000B1FC002814BF012302235D4A01920221E2
:1030A00000912A4651460AA800F0C2FA002CC0F24C
:1030B0005181054606E0C2E9000100250024C2E96D
:1030C00002450025284611B0BDE8F08F02460B46A8
:1030D00001F074F80025CAE90201CAE90001F1E72C
:1030E0003FA3D3E9002301F069F83FA3D3E900230C
:1030F0000D46044601F062F802460B46CAE9002379
:103100002946204601F05AF837A3D3E9002301F0FD
:1031100055F80125CAE90201D4E700F037FF34A3CE
:10312000D3E900238046894601F0FCF90022394B9F
:1031300001F046F801F0A6FC054601F08DF924A344
:10314000D3E90023CDE9040101F0ECF902460B4676
:103150004046494601F032F81FA3D3E900238046D8
:103160008946DDE9040101F0DDF91F2DCDE90201F9
:1031700054DC294B6A1E53F822309F424ED002463F
:103180000B464046494601F019F802460B46CAE98B
:10319000002383460E465A4633464046494601F0D0
:1031A0000DF8DDE9022301F009F8002C02460B4678
:1031B000CAE9022386DA5B4606F1004601F10041C6
:1031C0008AE84800CAF80C10CAF808006D4279E78E
:1031D00000004054FB21F93F3163621A61B4D03DD5
:1031E0000000601A61B4D03D7370032E8A19A33BAE
:1031F00083C8C96D305FE43FFB21E93F7BD90240C2
:10320000FB21F93FFB213941FFFFEF7F00007041B7
:103210007C9700000000E03FFC960000DDE90223FF
:103220004046494600F0CAFF3A15C1F30A53D31A83
:10323000102B83460E460992CAE90001ABDD5EA35E
:10324000D3E90023DDE9040101F06CF906460F46DD
:1032500002460B464046494600F0B0FFCDE9060164
:1032600002460B464046494600F0A8FF32463B4620
:1032700000F0A4FF52A3D3E9002306460F46DDE980
:10328000040101F04FF932463B4600F097FFDDE9BB
:103290000689CDE9020102460B464046494600F048
:1032A0008DFF0B46C1F30A570E460999CF1B024604
:1032B000312F8346CAE900237ADD43A3D3E90023F3
:1032C000DDE9040101F02EF906460F4602460B46E1
:1032D00040464946CDE9068900F070FF02460B469C
:1032E00080468946DDE9060100F068FF32463B462C
:1032F00000F064FF36A3D3E9002306460F46DDE95C
:10330000040101F00FF932463B4600F057FF024638
:103310000B46CDE9022334E700F052FF304B9F42C9
:1033200004460D4626D02CA3D3E9002300F048FF25
:1033300002460B46CAE900232946204600F03EFF1C
:1033400025A3D3E9002300F03BFF4FF0FF35CAE986
:103350000201B7E6DAF80420DAF80C3002F1004294
:1033600003F100434542CAF80420CAF80C30A9E62C
:10337000032392E610A3D3E9002300F021FF10A35A
:10338000D3E900230D46044600F01AFF02460B461F
:10339000CAE900232946204600F010FF08A3D3E91C
:1033A000002300F00DFF4FF0FF35CAE9020189E666
:1033B000DDE90689EFE600BF0000601A61B4D03D88
:1033C0007370032E8A19A33B0000002E8A19A33BB9
:1033D000C14920259A837B393163621A61B4D03D9B
:1033E000FB21F93FFFFFFFFF2DE9F04F21F00046E1
:1033F000B6F1795F85B00C4692469B4605466BDA7E
:1034000001F040FB002800F0E8802A4623462846C9
:10341000214601F087F874A3D3E90023804689464A
:1034200001F080F872A3D3E9002300F0C9FE424600
:103430004B4601F077F870A3D3E9002300F0BEFEFD
:1034400042464B4601F06EF86DA3D3E9002300F02D
:10345000B7FE42464B4601F065F86BA3D3E9002363
:1034600000F0ACFE42464B4601F05CF868A3D3E99D
:10347000002300F0A5FE42464B4601F053F8CDE98B
:1034800000010022644B4046494601F04BF8DDE95B
:10349000002306460F464046494601F043F852468F
:1034A000804689465B462846214601F03BF80246A5
:1034B0000B464046494600F081FE02460B46304628
:1034C000394600F07BFE02460B460020534900F0CF
:1034D00075FE05B0BDE8F08F02460B4601F022F8FC
:1034E00041A3D3E900238046894601F01BF840A39D
:1034F000D3E9002300F064FE42464B4601F012F887
:103500003DA3D3E9002300F059FE42464B4601F0AB
:1035100009F83BA3D3E9002300F052FE42464B4694
:1035200001F000F838A3D3E9002300F047FE42463B
:103530004B4600F0F7FF36A3D3E9002300F040FE2E
:103540004B46424600F0EEFF354B9E42CDE900016E
:1035500097DD344B9E424FF0000238DCA6F5001395
:1035600000202E4916461F4600F028FECDE9020134
:103570000022294B4046494600F0D4FF32463B46E4
:1035800000F01CFEDDE9002306460F464046494692
:1035900000F0C8FF5246804689465B4628462146D1
:1035A00000F0C0FF02460B464046494600F006FECA
:1035B00002460B463046394600F000FE02460B46F6
:1035C000DDE9020100F0FAFD05B0BDE8F08F164B11
:1035D000164FCDE902230026CAE71049002005B0A6
:1035E000BDE8F08FAFF30080D43888BEE9FAA8BDFB
:1035F000C4B1B4BD9EEE213EAD529C804F7E923E42
:103600009015CB19A001FA3E7751C1166CC1563FF7
:103610004C5555555555A53F0000E03F0000F03F83
:103620003233D33F0000E93F0000E73F0000D23FC4
:103630002DE9F04FADF51D7D784CA69E784D54F8E0
:10364000264009942646D41E85FB0475E417C4EB76
:10365000A50424EAE4741D460B93631CA3EB8303C7
:10366000013D02EBC30308932B460D940295651BA5
:10367000F41804900A9116D42C44013422AEA79F6A
:1036800008E057F8250000F0E7FE0135A542E6E91D
:10369000020108D0002DF4DA013500200021A542F6
:1036A000E6E90201F6D1099B002B2FDB099BDDF82F
:1036B000089074AA02EBC30B0DF5E47A029B002B71
:1036C000C0F295810B9BC3EB090824AB03EBC80840
:1036D000049BA3F1080524AB03EBC90400260027D3
:1036E000F5E9022374E8020100F01CFF02460B46D4
:1036F0003046394600F064FD444506460F46EFD19A
:10370000EAE90267DA4509F10109D7D1099D05F116
:103710008043023B9B001A1D10A90A440B440F92E0
:103720000E939CAB03EBC503002D53E928672BDDFB
:103730009CAB03EBC504A83C0DF13C0A0DF5E47B02
:103740000022384B3046394600F0ECFE01F09AF981
:1037500000F082FE0022344B8046894600F0E2FEF3
:1037600002460B463046394600F028FD01F08AF942
:1037700074E802234AF8040F4946404600F020FD51
:103780005C4506460F46DBD1089C3046394622464A
:1037900000F08AFC00224FF07F5306460F4600F0EF
:1037A000C1FE00F0F9FB0022204B00F0BBFE0246F8
:1037B0000B463046394600F001FD0F46064601F043
:1037C00061F9814600F048FE02460B463046394614
:1037D00000F0F4FC002C06460F4640F3EF80691E13
:1037E00010AAC4F1180352F8212042FA03F000FA9B
:1037F00003F3D31A10AAC4F1170842F82130814408
:1038000043FA08F8B8F1000F3DDD002D09F1010978
:1038100040F3D482002214460FA911E084980000DE
:10382000ABAAAA2A0000703E0000704100002040B0
:10383000C3F180700BB108600124013295420DDDA7
:1038400051F8043F002CF3D0C3F1FF13013203F50C
:103850007F4395420B604FF00104F1DC089B002B85
:103860000DDD012B00F0B280022B08D16A1E10ABD7
:1038700010A953F82230C3F3150341F82230B8F1F0
:10388000020F00F08280002200233046394601F00A
:10389000B1F8002800F05C82099B05F1FF3B5B4515
:1038A00010DC05F1804310AA013B0F9802EB830363
:1038B000002253F80419834242EA0102F9D1002A96
:1038C00040F0B280099B10AA013B52F82330002B34
:1038D00040F072820E9A012352F804190133002934
:1038E000FAD0E9186A1C8A420C9149DC0D990B98B0
:1038F0005118DB0001F180410593A79B0544013974
:10390000E80003EB810A24ABD20003EB000B74AB9D
:1039100013440193A2F10803069007934FF00009A6
:103920005AF8040F00F098FD029B002BEBE802010F
:1039300028DB069B03EB0904079B09EB030824AB78
:103940001C449844049B0026A3F108050027F5E9D0
:10395000022374E8020100F0E5FD02460B46304602
:10396000394600F02DFC444506460F46EFD1019B39
:10397000E3E802670193059B09F108099945CFD156
:103980000C9DCEE600260027F1E732463B4600209C
:10399000AF4900F013FC06460F46002C3FF473AF0E
:1039A000089AAB49002000F07FFB02460B463046E8
:1039B000394600F003FC06460F4664E710D16B1E43
:1039C00010AA52F823304FEAE3581BE76A1E10ABE7
:1039D00010A953F82230C3F3160341F822304EE702
:1039E00000229C4B01F024F858B980464BE7002692
:1039F0000027EAE90267DA4509F101097FF45EAEC2
:103A000084E6002D09F10109C8BF4FF002083FF715
:103A100001AF32463B4600208D4900F0CFFB4FF00E
:103A2000020806460F462EE710AB089A53F82B30D3
:103A3000CDF81490183ACDF8048008926BB90BF1C8
:103A40008043013B10A901EB830353F804190BF1E8
:103A5000FF3B183A0029F8D00892089A7C490020C8
:103A600000F022FBBBF1000F04460D46C0F2B68108
:103A70004FEACB030DF5E87810AA02EB8B0608EBB2
:103A800003090493043609F1080756F8040D00F001
:103A9000E3FC22462B4600F045FD002267E90201C7
:103AA0006D4B2046294600F03DFDB84504460D46C5
:103AB000EBD10DF5987A4B46CDF808A0DDF824A09F
:103AC000CDF818B04FF000099B46BAF1000FC0F2D4
:103AD0002881DFF888815D465BA3D3E900230026B7
:103AE0000027002403E0A14510DBF8E90223F5E8F4
:103AF000020100F017FD02460B463046394600F041
:103B00005FFB0134A24506460F46ECDA029B03EB4D
:103B1000C903ABF1080BC3E9006772AB5B4509F160
:103B20000109D2D1A69BDDF818B0DDF808A0032B5F
:103B300000F28380DFE813F0D300940094000400C7
:103B4000BBF1000F40F35481049BCDF808B00AEBA1
:103B50000308D8E90067D34658E9029A32463B4643
:103B60004846514600F02CFB04460D4602460B46E3
:103B70004846514600F022FB32463B4600F020FB0F
:103B8000C8E9000168E90245C34526462F46E3D14E
:103B9000DA46DDF808B0BBF1010F40F32981049B40
:103BA0005344D3E90067984699460DF59C7B59E943
:103BB00002343046CDE902341A463946234600F035
:103BC000FFFA04460D4602460B46DDE9020100F00D
:103BD000F5FA32463B4600F0F3FAC9E9000169E91B
:103BE0000245CB4526462F46E1D1002308F10808BF
:103BF0001D4650AC1846294678E9022300F0E0FA49
:103C0000444503460D46F5D1019A002A00F0D880BC
:103C10000A9FDAF80440DAF80C20DAF80010DAF833
:103C200008003B6105F1004504F1004402F1004346
:103C30007D617C60FB603960B860059B03F0070024
:103C40000DF51D7DBDE8F08F00000040FB21F93F20
:103C50000000F03F0000E03F0000703E9898000038
:103C6000049C00260834544433463046194674E90F
:103C7000022300F0A5FA544506460B46F5D1019AF9
:103C800030461946002A4FD00A9803F100443246C4
:103C900044600660DAE9000100F090FABBF1000F21
:103CA00002460B460DDD012410461946FAE90223AF
:103CB00000F086FA0134A34502460B46F4DA019976
:103CC00009B103F1004319460A9B1046C3E90201FA
:103CD000059B03F007000DF51D7DBDE8F08F049BEB
:103CE000002208339A441346104619467AE9022303
:103CF00000F066FA0BF1FF3BBBF1FF3F02460B46BB
:103D0000F2D1019909B103F1004319460A9B10460B
:103D1000C3E90001059B03F007000DF51D7DBDE81B
:103D2000F08F00260027F1E60A9B3246C3E9000126
:103D30000B46DAE9000100F041FABBF1000F024640
:103D40000B46B0DC19460A9B1046C3E90201BFE7E7
:103D5000089BCDF814905A4230463946CDF804807D
:103D600000F0A2F900222C4B06460F4600F060FE40
:103D7000002840D00022294B3046394600F0D2FBC3
:103D800000F080FE044600F067FB0022224B00F0AA
:103D9000C9FB0B4602463946304600F00FFA00F0E8
:103DA00071FE089B183305F1010B089310AB43F823
:103DB000250043F82B4050E6012392E500244DE511
:103DC00018462946DAE90023DAE902450A9FC7E9DD
:103DD0000401C7E90023C7E902452EE7A69B032B90
:103DE0003FF62BAFDFE803F0151010020DF5987ABF
:103DF00000231D4608E73046394600F043FE10AB6D
:103E0000AB4643F8250028E6002633460DF5987AA0
:103E100035E70022134674E7000070410000703E51
:103E20002DE9F04F21F00046B6F1795F85B00C46E0
:103E300090469946054604DA00F024FE002800F07A
:103E400085802A4623462846214600F06BFB06461D
:103E50000F4602460B462846214600F063FB3EA370
:103E6000D3E9002382468B463046394600F05AFBA0
:103E70003BA3D3E9002300F0A1F932463B4600F012
:103E800051FB39A3D3E9002300F09AF932463B46AF
:103E900000F048FB36A3D3E9002300F08FF9324647
:103EA0003B4600F03FFB34A3D3E9002300F088F940
:103EB0000E9BCDE900019BB30022334B404649469F
:103EC00000F030FBDDE90023CDE902015046594600
:103ED00000F028FB02460B46DDE9020100F06EF916
:103EE00032463B4600F01EFB42464B4600F066F968
:103EF00023A3D3E9002306460F465046594600F057
:103F000011FB02460B463046394600F059F902468D
:103F10000B462846214600F051F905B0BDE8F08F68
:103F200002460B463046394600F0FCFA14A3D3E9AA
:103F3000002300F043F952465B4600F0F3FA2A46AC
:103F4000234600F03DF905B0BDE8F08F2846214634
:103F500005B0BDE8F08F00BF7CD5CF5A3AD9E53D1A
:103F6000EB9C2B8AE6E55A3E7DFEB157E31DC73E2A
:103F7000D561C119A0012A3FA6F810111111813F86
:103F8000495555555555C53F0000E03F21F00041CA
:103F9000704700BFFFFFFFFFC1F30A522DE9F8434E
:103FA000A2F2FF36132E0B460D46044688460746FE
:103FB0001CDC002E3FDB3A4A42FA06F901EA09020C
:103FC0000243864617D034A3D3E9002300F0F8F863
:103FD0000022002300F036FD20B1002D40DB28EA4E
:103FE0000905002738462946BDE8F883332E06DD4B
:103FF000B6F5806F2FD020461946BDE8F883A2F2AF
:1040000013424FF0FF3929FA02F910EA090FF2D0F2
:1040100021A3D3E9002300F0D3F80022002300F00D
:1040200011FD0028DED0002D20DB454627EA0907D8
:1040300038462946D8E718A3D3E9002300F0C0F892
:104040000022002300F0FEFC0028CBD0002D18DB5E
:1040500000273D46C6E702460B4600F0B1F8CCE724
:104060004FF4801343FA06F6B044B8E7142E10D08C
:104070000123C6F1340603FA06F6371928BF98441F
:10408000D3E725F00042074B224318BF1D46002707
:10409000A8E705F10108C8E79C7500883CE4377E75
:1040A000FFFF0F000000F0BFF8B5C1F30A56044649
:1040B0000D460B46174606BB21F00043034325D0AF
:1040C0000022354B00F02EFA344A974204460D4642
:1040D0000B462ADBC1F30A56363E3E4440F2FE72DE
:1040E000964228DC002E12DD23F0FF4323F4E00388
:1040F00043EA065520462946F8BD40F2FF72964233
:10410000EBD102460B4600F05BF8F8BDF8BD16F1A6
:10411000350F1DDA4CF250339F4222462B4625DCE8
:1041200019A1D1E9000100F03DF817A3D3E900235C
:1041300000F0F8F9F8BD22462B4615A1D1E900019F
:1041400000F030F812A3D3E9002300F0EBF9F8BD3A
:1041500023F0FF4323F4E003363643EA06552046B6
:10416000294600220E4B00F0DDF9F8BD08A1D1E987
:10417000000100F017F806A3D3E9002300F0D2F9FC
:10418000F8BD00BFAFF3008059F3F8C21F6EA50160
:104190009C7500883CE4377E00005043B03CFFFF34
:1041A0000000903C03F0004321F0004242EA03018A
:1041B000704700BF81F0004102E000BF83F0004380
:1041C00030B54FEA41044FEA430594EA050F08BFB2
:1041D00090EA020F1FBF54EA000C55EA020C7FEA76
:1041E000645C7FEA655C00F0E2804FEA5454D4EBF3
:1041F0005555B8BF6D420CDD2C4480EA020281EABD
:10420000030382EA000083EA010180EA020281EAF4
:104210000303362D88BF30BD11F0004F4FEA013146
:104220004FF4801C4CEA113102D0404261EB410155
:1042300013F0004F4FEA03334CEA133302D05242DB
:1042400063EB430394EA050F00F0A780A4F1010497
:10425000D5F1200E0DDB02FA0EFC22FA05F28018D1
:1042600041F1000103FA0EF2801843FA05F35941B7
:104270000EE0A5F120050EF1200E012A03FA0EFC36
:1042800028BF4CF0020C43FA05F3C01851EBE37160
:1042900001F0004507D54FF0000EDCF1000C7EEB7D
:1042A00000006EEB0101B1F5801F1BD3B1F5001FBB
:1042B0000CD349085FEA30004FEA3C0C04F10104DA
:1042C0004FEA445212F5800F80F09A80BCF1004F03
:1042D00008BF5FEA500C50F1000041EB045141EA85
:1042E000050130BD5FEA4C0C404141EB010111F486
:1042F000801FA4F10104E9D191F0000F04BF014631
:104300000020B1FA81F308BF2033A3F10B03B3F10E
:1043100020020CDA0C3208DD02F1140CC2F10C029E
:1043200001FA0CF021FA02F10CE002F11402D8BFFC
:10433000C2F1200C01FA02F120FA0CFCDCBF41EAC8
:104340000C019040E41AA2BF01EB0451294330BD97
:104350006FEA04041F3C1CDA0C340EDC04F1140474
:10436000C4F1200220FA04F001FA02F340EA03004B
:1043700021FA04F345EA030130BDC4F10C04C4F191
:10438000200220FA02F001FA04F340EA0300294671
:1043900030BD21FA04F0294630BD94F0000F83F4BB
:1043A000801306BF81F480110134013D4EE77FEA9E
:1043B000645C18BF7FEA655C29D094EA050F08BFEA
:1043C00090EA020F05D054EA000C04BF19461046CB
:1043D00030BD91EA030F1EBF0021002030BD5FEA0F
:1043E000545C05D14000494128BF41F0004130BD37
:1043F00014F580043CBF01F5801130BD01F000458B
:1044000045F0FE4141F470014FF0000030BD7FEAFD
:10441000645C1ABF194610467FEA655C1CBF0B46F8
:10442000024650EA013406BF52EA033591EA030F0F
:1044300041F4002130BD00BF90F0000F04BF002107
:10444000704730B54FF4806404F132044FF000053A
:104450004FF0000150E700BF90F0000F04BF0021B3
:10446000704730B54FF4806404F1320410F0004519
:1044700048BF40424FF000013EE700BF42004FEA14
:10448000E2014FEA31014FEA02701FBF12F07F4391
:1044900093F07F4F81F06051704792F0000F14BF8E
:1044A00093F07F4F704730B54FF4607401F00045D2
:1044B00021F0004120E700BF50EA010208BF704729
:1044C00030B54FF000050AE050EA010208BF70471E
:1044D00030B511F0004502D5404261EB41014FF487
:1044E000806404F132045FEA915C3FF4DCAE4FF08B
:1044F00003025FEADC0C18BF03325FEADC0C18BF72
:10450000033202EBDC02C2F1200300FA03FC20FAC2
:1045100002F001FA03FE40EA0E0021FA02F114440F
:10452000C1E600BF70B54FF0FF0C4CF4E06C1CEA24
:1045300011541DBF1CEA135594EA0C0F95EA0C0F99
:1045400000F0DEF82C4481EA030621EA4C5123EA0C
:104550004C5350EA013518BF52EA033541F480113B
:1045600043F4801338D0A0FB02CE4FF00005E1FBEE
:1045700002E506F00042E0FB03E54FF00006E1FB38
:1045800003569CF0000F18BF4EF0010EA4F1FF047B
:10459000B6F5007F64F5407404D25FEA4E0E6D41BB
:1045A00046EB060642EAC62141EA55514FEAC520CC
:1045B00040EA5E504FEACE2EB4F1FD0C88BFBCF548
:1045C000E06F1ED8BEF1004F08BF5FEA500E50F1F9
:1045D000000041EB045170BD06F0004646EA0101BF
:1045E00040EA020081EA0301B4EB5C04C2BFD4EBF1
:1045F0000C0541EA045170BD41F480114FF0000EEA
:10460000013C00F3AB8014F1360FDEBF002001F057
:10461000004170BDC4F10004203C35DA0C341BDCD1
:1046200004F11404C4F1200500FA05F320FA04F0A3
:1046300001FA05F240EA020001F0004221F00041D7
:1046400010EBD37021FA04F642EB06015EEA430E4A
:1046500008BF20EAD37070BDC4F10C04C4F120057A
:1046600000FA04F320FA05F001FA04F240EA02002D
:1046700001F0004110EBD37041F100015EEA430EFE
:1046800008BF20EAD37070BDC4F1200500FA05F21E
:104690004EEA020E20FA04F301FA05F243EA02039D
:1046A00021FA04F001F0004121FA04F220EA0200AC
:1046B00000EBD3705EEA430E08BF20EAD37070BDF2
:1046C00094F0000F0FD101F00046400041EB0101D2
:1046D00011F4801F08BF013CF7D041EA060195F0B4
:1046E000000F18BF704703F00046520043EB03036E
:1046F00013F4801F08BF013DF7D043EA060370475B
:1047000094EA0C0F0CEA135518BF95EA0C0F0CD065
:1047100050EA410618BF52EA4306D1D181EA0301AB
:1047200001F000414FF0000070BD50EA410606BFA5
:104730001046194652EA430619D094EA0C0F02D1EA
:1047400050EA013613D195EA0C0F05D152EA03362F
:104750001CBF104619460AD181EA030101F000414D
:1047600041F0FE4141F470014FF0000070BD41F096
:10477000FE4141F4780170BD70B54FF0FF0C4CF470
:10478000E06C1CEA11541DBF1CEA135594EA0C0F8F
:1047900095EA0C0F00F0A7F8A4EB050481EA030EDC
:1047A00052EA03354FEA013100F088804FEA0333C3
:1047B0004FF0805545EA131343EA12634FEA022291
:1047C00045EA111545EA10654FEA00260EF0004152
:1047D0009D4208BF964244F1FD0404F5407402D2A4
:1047E0005B084FEA3202B61A65EB03055B084FEA35
:1047F00032024FF480104FF4002CB6EB020E75EB32
:10480000030E22BFB61A754640EA0C005B084FEA59
:104810003202B6EB020E75EB030E22BFB61A7546D6
:1048200040EA5C005B084FEA3202B6EB020E75EB21
:10483000030E22BFB61A754640EA9C005B084FEA99
:104840003202B6EB020E75EB030E22BFB61A7546A6
:1048500040EADC0055EA060E18D04FEA051545EA95
:1048600016754FEA06164FEAC30343EA52734FEA3E
:10487000C2025FEA1C1CC0D111F4801F0BD141EAB7
:1048800000014FF000004FF0004CB6E711F4801F1C
:1048900004BF01430020B4F1FD0C88BFBCF5E06FFC
:1048A0003FF6AFAEB5EB030C04BFB6EB020C5FEA0C
:1048B000500C50F1000041EB045170BD0EF0004E61
:1048C0004EEA113114EB5C04C2BFD4EB0C0541EA93
:1048D000045170BD41F480114FF0000E013C90E690
:1048E00045EA060E8DE60CEA135594EA0C0F08BF54
:1048F00095EA0C0F3FF43BAF94EA0C0F0AD150EA53
:1049000001347FF434AF95EA0C0F7FF425AF1046E5
:1049100019462CE795EA0C0F06D152EA03353FF40D
:10492000FDAE1046194622E750EA410618BF52EA8A
:1049300043067FF4C5AE50EA41047FF40DAF52EA5E
:1049400043057FF4EBAE12E74FF0FF3C06E000BFFB
:104950004FF0010C02E000BF4FF0010C4DF804CD08
:104960004FEA410C7FEA6C5C4FEA430C18BF7FEAC8
:104970006C5C1BD001B050EA410C0CBF52EA430CF6
:1049800091EA030F02BF90EA020F0020704710F176
:10499000000F91EA030F58BF994208BF90422CBF05
:1049A000D8176FEAE37040F0010070474FEA410CFE
:1049B0007FEA6C5C02D150EA013C07D14FEA430C1C
:1049C0007FEA6C5CD6D152EA033CD3D05DF8040B8D
:1049D000704700BF8446104662468C4619466346BF
:1049E00000E000BF01B5FFF7B7FF002848BF10F196
:1049F000000F01BD4DF808EDFFF7F4FF0CBF0120DB
:104A000000205DF808FB00BF4DF808EDFFF7EAFF56
:104A100034BF012000205DF808FB00BF4DF808ED11
:104A2000FFF7E0FF94BF012000205DF808FB00BF06
:104A30004DF808EDFFF7CEFF94BF012000205DF890
:104A400008FB00BF4DF808EDFFF7C4FF34BF01209D
:104A500000205DF808FB00BF4FEA410C7FEA6C5C68
:104A600002D150EA013C0AD14FEA430C7FEA6C5C68
:104A700002D152EA033C02D14FF0000070474FF0E0
:104A8000010070474FEA410212F5001215D211D50C
:104A90006FF47873B3EB625212D94FEAC12343F03B
:104AA000004343EA505311F0004F23FA02F018BFBD
:104AB000404270474FF00000704750EA013005D186
:104AC00011F0004008BF6FF0004070474FF0000049
:104AD000704700BF80F0004002E000BF81F000415D
:104AE00042001FBF5FEA410392EA030F7FEA226C94
:104AF0007FEA236C6AD04FEA1262D2EB1363C1BF24
:104B0000D218414048404140B8BF5B42192B88BF92
:104B1000704710F0004F40F4000020F07F4018BFB5
:104B2000404211F0004F41F4000121F07F4118BFD5
:104B3000494292EA030F3FD0A2F1010241FA03FC7D
:104B400010EB0C00C3F1200301FA03F100F0004365
:104B500002D5494260EB4000B0F5000F13D3B0F12D
:104B6000807F06D340084FEA310102F10102FE2A9C
:104B700051D2B1F1004F40EBC25008BF20F001000C
:104B800040EA03007047490040EB000010F4000FBA
:104B9000A2F10102EDD1B0FA80FCACF1080CB2EB4D
:104BA0000C0200FA0CF0AABF00EBC25052421843AC
:104BB000BCBFD0401843704792F0000F81F4000151
:104BC00006BF80F400000132013BB5E74FEA410324
:104BD0007FEA226C18BF7FEA236C21D092EA030F90
:104BE00004D092F0000F08BF0846704790EA010F0A
:104BF0001CBF0020704712F07F4F04D1400028BF37
:104C000040F00040704712F100723CBF00F5000018
:104C1000704700F0004343F0FE4040F4000070474E
:104C20007FEA226216BF08467FEA236301464202FA
:104C300006BF5FEA412390EA010F40F4800070470D
:104C40004FF0000304E000BF10F0004348BF4042B3
:104C50005FEA000C08BF704743F0964301464FF0EF
:104C600000001CE050EA010208BF70474FF000034B
:104C70000AE000BF50EA010208BF704711F000438C
:104C800002D5404261EB41015FEA010C02BF84465C
:104C90000146002043F0B64308BFA3F18053A3F5BB
:104CA0000003BCFA8CF2083AA3EBC25310DB01FA02
:104CB00002FC634400FA02FCC2F12002BCF1004F86
:104CC00020FA02F243EB020008BF20F00100704717
:104CD00002F1200201FA02FCC2F1200250EA4C006B
:104CE00021FA02F243EB020008BF20EADC707047B1
:104CF0004FF0FF0C1CEAD0521EBF1CEAD15392EABF
:104D00000C0F93EA0C0F6FD01A4480EA010C40029A
:104D100018BF5FEA41211ED04FF0006343EA5010F4
:104D200043EA5111A0FB01310CF00040B1F5000F36
:104D30003EBF490041EAD3715B0040EA010062F1E5
:104D40007F02FD2A1DD8B3F1004F40EBC25008BFCF
:104D500020F00100704790F0000F0CF0004C08BFED
:104D600049024CEA502040EA51207F3AC2BFD2F1BA
:104D7000FF0340EAC250704740F400004FF00003C8
:104D8000013A5DDC12F1190FDCBF00F00040704702
:104D9000C2F10002410021FA02F1C2F1200200FA40
:104DA00002FC5FEA310040F1000053EA4C0308BF07
:104DB00020EADC70704792F0000F00F0004C02BF58
:104DC000400010F4000F013AF9D040EA0C0093F0D3
:104DD000000F01F0004C02BF490011F4000F013B2D
:104DE000F9D041EA0C018FE70CEAD15392EA0C0F9B
:104DF00018BF93EA0C0F0AD030F0004C18BF31F006
:104E0000004CD8D180EA010000F00040704790F0DB
:104E1000000F17BF90F0004F084691F0000F91F07F
:104E2000004F14D092EA0C0F01D142020FD193EA45
:104E30000C0F03D14B0218BF084608D180EA0100CD
:104E400000F0004040F0FE4040F40000704740F0A9
:104E5000FE4040F4400070474FF0FF0C1CEAD05277
:104E60001EBF1CEAD15392EA0C0F93EA0C0F69D0D3
:104E7000A2EB030280EA010C49024FEA402037D03E
:104E80004FF0805343EA111143EA10130CF0004035
:104E90008B4238BF5B0042F17D024FF4000C8B4225
:104EA00024BF5B1A40EA0C00B3EB510F24BFA3EB05
:104EB000510340EA5C00B3EB910F24BFA3EB9103D5
:104EC00040EA9C00B3EBD10F24BFA3EBD10340EA2F
:104ED000DC001B0118BF5FEA1C1CE0D1FD2A3FF675
:104EE00050AF8B4240EBC25008BF20F0010070472A
:104EF0000CF0004C4CEA50207F32C2BFD2F1FF03CD
:104F000040EAC250704740F400004FF00003013AFD
:104F100037E792F0000F00F0004C02BF400010F4A1
:104F2000000F013AF9D040EA0C0093F0000F01F0B5
:104F3000004C02BF490011F4000F013BF9D041EAD7
:104F40000C0195E70CEAD15392EA0C0F08D142020A
:104F50007FF47DAF93EA0C0F7FF470AF084676E7DD
:104F600093EA0C0F04D14B023FF44CAF08466EE7B6
:104F700030F0004C18BF31F0004CCAD130F0004284
:104F80007FF45CAF31F000437FF43CAF5FE700BFDC
:104F90004FF0FF3C06E000BF4FF0010C02E000BF05
:104FA0004FF0010C4DF804CD4FEA40024FEA4103A7
:104FB0007FEA226C18BF7FEA236C11D001B052EA5D
:104FC000530C18BF90EA010F58BFB2EB030088BF23
:104FD000C81738BF6FEAE17018BF40F00100704792
:104FE0007FEA226C02D15FEA402C05D17FEA236C74
:104FF000E4D15FEA412CE1D05DF8040B704700BFBB
:10500000844608466146FFE70FB5FFF7C9FF002851
:1050100048BF10F1000F0FBD4DF808EDFFF7F4FF8A
:105020000CBF012000205DF808FB00BF4DF808ED23
:10503000FFF7EAFF34BF012000205DF808FB00BF46
:105040004DF808EDFFF7E0FF94BF012000205DF868
:1050500008FB00BF4DF808EDFFF7D2FF94BF012019
:1050600000205DF808FB00BF4DF808EDFFF7C8FF12
:1050700034BF012000205DF808FB00BF42000ED2C3
:10508000B2F1FE4F0BD34FF09E03B3EB126209D483
:105090004FEA002343F0004323FA02F070474FF039
:1050A0000000704712F1610F01D1420202D14FF0AE
:1050B000FF3070474FF00000704700BF13460A46AC
:1050C0000146022000F040BE014B1868704700BF47
:1050D000B092FF1F70B50F4E0F4D761BB61018BF64
:1050E000002405D0013455F8043B9847A642F9D175
:1050F0000A4E0B4D761B04F035FDB61018BF002488
:1051000006D0013455F8043B9847A642F9D170BD4A
:1051100070BD00BF709B0000709B0000849B00006E
:10512000709B0000024B0146186800F00BB800BFEE
:10513000B092FF1F024B0146186800F0C9BE00BFC5
:10514000B092FF1F2DE9F04F01F10B05162D83B032
:10515000064640F29F8035F0070500F1BF80A94266
:1051600000F2BC8000F020FBB5F5FC7FC0F09C8213
:105170006B0A00F0BA80042B00F28381A80900F1C9
:10518000390E4FEA4E033830C44F07EB8303A3F1C7
:1051900008015C68A14207D1ACE0002A80F2AC8033
:1051A000E468A14200F0A680636823F003035A1B61
:1051B0000F2AF2DDB9493C6901F1080E744500F08F
:1051C000B381636823F003035A1B0F2A00F399810C
:1051D000002AC1F814E0C1F810E080F29E80B3F517
:1051E000007F80F06781DB0803F1010C01229B1036
:1051F00002FA03F34A6851F83C80C4F8088001EBD6
:10520000CC091A43A9F10803E3604A6041F83C4025
:10521000C8F80C40831001249C40944200F28A801C
:10522000144206D120F003006400144200F104008F
:10523000FAD007EBC009CC468046DCF80C108C4550
:1052400007D173E1002A80F28181C9688C4500F0A2
:105250006D814B6823F003035A1B0F2AF2DD0C46C5
:10526000D1F80CC054F8088F4B1945F001054D607A
:1052700042F00101C8F80CC03046CCF808807B61D0
:105280003B61C3F80CE0C3F808E059609A5000F0A5
:105290008DFA1FE0102921D800F086FA1025062388
:1052A00002207E4F07EB8303A3F108025C6894425F
:1052B00000F045816368E168A56823F00303234497
:1052C00030465A68E96042F001028D605A6000F091
:1052D0006DFA0834204603B0BDE8F08F00240C239B
:1052E0002046336003B0BDE8F08F80234FF0400EBE
:1052F0003F2049E770465DE72344E1685A68A568A6
:1053000042F00102E96030468D605A6000F04EFACA
:105310000834204603B0BDE8F08F234430465A6875
:1053200042F001025A6000F041FA0834204603B00E
:10533000BDE8F08FBC68636823F00308A84504D378
:10534000C5EB08030F2B00F38C80554BDFF8609101
:105350001A68D9F8003001332A4404EB080A00F037
:10536000608102F580520F3222F47F6222F00F0238
:1053700011463046019200F00BFCB0F1FF3F83462E
:10538000019A00F05881824500F2FC80454B196873
:10539000DA451144196000F05381D9F80000DFF8B4
:1053A00010E101301BBFCAEB0B0A5144CEF800B02C
:1053B00019601BF0070100F01781C1F10800C1F569
:1053C0008051834408315A44C2F30B02C2EB0109F5
:1053D00049463046019300F0DBFB431C019B00F083
:1053E0003F81CBEB00024A4442F001021968C7F842
:1053F00008B04944BC42CBF804201960DFF8A490FF
:1054000016D0B8F10F0F40F2FD806268A8F10C03CE
:1054100023F00703E01802F001024FF0050E1A43D3
:105420000F2B6260C0F804E0C0F808E000F21C81B5
:105430001D4BBC681A68914288BF19601B4B1A68E3
:105440009142626888BF196022F003029542A2EB84
:10545000050301D80F2B04DC304600F0A7F9002427
:1054600038E7621943F0010345F0010565603046F5
:10547000BA60536000F09AF90834204603B0BDE8E2
:10548000F08F142B71D9542B00F2A480280B00F15B
:105490006F0E4FEA4E036E3076E600BF2094FF1F7A
:1054A0001C9DFF1F209DFF1F189DFF1F149DFF1FA8
:1054B0002C98FF1F5A0A042A5ED9142A00F2B380DE
:1054C00002F15C0149005B3207EB810C57F82110B7
:1054D000DFF8DC81ACF1080C8C4500F088804A686C
:1054E00022F00302934202D289688C45F7D1D1F8A9
:1054F0000CC07A68C4F80CC0A160CCF80840CC603D
:1055000088E6631942F0010745F001056560304601
:105510004B610B61C3F80CE0C3F808E05F609A5080
:10552000083400F043F9D5E64A6873E608F101084B
:1055300018F0030F0CF1080C7FF47FAE30E0DC684C
:10554000A34208BF02303FF435AEB3E60B440C462D
:105550005A68C96854F8085F42F001025A60304640
:10556000E9608D6000F022F9B4E603F15C0E03F10E
:105570005B004FEA4E0307E69A0902F13901490040
:105580003832A1E7BC424A4B3FF400AF9C686268E6
:1055900022F003025AE759F80839994540F0828011
:1055A00010F0030F00F1FF30F5D17B6823EA04030C
:1055B0007B6064009C423FF6BDAE002C3FF4BAAE67
:1055C0001C4240467FF435AE64001C4200F10400EA
:1055D000FAD02EE6B3F5AA7F18D8E80B00F1780EC2
:1055E0004FEA4E037730CFE54FF48051EBE60121CF
:1055F000D8F80430921001FA02F21A43C8F80420D5
:10560000614677E70123CBF8043025E740F2545296
:10561000934220D8A80C00F17D0E4FEA4E037C3057
:10562000B2E51032A4E6542A26D81A0B02F16F0113
:1056300049006E3248E7BC68626822F0030205E761
:10564000CAF30B0000287FF4A8AE4244BB6842F0C6
:1056500001025A60ECE6FE234FF07F0E7E2093E5B8
:1056600001224FF00009C1E604F10801304600F0C4
:105670002FFCD9F80010DBE6B2F5AA7F05D8DA0BCB
:1056800002F17801490077321EE740F254518A4214
:1056900005D89A0C02F17D0149007C3214E7FE2105
:1056A0007E2211E77B6884E7E808431C5B00F8E58D
:1056B0002094FF1F82B049B15AB16BB113780B60CF
:1056C0001278101C18BF012002B0704701A9002AEF
:1056D000F3D1104602B070476FF00100F4E700BF4D
:1056E0008842F0B50DD98B1898420AD28118002A49
:1056F00051D09A1A13F8014D01F8014D9342F9D196
:10570000F0BD0F2A48D941EA00039B0746D100F1BA
:10571000100401F11003154653F8106C44F8106C96
:1057200053F80C6C44F80C6C53F8086C44F8086C93
:10573000103D53F8046C44F8046C0F2D03F1100372
:1057400004F11004E8D8A2F1100323F00F0302F0D3
:105750000F0E1033BEF1030F1944034421D91E1F4D
:105760000D467446043C55F8047B46F8047F032C30
:10577000F8D8AEF1040424F0030404342344214493
:1057800002F0030262B1013B0A4411F8014B03F835
:10579000014F8A42F9D1F0BD0346F3E70346F2E731
:1057A000F0BD7246EEE700BF704700BF704700BF14
:1057B0002DE9F04F174683B0002900F0C1800E4656
:1057C000814607F10B05FFF7EFFF56F804EC162DA5
:1057D0002EF00304A6F1080840D810221546AF4267
:1057E00041D8944275DAC94B996808EB04008842A5
:1057F000416800F0D98021F0010303445B68DB07B6
:105800007DD51EF0010F35D039464846FFF79AFC8A
:105810000746E0B156F8043C23F001034344A0F1ED
:1058200008029A4200F04481221F242A00F23181AA
:10583000132A00F204810346324611681960516848
:10584000596092689A603146484600F041FB4846EC
:10585000FFF7ACFF384603B0BDE8F08F25F0070531
:10586000002D2A46BBDA0C230020C9F8003003B013
:10587000BDE8F08F56F8083CC3EB080ADAF80430AC
:1058800023F0030C04EB0C039342BDDB5746DAF81C
:105890000C1057F8080F221F242AC160886000F2FC
:1058A0001781132A40F212813168CAF80810716812
:1058B000CAF80C101B2A00F22B8108360AF11002DC
:1058C0003168116071685160B16891603E461C4654
:1058D000D046631B0F2B1DD8D8F8043003F001030A
:1058E00023434444C8F80430636843F00103636011
:1058F0004846FFF75BFF304603B0BDE8F08F21F06C
:1059000003012144914221DBC36882680C46D360C5
:105910009A60DEE7D8F8042008EB050102F00102E6
:10592000154343F001020B44C8F804504A605A681A
:1059300042F0010208315A60484600F0C9FAD7E740
:10594000114603B0BDE8F04FFFF7FCBB1EF0010F9E
:105950007FF45AAF56F8083CC3EB080ADAF8043073
:1059600023F0030C01EB0C0E96458BDBC3688268B9
:105970005746D3609A6057F8081FDAF80C30CB60AE
:10598000221F242A996000F29980132A62D9336871
:10599000CAF808307368CAF80C301B2A00F2A080DD
:1059A00008360AF1100356E021F0030BA34405F179
:1059B0001000834559DA1EF0010F7FF425AF56F829
:1059C000081CC1EB080ADAF8041021F0030CE344C8
:1059D00058453FF757AF5746DAF80C1057F8080FFD
:1059E000221F242AC160886000F2B480132A40F28A
:1059F000A5803168CAF808107168CAF80C101B2A13
:105A000000F2AF8008360AF1100231681160716847
:105A10005160B16891600AEB0501C5EB0B0242F0E1
:105A2000010299604A60DAF8043003F001031D4373
:105A30004846CAF80450FFF7B9FE38465CE73368B9
:105A40000360736843601B2A27D800F1080306F13E
:105A50000802F2E63B4632681A6072685A60B26821
:105A60009A603E467446D04633E708EB0501C5EB25
:105A70000B0B4BF0010299604A6056F8043C03F0AE
:105A800001031D43484646F8045CFFF78FFE30468D
:105A900032E73146FFF724FED5E6B3688360F3684A
:105AA000C360242A28D000F1100306F11002C4E6D6
:105AB00050F8043C23F003031C440AE731463846FF
:105AC0007446D046FFF70CFE3E4602E73A46F7E63C
:105AD000314638461C46D046FFF702FE3E46F8E601
